:0400000041EF00F0DC
:10000800FACF03F0FBCF04F0E9CF05F0EACF06F012
:10001800E1CF07F0E2CF08F0D9CF09F0DACF0AF044
:10002800F3CF0BF0F4CF0CF0F6CF0DF0F7CF0EF0C6
:10003800F8CF0FF0F5CF10F006EC0FF0DCEC11F074
:1000480010C0F5FF0FC0F8FF0EC0F7FF0DC0F6FF98
:100058000CC0F4FF0BC0F3FF0AC0DAFF09C0D9FFD8
:1000680008C0E2FF07C0E1FF06C0EAFF05C0E9FFDC
:1000780004C0FBFF03C0FAFF110024EF13F0315056
:10008800D8A47AD27F0E146EFE0E156ECCEC12F048
:10009800620E146EFE0E156ECCEC12F0DA0E146EB3
:1000A800FF0E156ECCEC12F01F0E146EFF0E156EBF
:1000B800CCEC12F020EE01F03250D9263350DA227F
:1000C800DF50300FF8EC12F07F0E146EFE0E156E36
:1000D800CCEC12F0E20E146EFF0E156ECCEC12F0A2
:1000E8003D0E146EFF0E156ECCEC12F020EE02F0F1
:1000F8003250D9263350DA22DF50300FF8EC12F0A4
:100108007F0E146EFE0E156ECCEC12F05A0E146EA5
:10011800FF0E156ECCEC12F020EE03F03250D9260B
:100128003350DA22DF50300FF8EC12F07F0E146EE5
:10013800FE0E156ECCEC12F0D20E146EFF0E156E7C
:10014800CCEC12F02E0E146EFF0E156ECCEC12F0E5
:1001580020EE04F03250D9263350DA22DF50300F27
:10016800F8EC12F07F0E146EFE0E156ECCEC12F049
:10017800CA0E146EFF0E156ECCEC12F0820E146EC1
:10018800FE0E156ECCEC12F020EE05F03250D9269A
:100198003350DA22DF50300FF8EC12F07F0E146E75
:1001A800FE0E156ECCEC12F0C60E146EFE0E156E19
:1001B800CCEC12F020EE07F03250D9263350DA2278
:1001C800DF50300FF8EC12F07F0E146EFE0E156E35
:1001D800CCEC12F0840E146EFF0E156ECCEC12F0FF
:1001E80020EE06F03250D9263350DA22DF50300F95
:1001F800F8EC12F07F0E146EFE0E156ECCEC12F0B9
:10020800B60E146EFF0E156ECCEC12F0760E146E50
:10021800FF0E156ECCEC12F020EE08F03250D92605
:100228003350DA22DF50300FF8EC12F07F0E146EE4
:10023800FE0E156ECCEC12F09E0E146EFF0E156EAF
:10024800CCEC12F0680E146EFF0E156ECCEC12F0AA
:1002580020EE09F03250D9263350DA22DF50300F21
:10026800F8EC12F07F0E146EFE0E156ECCEC12F048
:10027800920E146EFF0E156ECCEC12F04C0E146E2E
:10028800FF0E156ECCEC12F020EE0AF03250D92693
:100298003350DA22DF50300FF8EC12F07F0E146E74
:1002A800FE0E156ECCEC12F0AA0E146EFF0E156E33
:1002B800CCEC12F0ED0E146EFE0E156ECCEC12F0B6
:1002C800DA0E146EFE0E156ECCEC12F0B10E146E32
:1002D800FE0E156ECCEC12F0C10E146EFF0E156EEC
:1002E800CCEC12F09A0E146EFE0E156ECCEC12F0D9
:1002F800100E146EFF0E156ECCEC12F065EC11F0BA
:1003080011C02BF012C02CF031EC0DF07F0E146EE2
:10031800FE0E156ECCEC12F0000E146EFF0E156E6C
:10032800CCEC12F020EE0BF03250D9263350DA2202
:10033800DF50346E34502B6E2C6A31EC0DF07F0E8A
:10034800146EFE0E156ECCEC12F0120015D120EED4
:1003580001F03250D9263350DA2210EE01F02F5036
:10036800E1263050E222E750D00FDF6EE90E146E1E
:10037800FF0E156ECCEC12F0120020EE02F0325097
:10038800D9263350DA2210EE01F02F50E1263050F2
:10039800E222E750D00FDF6EE90E146EFF0E156EE5
:1003A800CCEC12F0120020EE03F03250D926335074
:1003B800DA2210EE01F02F50E1263050E222E75009
:1003C800D00FDF6EE90E146EFF0E156ECCEC12F036
:1003D800120020EE04F03250D9263350DA2210EE03
:1003E80001F02F50E1263050E222E750D00FDF6EA7
:1003F800E90E146EFF0E156ECCEC12F0120020EE12
:1004080005F03250D9263350DA2210EE01F02F5081
:10041800E1263050E222E750D00FDF6EE90E146E6D
:10042800FF0E156ECCEC12F0120020EE07F03250E1
:10043800D9263350DA2210EE01F02F50E126305041
:10044800E222E750D00FDF6EE90E146EFF0E156E34
:10045800CCEC12F0120020EE06F03250D9263350C0
:10046800DA2210EE01F02F50E1263050E222E75058
:10047800D00FDF6EE90E146EFF0E156ECCEC12F085
:10048800120020EE08F03250D9263350DA2210EE4E
:1004980001F02F50E1263050E222E750D00FDF6EF6
:1004A800E90E146EFF0E156ECCEC12F0120020EE61
:1004B80009F03250D9263350DA2210EE01F02F50CD
:1004C800E1263050E222E750D00FDF6EE90E146EBD
:1004D800FF0E156ECCEC12F0120020EE0AF032502E
:1004E800D9263350DA2210EE01F02F50E126305091
:1004F800E222E750D00FDF6EE90E146EFF0E156E84
:10050800CCEC12F0120032C015F033C016F094ECA7
:1005180013F0E90E146EFF0E156ECCEC12F01200FB
:1005280032C013F033C014F0A0EC12F0E90E146ED0
:10053800FF0E156ECCEC12F0120032C011F033C071
:1005480012F0D3EC0FF0E90E146EFF0E156ECCEC22
:1005580012F0120020EE0BF03250D9263350DA2276
:1005680065EC11F011500F0FDF6EE90E146EFF0EDF
:10057800156ECCEC12F012002FC0D9FF30C0DAFF94
:10058800DF50410AD8B40FD7050AD8B4E0D6010A1B
:10059800D8B41FD7030AD8B4D0D7010AD8B4EDD637
:1005A8000E0AD8B4D7D7020AD8B481D7070AD8B464
:1005B800B7D7020AD8B423D71C0AD8B48ED7010AF1
:1005C800D8B4A1D7040AD8B45CD70F0AD8B443D793
:1005D800010AD8B42AD712001200000E0001766F63
:1005E8002F50030B0001756F2FC07CF030C07DF0D9
:1005F80031C07EF032C07FF0000E0001776F0E0E22
:100608000001776501D025D0030E2F1400017C6FFF
:10061800000E301400017D6F000E311400017E6F52
:10062800000E321400017F6F0001765100017C1921
:100638000001766F020E00016C6FD89000017F33C5
:100648007E337D337C3300016C2FF7D70001772B85
:10065800D6D7000E2F1400017C6F000E3014000155
:100668007D6F000E311400017E6F030E32140001FD
:100678007F6F180E00016C6FD89000017F337E33B6
:100688007D337C3300016C2FF7D7030E00017C19F2
:1006980000017D1100017E1100017F11D8A4120014
:1006A8000001755100017619D8A41200000E2F140C
:1006B80000017C6F000E301400017D6F000E3114B4
:1006C80000017E6FF00E321400017F6F7CC06CF069
:1006D8007DC06DF07EC06EF07FC06FF01D0E06D03D
:1006E8000001D8906F336E336D336C33E82EF8D732
:1006F80000016C510001716F000E2F1400017C6F16
:10070800000E301400017D6F000E311400017E6F61
:100718000C0E321400017F6F1A0E00016C6FD89016
:1007280000017F337E337D337C3300016C2FF7D794
:1007380000017C290001726F000E2F1400017C6FEC
:10074800000E301400017D6F800E311400017E6FA1
:10075800000E321400017F6F00017E357F350001E5
:10076800746F000E2F1400017C6F800E301400018E
:100778007D6F7F0E311400017E6F000E3214000170
:100788007F6F7CC06CF07DC06DF07EC06EF07FC066
:100798006FF0100E06D00001D8906F336E336D33B2
:1007A8006C33E82EF8D700016C510001736FF00E1E
:1007B8002F1400017C6F7F0E301400017D6F000E36
:1007C800311400017E6F000E321400017F6F7CC06F
:1007D8006CF07DC06DF07EC06EF07FC06FF0050ECE
:1007E80006D00001D8906F336E336D336C33E82E2A
:1007F800F8D76CC078F06DC079F06EC07AF06FC031
:100808007BF0E00E00017825116EFC0E00017921C5
:10081800126EFF0E00017A21136EFF0E00017B217C
:10082800146E0A0E156E000E166E000E176E000E70
:10083800186E73EC12F011C01DF012C01EF013C038
:100848001FF014C020F0100E216E000E226E000E54
:10085800236E000E246E2EEC0EF01DC078F01EC024
:1008680079F01FC07AF020C07BF00C0E2F14000125
:100878007C6F000E301400017D6F000E31140001F2
:100888007E6F000E321400017F6F020E00016C6F44
:10089800D89000017F337E337D337C3300016C2F89
:1008A800F7D77CC070F0F80E146EFF0E156ECCEC06
:1008B80012F071C02BF02C6A31EC0DF02C0EF8EC14
:1008C80012F072C02BF02C6A31EC0DF02C0EF8EC03
:1008D80012F000017BAF1ED02D0EF8EC12F078C09C
:1008E80011F079C012F07AC013F07BC014F0FF0E3B
:1008F800156EFF0E166EFF0E176EFF0E186E73EC58
:1009080012F011C078F012C079F013C07AF014C058
:100918007BF000D078C01DF079C01EF07AC01FF0BF
:100928007BC020F00A0E216E000E226E000E236E90
:10093800000E246E2EEC0EF01DC02BF01EC02CF005
:1009480031EC0DF02E0EF8EC12F078C011F079C0F1
:1009580012F07AC013F07BC014F00A0E156E000E68
:10096800166E000E176E000E186E32EC10F011C0E5
:100978002BF012C02CF031EC0DF02C0EF8EC12F02C
:1009880073C011F0126A000E146E020E136E91EC11
:1009980010F011C02BF012C02CF031EC0DF02C0E21
:1009A800F8EC12F000017451300FF8EC12F07F0EE1
:1009B800146EFE0E156ECCEC12F0D4EC14F012008E
:1009C8001200306EF2D000D0000E4D6E000E000105
:1009D800C86F00D03050D8B4E5D0080E1964E2D002
:1009E8000F0E1960DFD0020E25D0DCD0F8D03050C1
:1009F800D8A4D8D00F0E196405D0190E196002D0EA
:100A0800030E18D03C0E196405D0640E196002D08C
:100A1800050E10D0640E196407D0FA0E196004D0C0
:100A2800000E4D6E000E06D01928D8A4BBD0070EB4
:100A380001D0B8D04E6ED3D0B5D0D1D03050D8B4C4
:100A4800B1D0080E1964AED00F0E1960ABD0040EE9
:100A5800F1D7A8D0C4D03050D8B4A4D0080E1964A7
:100A6800A1D00F0E19609ED0060EE4D79BD0B7D048
:100A78003050D8A419D00F0E196416D0190E196069
:100A880013D01B0E4D18D8A40FD0010E0001C86F4B
:100A98004DC011F0126A000E146E200E136E91EC08
:100AA80010F014D04D2ABED73050D8A47BD03C0EBD
:100AB800196478D0640E196075D04DC011F0126AAF
:100AC800000E146E200E136E91EC10F0D8901136B3
:100AD8001236D89011361236B20E1124D96E000E85
:100AE8001220DA6ED890DE36DE36DE36DE36DAD71B
:100AF80099D758D074D03050D8A454D00F0E196458
:100B080051D0190E19604ED04DC011F0126A000E66
:100B1800146E200E136E91EC10F0D8901136123628
:100B2800D89011361236B20E1124D96E000E12204A
:100B3800DA6EDECF1AF0DECF1BF0DECF1CF0DECF90
:100B48001DF0D8901A341E6E1B341F6E1C34206E94
:100B58001D34216E010E1E10226E1F50236E205070
:100B6800246E2150256E4DC011F0126A000E146ECD
:100B7800200E136E91EC10F0D89011361236D890E2
:100B880011361236B20E1124D96E000E1220DA6E0A
:100B980022C0DEFF23C0DEFF24C0DEFF25C0DEFF4B
:100BA80081D740D7010E46D71AD04E50000AD8B484
:100BB80011D7010AD8B408D7030AD8B418D7010A3C
:100BC800D8B43CD7070AD8B453D7010AD8B443D706
:100BD800030AD8B490D7010AD8B4F6D600D0070EC5
:100BE8004E18D8A412002D6889D00001B6510F0BF9
:100BF8002D6E0001B2510F0B266E040E1A6ED8909E
:100C08000001B533B433B333B2331A2EF8D7000129
:100C1800B251010B276E0001D890B533B433B3330A
:100C2800B2330001B251010B286E0001D890B533E0
:100C3800B433B333B233FF0E0001B215296EFF0E81
:100C48000001B3152A6EFF0E0001B4152B6E030EBA
:100C58000001B5152C6EEF0E146EFF0E156ECCEC60
:100C680012F0000E2F6E160E2E6E2FBE24D02F50AF
:100C780006E1020E2E5CD8A01ED001D01CD02E504A
:100C880029C01AF02AC01BF02BC01CF02CC01DF084
:100C9800E82A05D0D8901D321C321B321A32E82EB1
:100CA800F9D71A500F0B92EC14F0FC0E2E26FF0EFB
:100CB8002F22DBD7E4D72950030B92EC14F02850ED
:100CC800300FF8EC12F0265092EC14F00001C851E5
:100CD800020DF3502724300FF8EC12F02D28D8B469
:100CE80004D02D5092EC14F000D07F0E146EFE0E3E
:100CF800156ECCEC12F0D4EC14F012004D50200A12
:100D0800D8B477D7040AD8B470D712001200200ECE
:100D18001F6E000E2E6E050E2E6401D027D025C042
:100D28001AF026C01BF027C01CF028C01DF0040EC6
:100D3800D8901A361B361C361D36E82EF9D72E5099
:100D4800010DF3501624D96EF4501720DA6EDF50D7
:100D5800C8EC14F01E6E1E501A10256E1B50266E1D
:100D68001C50276E1D50286E2E2AD5D725C01AF084
:100D780026C01BF027C01CF028C01DF0020ED8901A
:100D88001A361B361C361D36E82EF9D720EE06F02B
:100D98001650D9261750DA22DF50C8EC14F01E6E10
:100DA800030E1E161E501A10256E1B50266E1C5060
:100DB800276E1D50286E060ED89025362636273603
:100DC8002836E82EF9D720EE07F01650D926175006
:100DD800DA22310EDE18D8A402D0258A00D020EEFF
:100DE80008F01650D9261750DA22DF50C8EC14F054
:100DF8001A6E1A50251220EE09F01650D9261750EF
:100E0800DA22300EDF6402D0258800D00B0E1818C5
:100E1800D8A422D020EE0AF01650D9261750DA228C
:100E2800DF50C8EC14F01A6E1AC01BF01C6A1D6A59
:100E38001E6A1C0ED8901B361C361D361E36E82E30
:100E4800F9D71BC029F01CC02AF01DC02BF01EC00A
:100E58002CF0240E1F6E00D0BBEC14F0000E206E98
:100E68007ED08A84000E126ECC0E116E04EC14F043
:100E78008A940A0E126EA00E116E04EC14F025C0AE
:100E880021F026C022F027C023F028C024F0000E4D
:100E98002D6E51D0200E2D18D8A408D029C021F0CD
:100EA8002AC022F02BC023F02CC024F08A84000E24
:100EB800126ECC0E116E04EC14F08A9424AE0ED08F
:100EC8001B0E2D18D8A411D020EE09F01650D926E3
:100ED8001750DA22320EDE18D8A407D0010E126E8F
:100EE800100E116E04EC14F007D0050E126E2E0EC3
:100EF800116E04EC14F000D08A84000E126ECC0E31
:100F0800116E04EC14F08A9424AE07D0010E126E10
:100F1800100E116E04EC14F007D0050E126E2E0E92
:100F2800116E04EC14F000D0D89021362236233606
:100F380024362D2A00D01F502D5CD8A0ABD78A8428
:100F4800000E126ECC0E116E04EC14F08A94270E6B
:100F5800126E100E116E04EC14F0202A00D01950F5
:100F6800205CD8A07ED75CEC14F01200000E1E6E38
:100F7800000E1F6E000E206E000E216E000E286EF1
:100F8800040E286401D018D02850010DF3501624FF
:100F9800D96EF4501720DA6EDF50C8EC14F0196ED1
:100FA80019501E12040ED8901E361F3620362136D0
:100FB800E82EF9D7282AE4D7D00E196EFF0E1A6E3C
:100FC80020EE05F01650D9261750DA22DF501B6E96
:100FD8001C6A19501B261A501C221B041C10D8A46A
:100FE80007D00F0E1E12000E1F122012211200D061
:100FF800D00E196EFF0E1A6E20EE05F01650D92687
:101008001750DA22DF501B6E1C6A19501B261A5023
:101018001C22020E1B181C10D8A407D00A0E1E1280
:10102800000E1F122012211200D0BBEC14F0000E8B
:101038001D6E6BD01EC022F01FC023F020C024F00C
:1010480021C025F0000E266E030E266401D010D0B4
:101058008A84020E126E4E0E116E04EC14F08A94FD
:10106800020E126E4E0E116E04EC14F0262AECD706
:10107800000E276E37D039D08A84020E126E4E0EBB
:10108800116E04EC14F08A9424AE07D0040E126E8C
:101098009C0E116E04EC14F007D0020E126E4E0E68
:1010A800116E04EC14F000D08A84020E126E4E0EFB
:1010B800116E04EC14F08A9424AE07D0020E126E5E
:1010C8004E0E116E04EC14F007D0040E126E9C0E36
:1010D800116E04EC14F000D0D89022362336243652
:1010E8002536272A170E2764C7D78A84010E126E61
:1010F800270E116E04EC14F08A941B0E126E580E13
:10110800116E04EC14F01D2A00D018501D5CD8A0F4
:1011180091D75CEC14F0120081EC14F0000E1E6EF6
:10112800C20E1F6E010E206E000E216E22EC11F011
:10113800A1EC14F0F28E000E0001A06FA60E136E43
:10114800000E146EA0EC12F0CFEC13F0370E146EF4
:10115800FE0E156ECCEC12F05CEC14F05AD0B2EC2A
:1011680013F011C0A2F012C0A3F013C0A4F014C071
:10117800A5F00001B051D8B40FD0A3C014F0A4C09A
:1011880015F0A5C016F0A60E176E000E186E000119
:10119800A251A4EC11F000D00001A405D8A004D0FD
:1011A800000E0001A46FA3690001A751D8B407D0AD
:1011B800A3C016F00001A251B2EC0DF000D000015E
:1011C800AA51D8B405D00001A3516DEC0FF000D09E
:1011D8000001A851D8B407D0A3C023F00001A25140
:1011E8007BEC0CF000D00001AB51D8B407D0A3C001
:1011F80019F00001A251E5EC04F000D00001AD5156
:10120800D8B407D0A3C016F00001A25101EC0BF02E
:1012180000D013EC12F011501210D8A4A0D7A1A23C
:1012280047D08B9AB190A19243D033EC14F00001CF
:10123800A16F240E0001A119D8A404D0000E00014A
:10124800A06F00D00A0E0001A119D8B405D00D0E68
:101258000001A119D8A41ED0010E0001A06516D066
:10126800240E00018019D8A411D0800E00016C6FE3
:10127800000E00016D6FA0C06EF0A60E00016F6F2A
:10128800000E0001706FC3EC0BF000D0000E0001DF
:10129800A06F00D00001A051010D800EF324D96E7B
:1012A800000EF420DA6EA1C0DFFF0001A02B00D0F1
:1012B8006FEC14F00009D8B4ACD7B7D7AAD741EF70
:1012C80000F0000E256E000E266E000E276E000E32
:1012D800286E000E296E040E296401D021D02950F1
:1012E800010DF3501624D96EF4501720DA6EDF5032
:1012F800196ED00E19241A6E1B6AFF0E1B221C6A67
:101308001D6A1A5025121B5026121C5027121D50F8
:101318002812D8902536263627362836292ADBD7AC
:10132800000E2A6E040E2A6401D023D02A50196EAA
:101338001A6ABF0E1B6EFF0E1C6E20EE05F01650CB
:10134800D9261750DA22DF501D6E1E6A1B501D2643
:101358001C501E2219501D1805E11A501E18D8A439
:1013680001D02580D89025362636273628362A2AD1
:10137800D9D7D890253626362736283620EE06F0D7
:101388001650D9261750DA22310EDE18D8A402D00A
:10139800258202D0258000D0BBEC14F0000E1F6E11
:1013A8005BD025C020F026C021F027C022F028C03D
:1013B80023F08A84010E126E650E116E04EC14F08F
:1013C8008A94040E126E2F0E116E04EC14F0000EA7
:1013D800246E0B0E246401D037D08A8421A607D04E
:1013E800010E126E650E116E04EC14F007D0040E97
:1013F800126E2F0E116E04EC14F000D08A9421A600
:1014080007D0040E126E2F0E116E04EC14F007D0E4
:10141800010E126E650E116E04EC14F000D08A8471
:10142800010E126E650E116E04EC14F08A94040E0F
:10143800126E2F0E116E04EC14F0D890203621365F
:1014480022362336242AC5D7270E126E100E116EA7
:1014580004EC14F01F2A00D018501F5CD8A0A1D7A4
:101468005CEC14F0120017C0D9FF18C0DAFFDF5087
:10147800BF0F1DEC14F01A6E1A501F6E206A1F5011
:10148800206E1F6A20EE01F01750D9261850DA2274
:10149800DF501A6ED00E1A24116E126AFF0E122235
:1014A800000E146E0A0E136E48EC14F011C022F0F0
:1014B80012C023F0D00E1A6EFF0E1B6E20EE02F043
:1014C8001750D9261850DA22DF501C6E1D6A1A50A0
:1014D8001C261B501D221C5022261D50232222068A
:1014E800D8A0230622501DEC14F01A6E1A50226E52
:1014F800236A223A233AF00E231622500F0B2312A6
:10150800F00E221622501F2623502022D00E1A6ECB
:10151800FF0E1B6E20EE03F01750D9261850DA2262
:10152800DF501C6E1D6A1A501C261B501D221C50B1
:101538001D10D8B403D0070E1F1200D0BBEC14F056
:10154800000E1E6E53D01FC022F020C023F08A84E4
:10155800010E126E100E116E04EC14F08A94050E32
:10156800126EA20E116E04EC14F0000E216E0B0E1A
:10157800216401D033D023A60FD08A84040E126EC2
:10158800840E116E04EC14F08A94020E126E2E0E64
:10159800116E04EC14F00FD08A84010E126E100E36
:1015A800116E04EC14F08A94050E126EA20E116EE0
:1015B80004EC14F000D08A84010E126E100E116E25
:1015C80004EC14F08A94050E126EA20E116E04EC4F
:1015D80014F0D89022362336212AC9D72C0E126E41
:1015E800EC0E116E04EC14F01E2A00D019501E5C8B
:1015F800D8A0A9D75CEC14F012001B6E640E166418
:101608006AD0000E4C6E000E0001C76F120063D046
:10161800000E0001C76F1B50D8B45AD00C0E1664C8
:1016280057D0200E166054D0020E26D051D067D065
:101638001B50D8A44DD0380E16644AD04C0E1660F4
:1016480047D0030E19D044D05AD01B50D8B408D074
:10165800380E166405D04C0E166002D0040E0CD05D
:101668001B50D8B435D00C0E166432D0200E16603C
:101678002FD0050E01D02CD04C6E41D01B50D8A4D1
:1016880027D0380E166424D04C0E166021D0000ED8
:101698004C6ED89040323F3218D01AD030D01B5000
:1016A800D8A416D00C0E166413D0200E166010D0D5
:1016B800000E4C6ED8904030186E3F30176E000EFA
:1016C80017103F6E080E1810406E0001C72B17D078
:1016D800010ED2D714D04C50000AD8B49CD7010AB6
:1016E800D8B496D7030AD8B4A3D7010AD8B4ADD7CB
:1016F800070AD8B4D4D7010AD8B4C0D700D00C0E82
:101708000001C719D8A412004C50D8A41200F20E38
:10171800146EFF0E156ECCEC12F03F500F0B410FFC
:10172800F8EC12F03FC017F040C018F0040E196E24
:10173800D89018321732192EFBD70F0E1716172804
:101748001A6E100E1A18D8A403D0000E1A6E00D004
:101758001A5092EC14F040A604D0310EF8EC12F0B6
:1017680004D0300EF8EC12F000D07F0E146EFE0E8E
:10177800156ECCEC12F0D4EC14F01200120095D0D7
:10178800080E00016E19D8A41200020E00016C2583
:10179800166E000E00016D21176E000120EE03F099
:1017A8006F51D9267051DA22DF50186EBAEC07F063
:1017B8001200060E00016E19D8A41200020E0001D4
:1017C8006C25176E000E00016D21186E000120EEC9
:1017D80008F06F51D9267051DA22DF50196E37ECB4
:1017E8000AF012000C0E00016E19D8B405D00D0EC7
:1017F80000016E19D8A41200020E00016C25166EA5
:10180800000E00016D21176E00016E51FE0F186E5B
:10181800000120EE06F06F51D9267051DA22DF5010
:10182800196E8BEC06F01200090E00016E19D8A48F
:101838001200020E00016C25166E000E00016D21CB
:10184800176E000120EE09F06F51D9267051DA2287
:10185800DF50186E65EC09F01200370E146EFE0E9C
:10186800156ECCEC12F01200020E00016C252F6EE2
:10187800000E00016D21306E00016E51FE0F316EB9
:101888006FC032F070C033F043EC00F01200FF007C
:101898001200BBEC14F08A84130E126E880E116EBF
:1018A800EAEC13F05CEC14F01200000120EE01F0F9
:1018B8006C51D9266D51DA22DF50210AD8B4E9D704
:1018C800660AD8B45DD70C0AD8B4AED7050AD8B41E
:1018D80089D71E0AD8B4C1D7030AD8B4C5D7040A11
:1018E800D8B467D70F0AD8A41200D1D71200266E31
:1018F800040E496E2650D8B417D0140E23640FD0A6
:10190800370E23600CD04AC024F0010E256E242A1D
:1019180002D0D8902536242EFCD716D02BD0000E16
:101928004A6E020E496E2AD0140E236411D0370E67
:1019380023600ED04AC024F0010E256E242A02D05E
:10194800D8902536242EFCD72550FF0A4B1612D0E6
:10195800370E2364E4D75A0E2360E1D74AC024F037
:10196800010E256E242A02D0D8902536242EFCD7C5
:1019780025504B124A2A02D0D2D700D0030E4A640F
:1019880017D04B50D8A402D0050E0DD0080E4B1816
:10199800D8A402D0000E07D0020E4B18D8A402D04B
:1019A800010E01D0020E496E00D0000E4A6E00D022
:1019B800040E4918D8B4120046D0120044D0050EBF
:1019C8004918D8A409D0050E0001C519D8A404D017
:1019D800010E0001C66F00D049C0C5F01200020E0A
:1019E8004918D8B404D0050E4918D8A420D0170E29
:1019F8000001C46513D0C0C0C1F0BFC0C0F0BEC0F4
:101A0800BFF00001BE6BBEC016F0BFC017F0C0C06B
:101A180018F0C1C019F09DEC0EF000D049C0C5F017
:101A2800000E0001C46F000E0001C66F1200000115
:101A3800D890BE37BF37C037C13749500001BE13F1
:101A48000001C42B12000001C651000AD8B4B7D750
:101A5800010AD8A41200C3D71200000E0001676F54
:101A6800000E00016B6F800E2C5CD8A00ED02D0EDE
:101A78000001606F010E0001676F010E00016B6FBE
:101A88002B6C2C1ED8B02C2A00D02BC068F02CC090
:101A980069F011D000016B2B68C011F069C012F019
:101AA800000E146E0A0E136E45EC12F011C068F0A9
:101AB80012C069F000D000016951ECE10A0E000182
:101AC800685DD8B0E7D76BC06AF027D000016A51CB
:101AD800010D600EF324D96E000EF420DA6E2BC0CF
:101AE80011F02CC012F0000E146E0A0E136E4EEC9C
:101AF80013F01150300FDF6E2BC011F02CC012F014
:101B0800000E146E0A0E136E45EC12F011C02BF085
:101B180012C02CF000016A0700D000016751D8906C
:101B280000016AAF6A5DD8B0D880D8B0CFD70001BD
:101B38006B512D6E2E6A010E2D26000E2E22600E80
:101B48002D24D96E000E2E20DA6E000EDF6E600E88
:101B5800146E000E156ECCEC12F012001A6E1A50AC
:101B6800D8B420D0200E16640CD0280E166009D0E8
:101B78004350D8B404D0030E4418D8A402D0010EA0
:101B880022D00F0E16641ED0150E16601BD04350BF
:101B9800D8B404D0040E4418D8A414D0000E13D01E
:101BA80011D013D0200E166405D0280E166002D06E
:101BB800040E09D00F0E166405D0150E166002D05B
:101BC800030E01D0020E446E00D04404D8B403D0F2
:101BD8004450D8A40BD00001D890C237C33744046E
:101BE800D8A402D00001C281432A1200020E441870
:101BF800D8A412000D0E4318D8A428D0FB0E146EDA
:101C0800FF0E156ECCEC12F00001C3510F0B92ECD5
:101C180014F0C2C017F0C3C018F0040E196ED890A3
:101C280018321732192EFBD717500F0B92EC14F0FD
:101C38000001C2510F0B92EC14F07F0E146EFE0ED1
:101C4800156ECCEC12F0D4EC14F000D0000E436EFC
:101C580012001200000E266E24AE0BD0241E231E86
:101C6800221E216C000E222223222422010E266E1F
:101C780000D020AE0BD0201E1F1E1E1E1D6C000E95
:101C88001E221F222022010E261A00D0000E276EC7
:101C9800000E286E000E296E000E2A6E21502210AA
:101CA80023102410D8B42FD0010E256E07D0D89059
:101CB8002136223623362436252A00D024BE02D0E7
:101CC800F6D700D0D8902736283629362A3621501C
:101CD8001D5C22501E5823501F5824502058D8A04D
:101CE8000AD021501D5E22501E5A23501F5A2450DC
:101CF800205A278000D0D890243223322232213231
:101D0800252EE0D700D02650D8B409D02A1E291E87
:101D1800281E276C000E282229222A2200D027C03C
:101D28001DF028C01EF029C01FF02AC020F01200A4
:101D38001200F50E146EFF0E156ECCEC12F0000EAC
:101D4800226E040E226401D022D0000E16141E6EDC
:101D5800000E17141F6E000E1814206EF00E1914C2
:101D6800216E040ED8901636173618361936E82E16
:101D7800F9D71C0E1A6ED890213220321F321E322B
:101D88001A2EF9D71E5092EC14F0222ADAD7000E38
:101D980016141A6E000E17141B6E000E18141C6E03
:101DA800F00E19141D6EF00E1D181A101B101C10C1
:101DB800D8A404D0310EF8EC12F01BD0000E161483
:101DC8001A6E000E17141B6E000E18141C6EF00EFF
:101DD80019141D6EA00E1D181A101B101C10D8A463
:101DE80004D0320EF8EC12F004D0300EF8EC12F0F9
:101DF80000D07F0E146EFE0E156ECCEC12F0D4ECF3
:101E080014F01200F0A21200F092D650D7CF01F0D1
:101E1800026A01C002F0016A0112000E021241506A
:101E2800040D010EF326000EF422800EF324D96E61
:101E3800010EF420DA6E01C0DEFF02C0DDFF000EE5
:101E4800D76ED7CFD6FFF2A412D04150040D010EA1
:101E5800F326000EF422800EF324D96E010EF4202E
:101E6800DA6EFF0EDE6EFF0EDD6EF29400D081A4F6
:101E78000AD04150040D800EF324D96E010EF420CF
:101E8800DA6E000E09D04150040D800EF324D96E8D
:101E9800010EF420DA6E010EDF6E4150040D030EC0
:101EA800F326000EF422800EF324D96E010EF420DE
:101EB800DA6E35C0DFFF000E366E000E356E412833
:101EC8001F0B416EF1A802D0F1981200F1881200A0
:101ED8001200336E280E33640CD0500E336009D0D4
:101EE800040E4518D8A402D0010E13D0040E11D048
:101EF80012D0640E33640CD08C0E336009D0040EFB
:101F08004518D8A403D04650D8A402D0000E01D05A
:101F1800020E456E00D0040E4518D8B4120036D013
:101F2800020E4518D8B40CD0D89047364550471201
:101F380047500F0B0C0AD8A41200010E486E12006D
:101F4800000E476E1200020E4518D8A414D0200EB9
:101F58004618D8A40BD0BAC02FF0BBC030F0BCC014
:101F680031F0BDC032F0F1EC02F000D0000E466E48
:101F7800000E486E12000001D890BA37BB37BC3744
:101F8800BD3745500001BA13462A12004850000ACE
:101F9800D8B4C6D7010AD8B4D6D71200120011C0D7
:101FA800D9FF12C0DAFF010EDF6E20EE01F01150EA
:101FB800D9261250DA22010EDF6E20EE02F01150FF
:101FC800D9261250DA22010EDF6E20EE03F01150EE
:101FD800D9261250DA22060EDF6E20EE04F01150D8
:101FE800D9261250DA22010EDF6E20EE05F01150CC
:101FF800D9261250DA22010EDF6E20EE06F01150BB
:10200800D9261250DA22050EDF6E20EE07F01150A5
:10201800D9261250DA22010EDF6E20EE08F0115098
:10202800D9261250DA22080EDF6E20EE09F0115080
:10203800D9261250DA22060EDF6E20EE0AF0115071
:10204800D9261250DA22000EDF6E20EE0BF0115066
:10205800D9261250DA22960EDF6E1200000E1A6E82
:1020680014AE0BD0141E131E121E116C000E122279
:1020780013221422010E1A6E00D018AE09D0181EB1
:10208800171E161E156C000E16221722182200D0D5
:102098001550161017101810D8B429D0010E196E43
:1020A80007D0D8901536163617361836192A00D0A4
:1020B80018BE02D0F6D700D01550115C1650125831
:1020C8001750135818501458D8A009D01550115E3D
:1020D8001650125A1750135A1850145A00D0D89044
:1020E8001832173216321532192EE6D700D01A5088
:1020F800D8B409D0141E131E121E116C000E122221
:102108001322142200D011C011F012C012F013C013
:1021180013F014C014F012001200000E166E14AE64
:1021280007D0136C141ED8B0142A010E166E00D0F6
:1021380012AE07D0116C121ED8B0122A010E161A50
:1021480000D0000E186E000E176E13501410D8B47D
:1021580021D0010E156E05D0D89013361436152AE5
:1021680000D014BE02D0F8D700D0D8901736183651
:102178001350115C14501258D8A006D01350115E99
:102188001450125A178000D0D89014321332152EDA
:10219800ECD700D01650D8B405D0176C181ED8B09C
:1021A800182A00D017C011F018C012F0120012003F
:1021B800000E196E000E1A6E000E1B6E000E1C6EBD
:1021C8001550161017101810D8B42FD0010E1D6E08
:1021D80007D0D89015361636173618361D2A00D06F
:1021E80018BE02D0F6D700D0D89019361A361B364A
:1021F8001C361550115C16501258175013581850A9
:102208001458D8A00AD01550115E1650125A1750FB
:10221800135A1850145A198000D0D890183217320F
:10222800163215321D2EE0D700D019C011F01AC091
:1022380012F01BC013F01CC014F01200000E116E37
:10224800480E126EE80E136E010E146E1EC015F0C5
:102258001FC016F020C017F021C018F0DCEC10F0F9
:10226800050E05D0D8901432133212321132E82EEE
:10227800F9D7FF0E1124226EFF0E1220236EFF0ED7
:102288001320246EFF0E1420256E240EAC6E900EC3
:10229800AB6E000EB86E22C0AFFFF28C300E9D12EE
:1022A800000E3A6E000E396E39C037F03AC038F079
:1022B80037C03DF038C03EF03DC03BF03EC03CF07A
:1022C8001200000E166E000E156E000E1A6E000E2D
:1022D800196E000E186E000E176E18BE08D0E80EA4
:1022E800175C030E1858D8B026D001D024D0030E9E
:1022F800C21200D0C2B2FED7C350C4CF13F0146AC2
:1023080013C014F0136A1310196E14501A6ED89073
:102318001A321932D8901A3219321950155C1A50DB
:102328001658D8B005D019C015F01AC016F000D04C
:10233800174A182AD2D715C011F016C012F0120089
:102348001B6E1B50D8B403D016C0CAF000D020EEC4
:102358000BF01750D9261850DA220001CA51DE5C5A
:10236800D8B016D0010E0001C96F14C019F015C0FD
:102378001AF01AC019F01A6A0F0E19161B38F00B4A
:1023880019108009F8EC12F01450F8EC12F0120051
:102398000001C9510001D8B41200A00EF8EC12F0E7
:1023A800000EF8EC12F0000E0001C96F12001200C6
:1023B8009EAA14D0000E3724D96E010E3820DA6E8A
:1023C800AECFDFFF010E3724016E000E3820026EFB
:1023D8007F0E0114376E386A9E9A00D09EA81200AC
:1023E8009DA81200000E3D24D96E020E3E20DA6E22
:1023F800DF50AD6E010E3D24016E000E3E20026ED0
:102408007F0E01143D6E3E6A3B503D1805E13C507D
:102418003E18D8A401D09D989E9812001200C2B20E
:1024280021D0C350C4CF13F0146A13C014F0136A38
:102438001312000E141214341432133214341432DA
:10244800133213C015F014C016F03550155C365011
:102458001658D8A005D015C035F016C036F000D0F3
:10246800C28200D042504118D8B405D0000E126E76
:10247800010E116E1200000E126E000E116E120087
:102488001200000E176E000E166E13501410D8B4FA
:1024980021D0010E156E05D0D89013361436152AA2
:1024A80000D014BE02D0F8D700D0D8901636173610
:1024B8001350115C14501258D8A006D01350115E56
:1024C8001450125A168000D0D89014321332152E98
:1024D800ECD700D016C011F017C012F01200000E91
:1024E800196E000E1A6E000E1B6E000E1C6E00D0C8
:1024F80011A009D01550192616501A2217501B2260
:1025080018501C2200D0D8901536163617361836B3
:10251800D890143213321232113211501210131093
:102528001410D8A4E5D719C011F01AC012F01BC0B6
:1025380013F01CC014F01200000E126E000E116E83
:10254800AEEC14F0E806D8B407D013C011F014C0EC
:1025580012F0D3EC0FF01200000E156E0B0E15647E
:1025680002D0120012001550010DF3501324D96E39
:10257800F4501420DA6E15C011F0126AAEEC14F0A3
:10258800DF6E152A0B0E1564EED71200120012002A
:1025980016D014C0F6FF15C0F7FF000EF86E0F0E28
:1025A800F76403D00800F55005D0F6CFE1FFF7CF68
:1025B800E2FFE750F8EC12F0144A152A00D014C0D4
:1025C800F6FF15C0F7FF000EF86E0F0EF76403D084
:1025D8000800F55005D0F6CFE1FFF7CFE2FFE7504E
:1025E8000009D8A4D6D71200136E010E3B24116E31
:1025F800000E3C20126E7F0E1116000E12163D5072
:1026080011180AE13E501218D8B402D005D000D0F3
:102618009DA802D0FDD700D0000E3B24D96E020E33
:102628003C20DA6E13C0DFFF010E3B24116E000E52
:102638003C20126E7F0E11143B6E3C6A9D8812007E
:1026480002EE00F0800EEE6AE806FDE101EE00F011
:1026580011EE00F0EE6AE550E150FCE1E250FAE1DB
:1026680000EEB2F0190EEE6AE806FDE100EE35F074
:10267800190EEE6AE806FDE1CA0EF66E290EF76E2F
:10268800000EF86E0900F5CF4EF0000EF86E00014E
:1026980090EF08F013501410D8B41DD0010E156E29
:1026A80005D0D89013361436152A00D014BE02D09F
:1026B800F8D700D01350115C14501258D8A005D088
:1026C8001350115E1450125A00D0D890143213329D
:1026D800152EF0D700D011C011F012C012F0120060
:1026E800000E146E1250030BAA6E11C0A9FF13C07E
:1026F800A8FFA69EA69CA684000EF2BE010E146E2C
:10270800F29E550EA76EAA0EA76EA68200D0A6B29C
:10271800FED714B002D0F29E01D0F28EA694120019
:10272800000E176E0B0E176402D012001200DBECBD
:1027380014F017C011F0126A1750010DF350152448
:10274800D96EF4501620DA6EDF50136E74EC13F065
:10275800172A0B0E1764EBD7120012004250040D13
:10276800800EF324D96E010EF420DA6EDECF15F058
:10277800DECF16F0DECF17F0DECF18F042281F0BA1
:10278800426E15C011F016C012F017C013F018C031
:1027980014F0120012008B9A8B98000E166E040E1D
:1027A800166402D0120012008B7A8BAA02D08B8892
:1027B80001D08B98000E126E640E116EEAEC13F0C5
:1027C800162A040E1664F0D712001200000E156EB9
:1027D800000E146E0AD00B0E136E620EE82EFED792
:1027E800132EFCD700D0144A152A1150145C15502A
:1027F800800A136E1250800A1358D8A0ECD7120022
:1028080011C013F012C014F0131E141E134A142A18
:10281800FF0E1324116EFF0E1420126E11C0CEFF8E
:102828001250CF6ECD8000D09EA0FED7CD909E9046
:102838001200126E000E116E12A002D0118600D086
:1028480012A202D0118400D012A402D0118200D0AA
:1028580012A602D0118000D0115012001200000EF2
:102868003924D96E010E3A20DA6EDF50136E010E4C
:102878003924116E000E3A20126E7F0E1114396E33
:102888003A6A13501200120011501302F3CF15F0D8
:10289800F4CF16F011501402F350162612501302FA
:1028A800F350162615C011F016C012F012001200CF
:1028B800E2EC14F0000E126E030E116EEAEC13F047
:1028C8008A968B98E90E146EFF0E156ECCEC12F0FA
:1028D800F092F0881200ABA204D0AB98AB88000E3F
:1028E80012003950371804E13A503818D8B402D0D9
:1028F800010E1200000E12001200800E946E060ED9
:10290800936E000E926E600ED36EC00E9B6E350EE7
:10291800B16E790ECD6E000ED16E1200146E0A0ED5
:10292800146005D01450300FF8EC12F01200145057
:10293800370FF8EC12F012001200860ED56E000E5A
:102948007E6E040E7F6E290EC26E000EC16E880E5A
:10295800C06E12001250030BAA6E11C0A9FFA69CEC
:10296800A69EA68000F000F0A85012001200F09277
:10297800F0988B888A86000E126E030E116EEAECB0
:1029880013F0DFEC14F01200116E3A0E116002D051
:10299800300E01D0370E115E00D011501200120017
:1029A8008B8A000EB36E000EB26EB180120000D09A
:1029B800A6B2FED71200020E936E1200060E936E98
:0429C80012000100F8
:10FE3600004D756C74695452582048574944203116
:10FE46002E312C204657494420312E33202D207345
:10FE56006B61676D6F2E636F6D0D0A002D2D2D2D55
:10FE66002D2D2D2D2D2053657474696E6773202DED
:10FE76002D2D2D2D2D2D2D2D2D0D0A00205B4E5DAA
:10FE860020456E2E205258206C6561726E696E6731
:10FE9600203D2000205B495D20536574206E6F690C
:10FEA600736520666C6F6F720D0A00205B465D20DD
:10FEB6004C6F61642064656661756C74730D0A002D
:10FEC600205B595D20456E2E20525820636F646575
:10FED600203D2000205B4C5D20454550524F4D2073
:10FEE6006C6F61640D0A00205B535D2045455052DE
:10FEF6004F4D20736176650D0A00204E6F6973655C
:10FF060020666C6F6F72203D200020437572722E42
:10FF16002052535349203D2000205B445D20456E0E
:10FF26002E205258203D2000205B455D20456E2E38
:10FF3600205258203D2000205B475D20456E2E2034
:10FF46005258203D2000205B525D20456E205258BD
:10FF5600203D2000205B415D2053656E6473203D8B
:10FF66002000205B4B5D2053656E6473203D2000AE
:10FF7600205B575D2053656E6473203D2000205B37
:10FF8600585D2053656E6473203D200052617720D2
:10FF9600646174613A0D0A004B616E677468616949
:10FFA6003A0D0A0053657474696E67733A0D0A0058
:10FFB600576176656D616E3A0D0A004F7468657219
:10FFC6003A0D0A004E6578613A0D0A004573696379
:10FFD6003A0D0A00446F726F3A0D0A0047414F3AD4
:10FFE6000D0A00244F4B0D0A00244E002443002422
:0AFFF60047002445002444000000E9
:020000040030CA
:08000000FF081F1EFF0181FF34
:00000001FF
