:040000000CEF00F011
:10000800FACF66F2FBCF67F2E9CF68F2F0EF22F0A1
:1000180000EE00F011EE49F016EC00F0000EF86E5C
:10002800A4EF16F0EE6AE550E150FCE1E250FAE187
:100038001200020102013C05D8A425EF00F027EFC9
:1000480000F019EF03F002013F6F0A0E02010201EE
:10005800606F02013F51DFEC25F0870E02010201BB
:100068005E6F7E0E02015F6F9EEC26F002013F6F0D
:100078000A0E02010201606F02013F51DFEC25F018
:10008800E70E020102015E6F7F0E02015F6F9EECB8
:1000980026F002013F6F0A0E02010201606F0201A1
:1000A8003F51DFEC25F0430E020102015E6F7F0E27
:1000B80002015F6F9EEC26F0010E020102013D2550
:1000C800E96E000E020102013E21EA6EEF50300F88
:1000D80002010201606FDFEC25F002013F6F0A0E9A
:1000E80002010201606F02013F51DFEC25F0070EAB
:1000F800020102015E6F7F0E02015F6F9EEC26F027
:10010800020E020102013D25E96E000E0201020104
:100118003E21EA6EEF50300F02010201606FDFEC02
:1001280025F002013F6F0A0E02010201606F020111
:100138003F51DFEC25F0610E020102015E6F7F0E78
:1001480002015F6F9EEC26F0030E020102013D25BD
:10015800E96E000E020102013E21EA6EEF50300FF7
:1001680002010201606FDFEC25F002013F6F0A0E09
:1001780002010201606F02013F51DFEC25F0340EED
:10018800020102015E6F7F0E02015F6F9EEC26F096
:10019800040E020102013D25E96E000E0201020172
:1001A8003E21EA6EEF50300F02010201606FDFEC72
:1001B80025F002013F6F0A0E02010201606F020181
:1001C8003F51DFEC25F0DA0E020102015E6F7E0E70
:1001D80002015F6F9EEC26F0050E020102013D252B
:1001E800E96E000E020102013E21EA6EEF50300F67
:1001F80002010201606FDFEC25F002013F6F0A0E79
:1002080002010201606F02013F51DFEC25F0D60EBA
:10021800020102015E6F7F0E02015F6F9EEC26F005
:1002280002013F6F0A0E02010201606F02013F5195
:10023800DFEC25F08E0E020102015E6F7F0E0201D7
:100248005F6F9EEC26F0060E020102013D25E96E65
:10025800000E020102013E21EA6EEF50300F02014A
:100268000201606FDFEC25F002013F6F0A0E020108
:100278000201606F02013F51DFEC25F0E20E02013E
:1002880002015E6F7F0E02015F6F9EEC26F0020195
:100298003F6F0A0E02010201606F02013F51DFEC5D
:1002A80025F0700E020102015E6F7F0E02015F6F82
:1002B8009EEC26F0070E020102013D25E96E000EB4
:1002C800020102013E21EA6EEF50300F02010201E5
:1002D800606FDFEC25F002013F6F0A0E0201020198
:1002E800606F02013F51DFEC25F0E90E02010201C7
:1002F8005E6F7E0E02015F6F9EEC26F0080E020113
:1003080002013D25E96E000E020102013E21EA6E5E
:10031800EF50300F02010201606FDFEC25F002019F
:100328003F6F0A0E02010201606F02013F51DFECCC
:1003380025F0DC0E020102015E6F7F0E02015F6F85
:100348009EEC26F002013F6F0A0E02010201606F67
:1003580002013F51DFEC25F09D0E020102015E6FA4
:100368007F0E02015F6F9EEC26F0090E020102016A
:100378003D25E96E000E020102013E21EA6EEF50B2
:10038800300F02010201606FDFEC25F002013F6FC0
:100398000A0E02010201606F02013F51DFEC25F0F5
:1003A800D00E020102015E6F7F0E02015F6F9EECAC
:1003B80026F002013F6F0A0E02010201606F02017E
:1003C8003F51DFEC25F07F0E020102015E6F7F0EC8
:1003D80002015F6F9EEC26F00A0E020102013D2524
:1003E800E96E000E020102013E21EA6EEF50300F65
:1003F80002010201606FDFEC25F002013F6F0A0E77
:1004080002010201606F02013F51DFEC25F0250E69
:10041800020102015E6F7F0E02015F6F9EEC26F003
:100428000B0E020102013D25E96E000E02010201D8
:100438003E21EA6EEF50300F02010201606FDFECDF
:1004480025F002013F6F0A0E02010201606F0201EE
:100458003F51DFEC25F0C00E020102015E6F7F0EF6
:1004680002015F6F9EEC26F002013F6F0A0E020147
:100478000201606F02013F51DFEC25F0160E020108
:1004880002015E6F7F0E02015F6F9EEC26F00C0E7C
:10049800020102013D25E96E000E020102013E2122
:1004A800EA6EEF50300F02010201606FDFEC25F0B9
:1004B80002013F6F0A0E02010201606F02013F5103
:1004C800DFEC25F0AC0E020102015E6F7F0E020127
:1004D8005F6F9EEC26F002013F6F0A0E02010201D7
:1004E800606F02013F51DFEC25F0F80E02010201B6
:1004F8005E6F7E0E02015F6F9EEC26F00D0E02010C
:1005080002013D25E96E000E020102013E21EA6E5C
:10051800EF50300F02010201606FDFEC25F002019D
:100528003F6F0A0E02010201606F02013F51DFECCA
:1005380025F0B60E020102015E6F7F0E02015F6FA9
:100548009EEC26F002013F6F0A0E02010201606F65
:1005580002013F51DFEC25F0B80E020102015E6F87
:100568007E0E02015F6F9EEC26F002013F6F0A0EBD
:1005780002010201606F02013F51DFEC25F0C90E54
:10058800020102015E6F7E0E02015F6F9EEC26F093
:1005980002013F6F0A0E02010201606F02013F5122
:1005A800DFEC25F0A50E020102015E6F7E0E02014E
:1005B8005F6F9EEC26F002013F6F0A0E02010201F6
:1005C800606F02013F51DFEC25F0C90E0201020104
:1005D8005E6F7F0E02015F6F9EEC26F002013F6F97
:1005E8000A0E02010201606F02013F51DFEC25F0A3
:1005F800520E020102015E6F7F0E02015F6F9EECD8
:1006080026F065EC21F040C24FF241C250F2B8EC3E
:100618001EF002013F6F0A0E02010201606F020123
:100628003F51DFEC25F0DCEF05F0A8EF05F0010EF7
:10063800020102013D25E96E000E020102013E2180
:10064800EA6E010E020102013A25E16E000E020176
:1006580002013B21E26EE750D00FEF6EEC0E020173
:1006680002015E6F7F0E02015F6F9EEC26F00201B1
:100678003F6F0A0E02010201606F02013F51DFEC79
:1006880025F0DCEF05F0020E020102013D25E96EBE
:10069800000E020102013E21EA6E010E0201020172
:1006A8003A25E16E000E020102013B21E26EE7509D
:1006B800D00FEF6EEC0E020102015E6F7F0E020199
:1006C8005F6F9EEC26F002013F6F0A0E02010201E5
:1006D800606F02013F51DFEC25F0DCEF05F0030EFF
:1006E800020102013D25E96E000E020102013E21D0
:1006F800EA6E010E020102013A25E16E000E0201C6
:1007080002013B21E26EE750D00FEF6EEC0E0201C2
:1007180002015E6F7F0E02015F6F9EEC26F0020100
:100728003F6F0A0E02010201606F02013F51DFECC8
:1007380025F0DCEF05F0040E020102013D25E96E0B
:10074800000E020102013E21EA6E010E02010201C1
:100758003A25E16E000E020102013B21E26EE750EC
:10076800D00FEF6EEC0E020102015E6F7F0E0201E8
:100778005F6F9EEC26F002013F6F0A0E0201020134
:10078800606F02013F51DFEC25F0DCEF05F0050E4C
:10079800020102013D25E96E000E020102013E211F
:1007A800EA6E010E020102013A25E16E000E020115
:1007B80002013B21E26EE750D00FEF6EEC0E020112
:1007C80002015E6F7F0E02015F6F9EEC26F0020150
:1007D8003F6F0A0E02010201606F02013F51DFEC18
:1007E80025F0DCEF05F0060E020102013D25E96E59
:1007F800000E020102013E21EA6E010E0201020111
:100808003A25E16E000E020102013B21E26EE7503B
:10081800D00FEF6EEC0E020102015E6F7F0E020137
:100828005F6F9EEC26F002013F6F0A0E0201020183
:10083800606F02013F51DFEC25F0DCEF05F0070E99
:10084800020102013D25E96E000E020102013E216E
:10085800EA6E010E020102013A25E16E000E020164
:1008680002013B21E26EE750D00FEF6EEC0E020161
:1008780002015E6F7F0E02015F6F9EEC26F002019F
:100888003F6F0A0E02010201606F02013F51DFEC67
:1008980025F0DCEF05F0080E020102013D25E96EA6
:1008A800000E020102013E21EA6E010E0201020160
:1008B8003A25E16E000E020102013B21E26EE7508B
:1008C800D00FEF6EEC0E020102015E6F7F0E020187
:1008D8005F6F9EEC26F002013F6F0A0E02010201D3
:1008E800606F02013F51DFEC25F0DCEF05F0090EE7
:1008F800020102013D25E96E000E020102013E21BE
:10090800EA6E010E020102013A25E16E000E0201B3
:1009180002013B21E26EE750D00FEF6EEC0E0201B0
:1009280002015E6F7F0E02015F6F9EEC26F00201EE
:100938003F6F0A0E02010201606F02013F51DFECB6
:1009480025F0DCEF05F00A0E020102013D25E96EF3
:10095800000E020102013E21EA6E010E02010201AF
:100968003A25E16E000E020102013B21E26EE750DA
:10097800D00FEF6EEC0E020102015E6F7F0E0201D6
:100988005F6F9EEC26F002013F6F0A0E0201020122
:10099800606F02013F51DFEC25F0DCEF05F00B0E34
:1009A800020102013D25E96E000E020102013E210D
:1009B800EA6E010E020102013A25E16E000E020103
:1009C80002013B21E26EE750D00FEF6EEC0E020100
:1009D80002015E6F7F0E02015F6F9EEC26F002013E
:1009E8003F6F0A0E02010201606F02013F51DFEC06
:1009F80025F0DCEF05F00C0E020102013D25E96E41
:100A0800000E020102013E21EA6E010E02010201FE
:100A18003A25E16E000E020102013B21E26EE75029
:100A2800D00FEF6EEC0E020102015E6F7F0E020125
:100A38005F6F9EEC26F002013F6F0A0E0201020171
:100A4800606F02013F51DFEC25F0DCEF05F00D0E81
:100A5800020102013D25E96E000E020102013E215C
:100A6800EA6E010E020102013A25E16E000E020152
:100A780002013B21E26EE750D00FEF6EEC0E02014F
:100A880002015E6F7F0E02015F6F9EEC26F002018D
:100A98003F6F0A0E02010201606F02013F51DFEC55
:100AA80025F0DCEF05F03DC240F23EC241F20EEC0B
:100AB80027F0EC0E020102015E6F7F0E02015F6FEC
:100AC8009EEC26F002013F6F0A0E02010201606FE0
:100AD80002013F51DFEC25F0DCEF05F03DC240F2AA
:100AE8003EC241F2D6EC26F0EC0E020102015E6F26
:100AF8007F0E02015F6F9EEC26F002013F6F0A0E27
:100B080002010201606F02013F51DFEC25F0DCEFCA
:100B180005F03DC240F23EC241F22BEC20F0EC0E53
:100B2800020102015E6F7F0E02015F6F9EEC26F0EC
:100B380002013F6F0A0E02010201606F02013F517C
:100B4800DFEC25F0DCEF05F03AC2E9FF3BC2EAFF33
:100B5800EF50410A01E19FD6030A01E168D5010A75
:100B680001E1BDD5070A01E13ED6010A01E1BFD680
:100B7800030ACFE0010A01E162D60F0A01E107D6B4
:100B8800030A01E164D7070AA9E0010A01E17BD55C
:100B9800030A01E1D8D61C0A01E1CDD5010A83E098
:100BA800040A01E128D70F0A01E1F9D6DCEF05F0C4
:100BB800120002014B6F000E020102013A6F02019E
:100BC8004B5102014B6F000E02010201416F0201FD
:100BD8004B51020102013651030B02010201406F21
:100BE80036C246F237C247F238C248F239C249F231
:100BF80002014B6F000E020102014A6F02014B51C4
:100C08000E0E020102014A650CEF06F00EEF06F027
:100C180010EF06F050EF06F0030E02010201361540
:100C280002010201466F000E02010201371502019E
:100C3800476F000E0201020138150201486F000ECD
:100C48000201020139150201496F020102014151F5
:100C580002010201461902010201416F020E02015E
:100C68004B6FD89002010201493302014833020157
:100C780047330201463302014B2F35EF06F00201DC
:100C880002014A2B0E0E020102014A654EEF06F0E0
:100C980050EF06F010EF06F0000E020102013615C3
:100CA80002010201466F000E02010201371502011E
:100CB800476F000E0201020138150201486F030E4A
:100CC8000201020139150201496F180E02014B6F2A
:100CD800D890020102014933020148330201473327
:100CE8000201463302014B2F6CEF06F00201465118
:100CF800030A471148114911D8A485EF06F087EF78
:100D080006F0D8EF08F00201020140510201020189
:100D1800416391EF06F093EF06F0D8EF08F0000E6C
:100D280002010201361502010201466F000E02019E
:100D3800020137150201476F000E02010201381542
:100D48000201486FF00E0201020139150201496FD4
:100D5800020146C24BF2020147C24CF2020148C2EC
:100D68004DF2020149C24EF21D0EC1EF06F0D890B5
:100D780002014E334D334C334B33E82EBBEF06F0B4
:100D880002014B51020102013D6F000E02010201F6
:100D9800361502010201466F000E020102013715E5
:100DA8000201476F000E0201020138150201486F67
:100DB8000C0E0201020139150201496F1A0E0201D7
:100DC8004B6FD890020102014933020148330201F6
:100DD80047330201463302014B2FE5EF06F00201CB
:100DE80002014629020102013C6F000E02010201C4
:100DF800361502010201466F000E02010201371585
:100E08000201476F800E0201020138150201486F86
:100E1800000E0201020139150201496F020148352D
:100E280002014935020102013F6F000E0201020171
:100E3800361502010201466F800E020102013715C4
:100E48000201476F7F0E0201020138150201486F47
:100E5800000E0201020139150201496F020146C262
:100E68004BF2020147C24CF2020148C24DF20201A4
:100E780049C24EF2100E47EF07F0D89002014E33E8
:100E88004D334C334B33E82E41EF07F002014B5101
:100E9800020102013E6FF00E020102013615020145
:100EA8000201466F7F0E0201020137150201476FEA
:100EB800000E0201020138150201486F000E0201FE
:100EC800020139150201496F020146C24BF20201C3
:100ED80047C24CF2020148C24DF2020149C24EF229
:100EE800050E7DEF07F0D89002014E334D334C3399
:100EF8004B33E82E77EF07F04BC242F24CC243F275
:100F08004DC244F24EC245F20A0E02010201596F67
:100F1800000E02015A6F000E02015B6F000E020103
:100F28005C6FE00E02010201422502010201556FC9
:100F3800FC0E0201020143210201566FFF0E02015D
:100F4800020144210201576FFF0E020102014521EF
:100F58000201586F32EC24F055C24FF256C250F2DB
:100F680057C251F258C252F2100E02010201536FD9
:100F7800000E0201546F000E0201556F000E0201AF
:100F8800566F19EC1BF04FC242F250C243F251C2E5
:100F980044F252C245F20C0E02010201361502015A
:100FA8000201466F000E0201020137150201476F68
:100FB800000E0201020138150201486F000E0201FD
:100FC800020139150201496F020E02014B6FD890D8
:100FD8000201020149330201483302014733020189
:100FE800463302014B2FEBEF07F046C23BF2F30EFC
:100FF800020102015E6F7F0E02015F6F9EEC26F018
:10100800020102013DC24FF202010201506BB8EC2D
:101018001EF002014B6F2C0E02010201606F0201EB
:101028004B51DFEC25F0020102013CC24FF20201F4
:101038000201506BB8EC1EF002014B6F2C0E02013E
:101048000201606F02014B51DFEC25F00201020141
:1010580045AF31EF08F033EF08F055EF08F0020123
:101068004B6F2D0E02010201606F02014B51DFEC44
:1010780025F0FF0E02010201516FFF0E0201526FAF
:10108800FF0E0201536FFF0E0201546F0201420E60
:10109800020102014F6F0201020E0201506FABEC18
:1010A80027F00A0E02010201536F000E0201546F6D
:1010B800000E0201556F000E0201566F42C24FF238
:1010C80043C250F244C251F245C252F219EC1BF02D
:1010D8004FC24FF250C250F2B8EC1EF002014B6FF3
:1010E8002E0E02010201606F02014B51DFEC25F068
:1010F8000A0E02010201536F000E0201546F000E26
:101108000201556F000E0201566F42C24FF243C2F0
:1011180050F244C251F245C252F2DFEC1DF04FC208
:101128004FF250C250F2B8EC1EF002014B6F2C0E79
:1011380002010201606F02014B51DFEC25F0020E43
:1011480002010201516F000E0201526F02010201F9
:101158003EC24FF202010201506B7EEC1FF04FC2FB
:101168004FF250C250F2B8EC1EF002014B6F2C0E39
:1011780002010201606F02014B51DFEC25F0020110
:1011880002013F51300F02010201606FDFEC25F0D0
:1011980002014B6F0A0E02010201606F02014B51FE
:1011A800DFEC25F00DEC29F01200000E020102011F
:1011B800436F000E0201446F000E0201456F000EDE
:1011C8000201466F0201496F000E02010201476FDA
:1011D80002014951050E020102014765F6EF08F0C8
:1011E800F8EF08F0FAEF08F02FEF09F0020102011A
:1011F8004751020102013A25E96E0201000E02017F
:1012080002013B21EA6EEF5002010201506FA5EC8A
:1012180028F00201496F02014951020102014313FA
:101228000201040ED890020143370201443702013B
:10123800453702014637E82E16EF09F00201020190
:10124800472B050E0201020147652DEF09F02FEF2C
:1012580009F0FAEF08F00201040ED89002014337B2
:10126800020144370201453702014637E82E31EFC3
:1012780009F0060E020102013A25E96E000E02018C
:1012880002013B21EA6EEF500201496F49C24AF25E
:1012980002014B6B060ED89002014A374B37E82EF5
:1012A8004FEF09F0000E02014A2502014C6FF40EBF
:1012B80002014B2102014D6F02014E6B02014F6B7F
:1012C80002014C5102010201431302014D51020176
:1012D8000201441302014E510201020145130201A9
:1012E8004F51020102014613070E020102013A257D
:1012F800E96E000E020102013B21EA6EEF50020185
:10130800496FD00E0201492502014A6F02014B6B59
:10131800FF0E02014B2302014B514A11D8B497EF3B
:1013280009F099EF09F09CEF09F002010201438BE3
:10133800080E020102013A25E96E000E02010201BF
:101348003B21EA6EEF5002010201506FA5EC28F034
:101358000201496F02014951020102014313090EBA
:10136800020102013A25E96E000E020102013B2149
:10137800EA6E310EEF62C3EF09F0C5EF09F0C8EF6E
:1013880009F0020102014389090E020102013A250E
:10139800E96E000E020102013B21EA6E320EEF6295
:1013A800D8EF09F0DAEF09F0EFEF09F00A0E0201C1
:1013B80002013A25E96E000E020102013B21EA6EA4
:1013C800EF5002010201506FA5EC28F00201020162
:1013D8003D6FF7EF09F00201496F000E02010201AB
:1013E8003D6F02014951FFEC28F00201496F000EE0
:1013F80002010201486F0201495182EF0BF08A8411
:10140800CC0E02010201566F000E0201576F04EC68
:1014180028F08A94A00E02010201566F0A0E0201FA
:10142800576F04EC28F043C23FF244C240F245C271
:1014380041F246C242F20201496F000E0201020166
:101448003E6F020149511F0E020102013E652FEF56
:101458000AF031EF0AF033EF0AF0DAEF0AF08A8483
:10146800CC0E02010201566F000E0201576F04EC08
:1014780028F08A94020102013D51D8B446EF0AF0DF
:1014880048EF0AF05EEF0AF0020102013E511B0A22
:10149800D8A451EF0AF053EF0AF05EEF0AF0100EED
:1014A80002010201566F010E0201576F04EC28F089
:1014B8007BEF0AF00201020142AF65EF0AF067EF25
:1014C8000AF072EF0AF02E0E02010201566F050EA5
:1014D8000201576F04EC28F07BEF0AF0100E0201AE
:1014E8000201566F010E0201576F04EC28F08A843E
:1014F800CC0E02010201566F000E0201576F04EC78
:1015080028F08A94020102013D51D8B48EEF0AF006
:1015180090EF0AF0A6EF0AF0020102013E511B0A01
:10152800D8A499EF0AF09BEF0AF0A6EF0AF0100E84
:1015380002010201566F010E0201576F04EC28F0F8
:10154800C3EF0AF00201020142BFADEF0AF0AFEFAC
:101558000AF0BAEF0AF02E0E02010201566F050ECC
:101568000201576F04EC28F0C3EF0AF0100E0201D5
:101578000201566F010E0201576F04EC28F00201B8
:10158800D89002013F37020140370201413702017A
:101598004237020102013E2B1F0E020102013E6585
:1015A800D8EF0AF0DAEF0AF033EF0AF0020102018D
:1015B8003D51D8B4E2EF0AF0E4EF0AF06BEF0BF01C
:1015C800020102013D51020102013F6F0201406B1D
:1015D8000201416B0201426B0201496F000E0201D8
:1015E80002013E6F02014951030E020102013E65EC
:1015F80000EF0BF002EF0BF004EF0BF06BEF0BF0CA
:101608008A84CC0E02010201566F000E0201576F48
:1016180004EC28F08A94020102013FA716EF0BF0B0
:1016280018EF0BF023EF0BF02E0E02010201566F9C
:10163800050E0201576F04EC28F02CEF0BF0100E8A
:1016480002010201566F010E0201576F04EC28F0E7
:101658008A84CC0E02010201566F000E0201576FF8
:1016680004EC28F08A94020102013FA73EEF0BF038
:1016780040EF0BF04BEF0BF0100E02010201566F1A
:10168800010E0201576F04EC28F054EF0BF02E0EF8
:1016980002010201566F050E0201576F04EC28F093
:1016A8000201D89002013F37020140370201413759
:1016B80002014237020102013E2B030E0201020120
:1016C8003E6569EF0BF06BEF0BF004EF0BF08A84CB
:1016D800CC0E02010201566F000E0201576F04EC96
:1016E80028F08A94100E02010201566F270E02019B
:1016F800576F04EC28F002010201482B0201020195
:101708003C5102010201485DD8A08DEF0BF08FEF2C
:101718000BF003EF0AF02BEC28F012000201366FF1
:10172800040E01010101216F02013651020102017B
:101738003451D8B4A2EF0BF0A4EF0BF0E5EF0BF0A7
:10174800140E020102013565ACEF0BF0AEEF0BF0A1
:10175800D3EF0BF0370E020102013561B6EF0BF043
:10176800B8EF0BF0D3EF0BF025C136F2010E0201F2
:10177800376F0201362BC4EF0BF0D89002013737D0
:101788000201362FC1EF0BF002013751FF0A0101A8
:101798000101391701010101252BE3EF0BF00201CB
:1017A800366F000E01010101256F02013651020159
:1017B800366F020E01010101216F0201365152EF0D
:1017C8000CF0140E020102013565EDEF0BF0EFEF9E
:1017D8000BF014EF0CF0370E020102013561F7EF40
:1017E8000BF0F9EF0BF014EF0CF025C136F2010EF7
:1017F8000201376F0201362B05EF0CF0D890020179
:1018080037370201362F02EF0CF002013751FF0A79
:1018180001010101391701010101252B52EF0CF0DB
:10182800370E0201020135651CEF0CF01EEF0CF0BB
:1018380042EF0CF05A0E02010201356126EF0CF05E
:1018480028EF0CF042EF0CF025C136F2010E020130
:10185800376F0201362B34EF0CF0D890020137377E
:101868000201362F31EF0CF002013751010101015D
:10187800391301010101252B52EF0CF00201366FDB
:10188800000E01010101256F020136510201366F78
:10189800020E01010101216F02013651030E0101FF
:1018A800010125655AEF0CF05CEF0CF0A9EF0CF084
:1018B80001010101396763EF0CF065EF0CF06FEF80
:1018C8000CF00201366F050E01010101216F0201C2
:1018D8003651A1EF0CF0010101013951080AD8A4D1
:1018E80078EF0CF07AEF0CF084EF0CF00201366F11
:1018F800000E01010101216F02013651A1EF0CF028
:10190800010101013951020AD8A48DEF0CF08FEFC3
:101918000CF099EF0CF00201366F010E0101010184
:10192800216F02013651A1EF0CF00201366F020E51
:1019380001010101216F020136510201366F000ECB
:1019480001010101256F02013651010101012151F7
:10195800040AD8A4B2EF0CF0B4EF0CF0B6EF0CF018
:101968005AEF0DF0010101012151020AD8B4BFEF6D
:101978000CF0C1EF0CF0CAEF0CF00101020121C11B
:101988004FF202010201506BB8EC1EF050EF0DF05F
:10199800010101012151050AD8A4D5EF0CF0D7EFB8
:1019A8000CF0EAEF0CF0010101014251050AD8A43C
:1019B800E0EF0CF0E2EF0CF0EAEF0CF00201366F0A
:1019C800010E01010101456F0201365121C142F1A9
:1019D8005AEF0DF0010101012151020AD8B4F7EFC5
:1019E8000CF0F9EF0CF004EF0DF0010101012151A9
:1019F800050AD8A402EF0DF004EF0DF03BEF0DF04F
:101A0800170E0101010143650CEF0DF00EEF0DF00B
:101A180027EF0DF00101010128C129F101010101A0
:101A280027C128F10101010126C127F101010101A6
:101A3800266B26C138F227C139F228C13AF229C1EA
:101A48003BF200EC1DF021C142F10201366F000E9D
:101A580001010101436F020136510201366F000E88
:101A680001010101456F020136514EEF0DF00101F0
:101A7800D8900101263701012737010128370101D4
:101A88002937010101012151010101012613010139
:101A98000101432B5AEF0DF0010101014551000AE4
:101AA80001E176D7010A96E05AEF0DF01200140E04
:101AB80002010201346563EF0DF065EF0DF08EEF62
:101AC8000DF0280E0201020134616DEF0DF06FEF89
:101AD8000DF08EEF0DF0010101012D51040AD8A47B
:101AE80078EF0DF07AEF0DF084EF0DF00201396F09
:101AF800010E010101012D6F020139518CEF0DF02A
:101B08000201396F040E010101012D6F02013951E3
:101B1800B4EF0DF0320E02010201346596EF0DF0BC
:101B280098EF0DF0ACEF0DF0460E020102013461A2
:101B3800A0EF0DF0A2EF0DF0ACEF0DF00201396F40
:101B4800000E010101012D6F02013951B4EF0DF0B2
:101B58000201396F020E010101012D6F0201395195
:101B6800010101012D51040AD8A4BDEF0DF0BFEF0A
:101B78000DF0C1EF0DF020EF0FF0010101012D5123
:101B8800020AD8A4CAEF0DF0CCEF0DF0DEEF0DF08D
:101B98000201396F000E01010101406F0201395144
:101BA8000201396F000E01010101446F0201395130
:101BB80020EF0FF00101D8903A37010101012D51B2
:101BC800010101013A1301010101402B15EF0FF04A
:101BD800010101013A51530AD8A4F5EF0DF0F7EFCE
:101BE8000DF013EF0EF0070E010101014065FFEF44
:101BF8000DF001EF0EF013EF0EF00201396F000E39
:101C080001010101406F0201395140C124F1020173
:101C1800396F010E01010101446F0201395120EFB2
:101C28000FF0010101014051080AD8A41EEF0EF07F
:101C380020EF0EF013EF0EF001010101246727EFEA
:101C48000EF029EF0EF034EF0EF0010101013A51C8
:101C5800530AD8B432EF0EF034EF0EF00BEF0FF05A
:101C68000101000E010101012425E96EEA6A010162
:101C7800010EEA2201013AC1EFFF01010101242B03
:101C8800020E0101010124654CEF0EF04EEF0EF03B
:101C98000BEF0FF0FE0E0101010124250201396F3F
:101CA80002013A6BFF0E02013A2300C13BF21F0EFC
:101CB80002013B1702013B51020139193A11D8A41C
:101CC80068EF0EF06AEF0EF00BEF0FF00201396FBC
:101CD800000E02010201376F020139510201396F0A
:101CE800000E02010201386F020139518DEF0EF02A
:101CF8000101000E020102013825E96EEA6A0101BC
:101D0800010EEA22EF500201020137270201020107
:101D1800382BFF0E0101010124250201396F020150
:101D28003A6BFF0E02013A23020138C23BF202016C
:101D38003C6B02013C51800A02013D6F395102019E
:101D48003B5D02013A51800A02013D59D8A0AFEF2C
:101D58000EF0B1EF0EF07CEF0EF024C139F2FF0E59
:101D6800020139270101000E02013925E96EEA6AEC
:101D78000101010EEA22020102013751EF62C7EFA9
:101D88000EF0C9EF0EF003EF0FF0030E020102018F
:101D98003525E96E000E020102013621EA6EEF5088
:101DA80002010201406F0101000E020102013E6FB3
:101DB8000101010E02013F6FF2EC21F0040E020155
:101DC80002013525E96E000E020102013621EA6E94
:101DD800EF50D8B4F2EF0EF0F4EF0EF003EF0FF07F
:101DE80035C240F236C241F20101000E0201020181
:101DF8003E6F0101010E02013F6F8BEC24F00201DE
:101E0800396F000E01010101446F020139510201CD
:101E1800396F000E01010101406F0201395120EFB5
:101E28000FF0010101014451000A01E1D1D6010A74
:101E380001E1F7D620EF0FF01200000E02010201B7
:101E4800416F000E0201426F000E0201436F000E47
:101E58000201446F0201496F000E02010201456F41
:101E680002014951040E0201020145653EEF0FF0DF
:101E780040EF0FF042EF0FF08BEF0FF0020102017D
:101E88004551020102013A25E96E0201000E0201E4
:101E980002013B21EA6EEF500201496FD00E0201A8
:101EA800492502014A6F02014B6BFF0E02014B23C9
:101EB80002014C6B02014D6B02014A510201020101
:101EC800411302014B5102010201421302014C511C
:101ED80002010201431302014D51020102014413A0
:101EE8000201D8900201413702014237020143370B
:101EF8000201443702010201452B040E02010201CE
:101F0800456589EF0FF08BEF0FF042EF0FF00201FC
:101F1800496F000E02010201466F02014951040E89
:101F28000201020146659BEF0FF09DEF0FF09FEF56
:101F38000FF0DDEF0FF0050E020102013A25E96E00
:101F4800000E020102013B21EA6EEF500201496FC7
:101F5800BF0E0201492502014A6F02014B6BFF0EB9
:101F680002014B2302010201465102014A194B1199
:101F7800D8A4C1EF0FF0C3EF0FF0C6EF0FF00201C6
:101F8800020141810201D890020141370201423722
:101F9800020143370201443702010201462B040EB5
:101FA800020102014665DBEF0FF0DDEF0FF09FEF56
:101FB8000FF00201D89002014137020142370201B5
:101FC800433702014437060E020102013A25E96E41
:101FD800000E020102013B21EA6E310EEF62F7EFBB
:101FE8000FF0F9EF0FF0FEEF0FF00201020141834D
:101FF80001EF10F0020102014181FFEC28F002011B
:10200800496F000E02010201476F02014951B0EF0A
:1020180010F041C23DF242C23EF243C23FF244C216
:1020280040F28A84650E02010201566F010E020118
:10203800576F04EC28F08A942F0E02010201566FA4
:10204800040E0201576F04EC28F00201496F000EDC
:1020580002010201486F020149510B0E02010201FF
:10206800486539EF10F03BEF10F03DEF10F0A4EFAA
:1020780010F08A84020102013EA745EF10F047EFF5
:1020880010F052EF10F0650E02010201566F010EBA
:102098000201576F04EC28F05BEF10F02F0E0201DD
:1020A8000201566F040E0201576F04EC28F08A945F
:1020B800020102013EA763EF10F065EF10F070EF28
:1020C80010F02F0E02010201566F040E0201576F25
:1020D80004EC28F079EF10F0650E02010201566F4A
:1020E800010E0201576F04EC28F08A84650E020184
:1020F8000201566F010E0201576F04EC28F08A9412
:102108002F0E02010201566F040E0201576F04ECF4
:1021180028F00201D89002013D3702013E37020142
:102128003F370201403702010201482B0B0E020122
:1021380002014865A2EF10F0A4EF10F03DEF10F097
:10214800100E02010201566F270E0201576F04ECB0
:1021580028F002010201472B020102013C51020151
:102168000201475DD8A0BBEF10F0BDEF10F00DEFF6
:1021780010F02BEC28F01200000E02010201416F52
:10218800000E0201426F000E0201436F000E0201B1
:10219800446F0201496F000E02010201456F0201FE
:1021A8004951040E020102014565DDEF10F0DFEF31
:1021B80010F0E1EF10F016EF11F0020102014551A5
:1021C800020102013A25E96E0201000E0201020134
:1021D8003B21EA6EEF5002010201506FA5EC28F096
:1021E8000201496F02014951020102014113020132
:1021F800040ED890020141370201423702014337E9
:1022080002014437E82EFDEF10F002010201452BD0
:10221800040E02010201456514EF11F016EF11F0EA
:10222800E1EF10F0050E020102013A25E96E000EF9
:10223800020102013B21EA6EEF500201496FD00E04
:102248000201492502014A6F02014B6BFF0E020190
:102258004B2302014A054B11D8A435EF11F037EF93
:1022680011F044EF11F00F0E020102014113000EAC
:1022780002014213000E02014313000E020144132F
:10228800050E020102013A25E96E000E0201020163
:102298003B21EA6EEF500201496FD00E0201492539
:1022A80002014A6F02014B6BFF0E02014B23020130
:1022B8004A51020A4B11D8A464EF11F066EF11F0ED
:1022C80073EF11F00A0E020102014113000E020120
:1022D8004213000E02014313000E02014413FFECE7
:1022E80028F00201496F000E02010201466F020147
:1022F80049514EEF12F041C23DF242C23EF243C292
:102308003FF244C240F20201496F000E020102018D
:10231800476F02014951030E02010201476597EF19
:1023280011F099EF11F09BEF11F0BCEF11F08A84D6
:102338004E0E02010201566F020E0201576F04ECA5
:1023480028F08A944E0E02010201566F020E020115
:10235800576F04EC28F002010201472B030E02011B
:1023680002014765BAEF11F0BCEF11F09BEF11F0D5
:102378000201496F000E02010201486F0201495132
:10238800170E020102014865CCEF11F0CEEF11F0F3
:10239800D0EF11F037EF12F08A844E0E02010201DD
:1023A800566F020E0201576F04EC28F08A9402015E
:1023B80002013FAFE2EF11F0E4EF11F0EFEF11F09F
:1023C8009C0E02010201566F040E0201576F04ECC5
:1023D80028F0F8EF11F04E0E02010201566F020EBE
:1023E8000201576F04EC28F08A844E0E02010201A4
:1023F800566F020E0201576F04EC28F08A9402010E
:1024080002013FAF0AEF12F00CEF12F017EF12F0D3
:102418004E0E02010201566F020E0201576F04ECC4
:1024280028F020EF12F09C0E02010201566F040EF4
:102438000201576F04EC28F00201D89002013D37E1
:1024480002013E3702013F37020140370201020113
:10245800482B170E02010201486535EF12F037EFDD
:1024680012F0D0EF11F08A84270E02010201566F94
:10247800010E0201576F04EC28F08A94580E0201ED
:102488000201566F1B0E0201576F04EC28F002017F
:102498000201462B020102013C5102010201465D84
:1024A800D8A059EF12F05BEF12F07FEF11F02BEC90
:1024B80028F01200BCEF13F0020102013651090A9C
:1024C800D8A469EF12F06BEF12F088EF12F0080E43
:1024D800020102013725E96E000E020102013821CE
:1024E800EA6EEF50020102013C6F020E0201020186
:1024F8003425020102013A6F000E02010201352162
:1025080002013B6FC0EC10F0E0EF13F00201020192
:102518003651070AD8A493EF12F095EF12F088EF1E
:1025280012F00C0E020102013725E96E000E0201BD
:1025380002013821EA6EEF50020102013C6F020EDF
:10254800020102013425020102013A6F000E020164
:102558000201352102013B6FE1EC13F0E0EF13F0CB
:102568000C0E020102013665BCEF12F0BEEF12F04C
:1025780088EF12F00F0E020102013661C6EF12F069
:10258800C8EF12F088EF12F00B0E02010201372596
:10259800E96E000E020102013821EA6EEF500201D5
:1025A80002013C6F020E0201020134250201020100
:1025B8003A6F000E02010201352102013B6FD9EC8E
:1025C80008F0E0EF13F00201020136510A0AD8A41C
:1025D800F0EF12F0F2EF12F088EF12F00D0E020198
:1025E80002013725E96E000E020102013821EA6E68
:1025F800EF50020102013C6F020E02010201342574
:10260800020102013A6F000E0201020135210201A6
:102618003B6F21EC0FF0E0EF13F0030E0201020113
:10262800366519EF13F01BEF13F088EF12F0030E65
:1026380002010201365F030E020102013725E96E2D
:10264800000E020102013821EA6EEF50D8B42FEFD4
:1026580013F031EF13F049EF13F00201360E0201C7
:1026680002013C6F0201020E02013D6F020E0201DF
:1026780002013425020102013A6F000E0201020133
:10268800352102013B6F73EC22F0020E02010201B8
:102698003725E96E000E020102013821EA6EEF507B
:1026A800020102014A6F050E020102013725E96E97
:1026B800000E020102013821EA6EEF500201020108
:1026C800496F36C248F2020E0201020134250201A6
:1026D8000201466F000E0201020135210201476F17
:1026E80010EC1CF0E0EF13F05E0E020102015E6FC9
:1026F8007E0E02015F6F9EEC26F00201396F0A0E12
:1027080002010201606F02013951DFEC25F0E0EFB0
:1027180013F037C23DF238C23EF2020102013651CF
:10272800FE0F020102013C6F020E02010201342574
:10273800020102013A6F000E020102013521020175
:102748003B6F1DEC00F0E0EF13F0FF00E0EF13F03B
:10275800FFEC28F08A84880E02010201546F130EE0
:102768000201556F7AEC27F02BEC28F0E0EF13F01C
:10277800010E020102013425E96E000E0201020178
:102788003521EA6EEF50210AE3E0630A01E145D7FB
:10279800050A01E191D60C0A01E115D7050A01E104
:1027A800DFD61E0AA1E0030AB4E0040A01E1AED6AE
:1027B8000F0ACBE0E0EF13F012003AC2E9FF3BC288
:1027C800EAFFEF50BF0F02010201466F26EC26F028
:1027D8000201436F02014351020102013E6F0201EF
:1027E8003F6B020102013E5102013F6F02013E6B45
:1027F8000A0E02010201486F000E0201496F010E24
:10280800020102013A25E96E000E020102013B2194
:10281800EA6EEF500201436FD00E02014325020118
:102828000201466F0201476BFF0E0201472364EC69
:1028380026F046C240F247C241F2020E02010201EE
:102848003A25E96E000E020102013B21EA6EEF50C3
:102858000201436FD00E020143250201446F0201B9
:10286800456BFF0E0201452302014451020102019A
:1028780040270201455102010201412302010201E0
:102888004007D8A0410740C246F226EC26F00201D4
:10289800436F0201435102010201406F0201416B83
:1028A80002010201403B0201413BF00E02014117C7
:1028B800020140510F0B02014113F00E02014017B3
:1028C800020102014051020102013E2702010201F8
:1028D8004151020102013F23030E020102013A2580
:1028E800E96E000E020102013B21EA6EEF5002017F
:1028F800436FD00E020143250201446F0201456B6C
:10290800FF0E02014523020145514411D8B48FEF4F
:1029180014F091EF14F095EF14F0070E0201020184
:102928003E13FFEC28F00201436F000E0201020182
:10293800426F0201435133EF15F03EC240F23FC2ED
:1029480041F28A84100E02010201566F010E020143
:10295800576F04EC28F08A94A20E02010201566F08
:10296800050E0201576F04EC28F00201436F000EB8
:10297800020102013D6F020143510B0E02010201E7
:102988003D65C9EF14F0CBEF14F0CDEF14F027EF4D
:1029980015F00201020141A7D4EF14F0D6EF14F0AC
:1029A800ECEF14F08A84840E02010201566F040EC3
:1029B8000201576F04EC28F08A942E0E02010201DE
:1029C800566F020E0201576F04EC28F000EF15F065
:1029D8008A84100E02010201566F010E0201576F20
:1029E80004EC28F08A94A20E02010201566F050E2B
:1029F8000201576F04EC28F08A84100E02010201CC
:102A0800566F010E0201576F04EC28F08A94A20E4B
:102A180002010201566F050E0201576F04EC28F0FF
:102A28000201D89002014037020141370201020138
:102A38003D2B0B0E020102013D6525EF15F027EF36
:102A480015F0CDEF14F0EC0E02010201566F2C0EBA
:102A58000201576F04EC28F002010201422B020127
:102A680002013C5102010201425DD8A03EEF15F07F
:102A780040EF15F0A1EF14F02BEC28F01200020142
:102A8800366F040E01010101376F02013651020150
:102A980002013451D8B453EF15F055EF15F096EF05
:102AA80015F0050E0201020135655DEF15F05FEFC7
:102AB80015F084EF15F0140E02010201356167EF7D
:102AC80015F069EF15F084EF15F02AC136F2010E02
:102AD8000201376F0201362B75EF15F0D89002010D
:102AE80037370201362F72EF15F002013751FF0A0E
:102AF800010101013617010101012A2B94EF15F09C
:102B08000201366F000E010101012A6F02013651E0
:102B18000201366F020E01010101376F02013651C1
:102B280003EF16F00C0E0201020135659EEF15F059
:102B3800A0EF15F0C5EF15F0170E0201020135617F
:102B4800A8EF15F0AAEF15F0C5EF15F02AC136F277
:102B5800010E0201376F0201362BB6EF15F0D8903F
:102B6800020137370201362FB3EF15F00201375152
:102B7800FF0A010101013617010101012A2B03EFA8
:102B880016F03C0E020102013565CDEF15F0CFEFCE
:102B980015F0F3EF15F0640E020102013561D7EF6D
:102BA80015F0D9EF15F0F3EF15F02AC136F2010E42
:102BB8000201376F0201362BE5EF15F0D8900201BC
:102BC80037370201362FE2EF15F0020137510101C4
:102BD80001013613010101012A2B03EF16F002014E
:102BE800366F000E010101012A6F02013651020100
:102BF800366F020E01010101376F02013651030ED3
:102C0800010101012A650BEF16F00DEF16F05AEFDE
:102C180016F001010101366714EF16F016EF16F0F1
:102C280020EF16F00201366F060E01010101376F21
:102C38000201365152EF16F0010101013651080A1E
:102C4800D8A429EF16F02BEF16F035EF16F0020195
:102C5800366F000E01010101376F0201365152EF44
:102C680016F0010101013651020AD8A43EEF16F010
:102C780040EF16F04AEF16F00201366F010E01011F
:102C88000101376F0201365152EF16F00201366F1B
:102C9800020E01010101376F020136510201366F40
:102CA800000E010101012A6F0201365101010101E3
:102CB8003751040AD8A463EF16F065EF16F067EFF2
:102CC80016F0A3EF16F0010101013751020AD8A44A
:102CD80070EF16F072EF16F090EF16F01F0E01016C
:102CE800010147657AEF16F07CEF16F086EF16F0D3
:102CF80032C138F233C139F234C13AF235C13BF24C
:102D080003EC18F00201366F000E01010101476F54
:102D180002013651A3EF16F00101D89001013237B4
:102D28000101333701013437010135370101010150
:102D3800375101010101321301010101472B120032
:102D4800D6EC28F0800E02010201346F250E020134
:102D5800356F000E0201366F000E0201376F3BEC33
:102D680025F045EC27F05E0E020102015E6F7E0E33
:102D780002015F6F9EEC26F00201336F0A0E02011A
:102D88000201606F02013351DFEC25F08A86050EDF
:102D980002010201546F000E0201556F7AEC27F010
:102DA8008A960201336F000E02010201006F0201D0
:102DB80033510201336F000E02010201026F02015A
:102DC80033510201336F000E02010201046F020148
:102DD80033510201336F000E02010201036F020139
:102DE80033510201050E02010201406F0201020E79
:102DF8000201416FD6EC26F08150040B020102015A
:102E0800006F020102010251020102010019D8B447
:102E180010EF17F012EF17F076EF17F0D6CF04F295
:102E2800F2A419EF17F01BEF17F01FEF17F00201CC
:102E380002010469F294000ED66E020102010B51E0
:102E4800D8B429EF17F02BEF17F031EF17F004C2C1
:102E580035F202C234F213EC19F0020102010E51EC
:102E6800D8B439EF17F03BEF17F03FEF17F004C273
:102E780034F21AEC1AF0020102010C51D8B447EFEF
:102E880017F049EF17F04FEF17F004C235F202C2FE
:102E980034F292EC0BF0020102010F51D8B457EF53
:102EA80017F059EF17F05FEF17F004C235F202C2BE
:102EB80034F243EC15F0020102010651D8B467EF71
:102EC80017F069EF17F076EF17F00201050E02010F
:102ED8000201356F0201020E0201366F04C234F29C
:102EE8005BEC0DF000C202F2A1A27DEF17F07FEFBC
:102EF80017F082EF17F08B9AB190A192F5EF17F0C7
:102F08006BEC28F002010201016F0201020101517C
:102F1800240AD8A492EF17F094EF17F09CEF17F05B
:102F28000201336F000E02010201036F02013351E7
:102F38000201130E020102010325E96EEA6A020189
:102F4800020EEA22020101C2EFFF02010201032B75
:102F58000201020101510A0AD8B4B5EF17F0B7EF20
:102F680017F0C2EF17F00201020101510D0AD8A4AF
:102F7800C0EF17F0C2EF17F0F5EF17F0020E0201DD
:102F880002010365CAEF17F0CCEF17F0EDEF17F069
:102F9800020102011351240AD8A4D5EF17F0D7EF84
:102FA80017F0EDEF17F00201050E02010201376F6D
:102FB8000201020E0201386F03C236F20201130E3B
:102FC80002010201346F0201020E0201356F5EEC4C
:102FD80012F00201336F000E02010201036F0201B9
:102FE800335188EC28F00009D8A4FDEF17F0FFEF63
:102FF80017F084EF17F000EF17F00CEF00F0FC0E5D
:10300800020102015E6F7F0E02015F6F9EEC26F0E7
:103018000201416F000E02010201406F020141519D
:10302800050E0201020140651CEF18F01EEF18F0B2
:1030380020EF18F069EF18F0000E020102013815B0
:10304800020102013C6F000E020102013915020162
:103058003D6F000E020102013A1502013E6FF00EAB
:10306800020102013B1502013F6F0201040ED890D4
:10307800020138370201393702013A3702013B377A
:10308800E82E3BEF18F01C0E0201416FD8900201A8
:1030980002013F3302013E3302013D3302013C335A
:1030A8000201412F4AEF18F03CC24AF24CEC28F0DA
:1030B80002010201402B050E02010201406567EF83
:1030C80018F069EF18F020EF18F0000E0201020165
:1030D8003815020102013C6F000E02010201391588
:1030E80002013D6F000E020102013A1502013E6F16
:1030F800FF0E020102013B1502013F6F180E02018B
:10310800416FD890020102013F3302013E330201B0
:103118003D3302013C330201412F85EF18F0C00E08
:10312800020102013C150201416F000E0201020179
:103138003D150201426F000E020102013E15020117
:10314800436F000E020102013F150201446F070E92
:10315800B4EF18F0D890020144334333423341337B
:10316800E82EAEEF18F002014151300F02010201C2
:10317800606FDFEC25F0020102013CABC6EF18F0EE
:10318800C8EF18F0D4EF18F00201416F310E0201B8
:103198000201606F02014151DFEC25F0DEEF18F00B
:1031A8000201416F300E02010201606F02014151BC
:1031B800DFEC25F0020102013C510F0B0201020174
:1031C8004A6F4CEC28F0020102013CA9EEEF18F01E
:1031D800F0EF18F0FCEF18F00201416F310E020118
:1031E8000201606F02014151DFEC25F006EF19F092
:1031F8000201416F300E02010201606F020141516C
:10320800DFEC25F00201416F0A0E02010201606F36
:1032180002014151DFEC25F00DEC29F0120002010A
:1032280002013451D8B41BEF19F01DEF19F08DEFDE
:1032380019F01F0E02010201356525EF19F027EF7D
:1032480019F050EF19F0290E0201020135612FEF34
:1032580019F031EF19F050EF19F00101010138515F
:10326800D8B439EF19F03BEF19F046EF19F0010126
:1032780001012351070AD8A444EF19F046EF19F0C9
:1032880050EF19F00201366F010E01010101236FA1
:10329800020136518BEF19F00E0E0201020135655D
:1032A80058EF19F05AEF19F083EF19F0160E0201D2
:1032B8000201356162EF19F064EF19F083EF19F03C
:1032C800010101013851D8B46CEF19F06EEF19F013
:1032D80079EF19F0010101012351080AD8A477EF09
:1032E80019F079EF19F083EF19F00201366F000E2B
:1032F80001010101236F020136518BEF19F0020120
:10330800366F020E01010101236F02013651D1EF20
:1033180019F01F0E02010201356595EF19F097EFBC
:1033280019F0ABEF19F0290E0201020135619FEF88
:1033380019F0A1EF19F0ABEF19F00201366F080E82
:1033480001010101236F02013651D1EF19F00E0E70
:10335800020102013565B3EF19F0B5EF19F0C9EFB5
:1033680019F0160E020102013561BDEF19F0BFEF29
:1033780019F0C9EF19F00201366F070E01010101BA
:10338800236F02013651D1EF19F00201366F020E98
:1033980001010101236F02013651010101012305D9
:1033A800D8B4D9EF19F0DBEF19F0E4EF19F0010107
:1033B80001012367E2EF19F0E4EF19F0F5EF19F0D6
:1033C8000101D89001013D3701013E37010101019A
:1033D8002351010101013D1301010101382B19EFAE
:1033E8001AF0010101012351020AD8A4FEEF19F0D5
:1033F80000EF1AF019EF1AF00101010138510D0A16
:10340800D8A409EF1AF00BEF1AF011EF1AF03DC12A
:1034180037F23EC138F2D3EC23F00201366F000ECA
:1034280001010101386F020136511200280E020114
:103438000201346522EF1AF024EF1AF04DEF1AF06A
:10344800500E0201020134612CEF1AF02EEF1AF02F
:103458004DEF1AF0010101012251040AD8A437EFF7
:103468001AF039EF1AF043EF1AF00201356F010E26
:1034780001010101226F020135514BEF1AF00201DF
:10348800356F040E01010101226F0201355187EFEA
:103498001AF0640E02010201346555EF1AF057EF75
:1034A8001AF07FEF1AF08C0E0201020134615FEF0F
:1034B8001AF061EF1AF07FEF1AF0010101012251B1
:1034C800040AD8A46AEF1AF06CEF1AF075EF1AF034
:1034D800010101013F6773EF1AF075EF1AF07FEFF2
:1034E8001AF00201356F000E01010101226F02017D
:1034F800355187EF1AF00201356F020E0101010103
:10350800226F02013551010101012251040AD8B488
:1035180090EF1AF092EF1AF018EF1BF00FEF1BF074
:10352800010101012251020AD8B49DEF1AF09FEF60
:103538001AF0BEEF1AF00101D890463701010101D7
:1035480022510101010146130101010146510F0BEE
:103558000C0AD8A4B2EF1AF0B4EF1AF0BCEF1AF0C4
:103568000201356F010E01010101416F0201355160
:10357800C6EF1AF00201356F000E01010101466F16
:103588000201355118EF1BF0010101012251020A15
:10359800D8A4D1EF1AF0D3EF1AF0FAEF1AF001011C
:1035A80001013F51200AD8A4DCEF1AF0DEEF1AF02F
:1035B800E8EF1AF02EC136F22FC137F230C138F2D7
:1035C80031C139F2DDEC05F00201356F000E010161
:1035D80001013F6F020135510201356F000E0101F3
:1035E8000101416F02013551C6EF1AF00101D8906F
:1035F80001012E3701012F37010130370101313721
:10360800010101012251010101012E1301010101F2
:103618003F2B18EF1BF0010101014151000A80E026
:10362800010AB2E018EF1BF0120002015D6F000EF4
:1036380002010201586F02015D510201020156AFF9
:1036480028EF1BF02AEF1BF042EF1BF002010201EA
:10365800561F0201551F0201541F0201536D000E2F
:1036680002015423020155230201562302015D6F12
:10367800010E02010201586F02015D5102010201AF
:1036880052AF49EF1BF04BEF1BF05FEF1BF002014D
:103698000201521F0201511F0201501F02014F6D0A
:1036A800000E020150230201512302015223010E90
:1036B80002010201581B000E02010201596F000E9F
:1036C80002015A6F000E02015B6F000E02015C6F6F
:1036D80002015651531154115511D8B476EF1BF00D
:1036E80078EF1BF0EBEF1BF002015D6F010E02019A
:1036F8000201576F02015D518FEF1BF00201D89054
:103708000201533702015437020155370201563777
:1037180002010201572B0201020156AF96EF1BF07E
:1037280098EF1BF082EF1BF00201D8900201593785
:1037380002015A3702015B3702015C3702010201BC
:103748005351020102014F5D02010201545102016D
:103758000201505902010201555102010201515959
:10376800020102015651020102015259D8A0BFEFCD
:103778001BF0C1EF1BF0DCEF1BF0020102015351FB
:10378800020102014F5F02010201545102010201CC
:10379800505B02010201555102010201515B020115
:1037A8000201565102010201525B020102015981D4
:1037B8000201D890020156330201553302015433F5
:1037C8000201533302010201572F98EF1BF0020147
:1037D80002015851D8B4F3EF1BF0F5EF1BF005EFD9
:1037E8001CF0020102015C1F02015B1F02015A1F4B
:1037F8000201596D000E02015A2302015B230201E6
:103808005C2359C24FF25AC250F25BC251F25CC2F9
:1038180052F20FEF1CF0120049C251F2070E0201DA
:103828005117050E0201526FD8900201513702015B
:10383800522F18EF1CF00201020148511F0B020120
:103848005111020102014B6F4BC24CF20201516F40
:10385800000E020102014D6F0201515148EF1CF0A8
:10386800020102014D51020102014625E96E0201E1
:10387800000E020102014721EA6EEF500201020127
:103888004C27020102014D2B02010201485102019D
:1038980002014D5DD8A053EF1CF055EF1CF034EF3A
:1038A8001CF0FFEC28F00201516F000E020102012A
:1038B8004E6F02015151F0EF1CF00201516F000EE2
:1038C800020102014F6F02015151010E0201020172
:1038D8004F6571EF1CF073EF1CF075EF1CF08CEF67
:1038E8001CF00201516F530E02010201536F0201D5
:1038F800515191EC25F0020102014F2B010E0201FA
:1039080002014F658AEF1CF08CEF1CF075EF1CF07C
:103918004BC253F291EC25F00201516F000E0201E7
:103928000201506F02015151B0EF1CF00201020177
:103938005051020102014625E96E0201000E020102
:1039480002014721EA6EEF5002010201536F91EC28
:1039580025F002010201502B020102014851020127
:103968000201505DD8A0BBEF1CF0BDEF1CF09AEF30
:103978001CF04CC253F291EC25F08A74F40E02014B
:103988000201566F010E0201576F04EC28F08A9469
:10399800FF0E020102014A250201516F0201526B1A
:1039A800FF0E02015223020102014E510201511978
:1039B8005211D8B4E2EF1CF0E4EF1CF0EDEF1CF06C
:1039C800B80E02010201566F0B0E0201576F04EC8C
:1039D80028F0020102014E2B020102014A510201A4
:1039E80002014E5DD8A0FBEF1CF0FDEF1CF061EF6B
:1039F8001CF02BEC28F01200F90E020102015E6F98
:103A08007F0E02015F6F9EEC26F00201416F000EEF
:103A180002010201406F02014151040E020102013C
:103A2800406519EF1DF01BEF1DF01DEF1DF066EF4F
:103A38001DF0000E020102013815020102013C6F5F
:103A4800000E02010201391502013D6F000E02014C
:103A580002013A1502013E6FF00E020102013B1508
:103A680002013F6F0201040ED890020138370201AB
:103A7800393702013A3702013B37E82E38EF1DF09B
:103A88001C0E0201416FD890020102013F3302016E
:103A98003E3302013D3302013C330201412F47EF1F
:103AA8001DF03CC24AF24CEC28F002010201402B06
:103AB800040E02010201406564EF1DF066EF1DF07F
:103AC8001DEF1DF0000E0201020138150201416FC1
:103AD800000E0201020139150201426F000E0201B7
:103AE80002013A150201436FF00E020102013B1573
:103AF8000201446F02014451F00A4111421143117D
:103B0800D8A489EF1DF08BEF1DF097EF1DF002018F
:103B1800416F310E02010201606F02014151DFEC79
:103B280025F0D2EF1DF0000E020102013815020146
:103B3800416F000E0201020139150201426F000EA9
:103B4800020102013A150201436FF00E020102015F
:103B58003B150201446F02014451A00A4111421170
:103B68004311D8A4BAEF1DF0BCEF1DF0C8EF1DF04B
:103B78000201416F320E02010201606F02014151E0
:103B8800DFEC25F0D2EF1DF00201416F300E02018B
:103B98000201606F02014151DFEC25F00201416F23
:103BA8000A0E02010201606F02014151DFEC25F0AB
:103BB8000DEC29F012000201596F000E02010201FA
:103BC800576F020159510201020152AFEEEF1DF089
:103BD800F0EF1DF008EF1EF002010201521F020172
:103BE800511F0201501F02014F6D000E02015023A8
:103BF80002015123020152230201596F010E0201F1
:103C08000201576F020159510201020156AF0FEF2D
:103C18001EF011EF1EF021EF1EF002010201561FE7
:103C28000201551F0201541F0201536D000E0201CB
:103C38005423020155230201562302015651531100
:103C480054115511D8B42BEF1EF02DEF1EF093EF41
:103C58001EF00201596F010E02010201586F0201A4
:103C6800595144EF1EF00201D89002015337020166
:103C78005437020155370201563702010201582B09
:103C88000201020156AF4BEF1EF04DEF1EF037EF69
:103C98001EF0020102015351020102014F5D0201AF
:103CA8000201545102010201505902010201555109
:103CB8000201020151590201020156510201020199
:103CC8005259D8A06AEF1EF06CEF1EF084EF1EF078
:103CD800020102015351020102014F5F0201020178
:103CE800545102010201505B0201020155510201C7
:103CF8000201515B02010201565102010201525BAD
:103D08000201D8900201563302015533020154339F
:103D18000201533302010201582F4DEF1EF0020138
:103D280002015751D8B49BEF1EF09DEF1EF0ADEF86
:103D38001EF002010201521F0201511F0201501F11
:103D480002014F6D000E02015023020151230201AE
:103D580052234FC24FF250C250F251C251F252C2D6
:103D680052F2B7EF1EF0120002015D6F000E020161
:103D78000201516F02015D5102015D6F000E0201E7
:103D88000201526F02015D51000E020102014F5DF6
:103D9800800E02015059D8A0D4EF1EF0D6EF1EF0C5
:103DA800F5EF1EF002015D6F2D0E02010201556F45
:103DB80002015D5102015D6F010E02010201516FA6
:103DC80002015D5102015D6F010E02010201526F95
:103DD80002015D51020102014F6D0201501FD8B06E
:103DE800502B4FC253F250C254F20FEF1FF0020192
:103DF8000201522B0A0E02010201606F000E02013D
:103E0800616F53C25EF254C25FF26BEC23F05EC284
:103E180053F25FC254F20A0E02010201535D000E12
:103E280002015459D8B01BEF1FF01DEF1FF0FBEF34
:103E38001EF052C25CF251EF1FF00201550E020152
:103E480002015C25E96EEA6A0201020EEA220A0E04
:103E580002010201606F000E0201616F4FC25EF243
:103E680050C25FF2E3EC24F0020102015E51300F10
:103E7800EF6E0A0E02010201606F000E0201616F0F
:103E88004FC25EF250C25FF26BEC23F05EC24FF29B
:103E98005FC250F2020102015C07020102015151A6
:103EA800D890020102015CAF5C5DD8B0D880D8B070
:103EB80060EF1FF062EF1FF021EF1FF052C25DF2BA
:103EC800010E02015D270201550E02015D25E96E12
:103ED800EA6A0201020EEA22000EEF6E0201550E96
:103EE800020102015E6F0201020E02015F6F9EEC89
:103EF80026F012000201576F000E02010201546FF2
:103F0800020157510201020152AF8DEF1FF08FEFEE
:103F18001FF09EEF1FF002010201516D0201521FB6
:103F2800D8B0522B0201576F010E02010201546FE3
:103F3800020157510201020150AFA5EF1FF0A7EF90
:103F48001FF0B2EF1FF0020102014F6D0201501F76
:103F5800D8B0502B010E02010201541B000E0201C1
:103F68000201556F000E0201566F02010201525103
:103F78005111D8B4C2EF1FF0C4EF1FF013EF20F0B7
:103F88000201576F010E02010201536F02015751DE
:103F9800D7EF1FF00201D8900201513702015237C2
:103FA80002010201532B0201020152AFDEEF1FF0A2
:103FB800E0EF1FF0CEEF1FF00201D8900201553755
:103FC80002015637020102015151020102014F5DFF
:103FD800020102015251020102015059D8A0F7EF23
:103FE8001FF0F9EF1FF008EF20F002010201515114
:103FF800020102014F5F0201020152510201020156
:10400800505B0201020155810201D890020152332E
:104018000201513302010201532FE0EF1FF00201A8
:1040280002015451D8B41BEF20F01DEF20F024EF0B
:1040380020F002010201556D0201561FD8B0562B1F
:1040480055C24FF256C250F22AEF20F0120040C279
:10405800E9FF41C2EAFF0E0EEF6E010E02010201F6
:104068004025E96E000E020102014121EA6E010EAF
:10407800EF6E020E020102014025E96E000E0201F8
:1040880002014121EA6E020EEF6E030E02010201E7
:104098004025E96E000E020102014121EA6E000E80
:1040A800EF6E040E020102014025E96E000E0201C6
:1040B80002014121EA6E010EEF6E050E02010201B6
:1040C8004025E96E000E020102014121EA6E020E4E
:1040D800EF6E060E020102014025E96E000E020194
:1040E80002014121EA6E010EEF6E070E0201020184
:1040F8004025E96E000E020102014121EA6E010E1F
:10410800EF6E080E020102014025E96E000E020161
:1041180002014121EA6E060EEF6E090E020102014C
:104128004025E96E000E020102014121EA6E010EEE
:10413800EF6E0A0E020102014025E96E000E02012F
:1041480002014121EA6E010EEF6E0B0E020102011F
:104158004025E96E000E020102014121EA6E050EBA
:10416800EF6E0C0E020102014025E96E000E0201FD
:1041780002014121EA6E080EEF6E0D0E02010201E6
:104188004025E96E000E020102014121EA6E060E89
:10419800EF6E1200000E02010201456F000E0201CF
:1041A800466F000E0201476F000E0201486F0201C0
:1041B8004351401141114211D8B4E5EF20F0E7EF27
:1041C80020F05AEF21F00201496F010E02010201AD
:1041D800446F02014951FEEF20F00201D89002011C
:1041E80040370201413702014237020143370201D9
:1041F8000201442B0201020143AF05EF21F007EF52
:1042080021F0F1EF20F00201D890020145370201B8
:10421800463702014737020148370201020140517F
:10422800020102013C5D0201020141510201020149
:104238003D59020102014251020102013E590201A7
:1042480002014351020102013F59D8A02EEF21F08B
:1042580030EF21F04BEF21F0020102014051020141
:1042680002013C5F020102014151020102013D5B72
:10427800020102014251020102013E5B02010201F8
:104288004351020102013F5B020102014581020123
:10429800D890020143330201423302014133020143
:1042A800403302010201442F07EF21F045C23CF2DE
:1042B80046C23DF247C23EF248C23FF264EF21F0E7
:1042C80012000201476F000E02010201426F020153
:1042D8004751000E02010201436F000E0201446FB4
:1042E800000E02010201456F000E0201466F020135
:1042F80002014651800A7D0FE80ED8B4455DD8A06A
:1043080088EF21F08AEF21F08CEF21F0E8EF21F01F
:10431800030EC21290EF21F0C2B295EF21F097EF91
:1043280021F090EF21F0C350C4CF47F20201486B4F
:1043380047C248F20201476B02014711020102011C
:10434800436F020148510201446F020102014435E2
:1043580002014433020143330201020144350201E0
:10436800443302014333020142C247F20201486B5F
:1043780002014851800A0201496F020102014351BA
:104388000201475D020102014451800A02014959B4
:10439800D8B0D1EF21F0D3EF21F0D5EF21F043C20F
:1043A80042F202010201454B462B0201020146512D
:1043B800800A7D0FE80ED8B4455DD8A0E6EF21F05D
:1043C800E8EF21F08CEF21F00201020142C240F235
:1043D80002010201416BF1EF21F012003EC2E9FF38
:1043E8003FC2EAFFEF501F0B02010201416FF60EB8
:1043F800020102015E6F7F0E02015F6F9EEC26F0E4
:104408000201436F010E02010201426F0201435192
:1044180043EF22F0020102014051D8B416EF22F016
:1044280018EF22F02DEF22F00201020142510201A1
:1044380002013E25E96E0201000E020102013F2140
:10444800EA6EEF5002010201486FBFEC28F040EF1E
:1044580022F0020102014251020102013E25E96EE9
:104468000201000E020102013F21EA6EEF50020133
:104478000201606FDFEC25F002010201422B02010C
:1044880041C243F20201446B010E02014327000EB0
:104498004423020142C245F20201466B0201465121
:1044A800800A0201476F43510201455D02014451F0
:1044B800800A02014759D8A064EF22F066EF22F083
:1044C8000EEF22F00201436F0A0E02010201606F33
:1044D80002014351DFEC25F00DEC29F01200020136
:1044E800406F000E020102013F6F02014051DAEFF6
:1044F80022F0020102013F51020102013A25E96E50
:104508000201000E020102013B21EA6EEF50020196
:104518000201506FA5EC28F00201406F02014039FA
:10452800F00B020102013E6F3FC240F2010E020190
:10453800402702014051020102013A250201416F60
:10454800E86A020140BFE868020102013B2102015A
:10455800426F41C2E9FF42C2EAFFEF500201020185
:10456800506FA5EC28F0020102013E273FC240F23D
:10457800D8900201403302014051020102013A255C
:104588000201416FE86A020140BFE86802010201C6
:104598003B210201426F41C2E9FF42C2EAFF020128
:1045A8003EC2EFFF020E020102013F273CC2E9FFB3
:1045B8003DC2EAFFEF50020102013F5DD8A0E7EFDC
:1045C80022F0E9EF22F07DEF22F03CC2E9FF3DC284
:1045D800EAFFD890EF321200EACF69F2E1CF6AF22F
:1045E800E2CF6BF2D9CF6CF2DACF6DF2F3CF6EF285
:1045F800F4CF6FF2F6CF70F2F7CF71F2F8CF72F214
:10460800F5CF73F29EAA0BEF23F00DEF23F020EF06
:1046180023F00001800E010101013B25E96EEA6AE1
:104628000001000EEA22AECFEFFF010101013B2994
:104638007F0B010101013B6F9EA825EF23F027EFB7
:1046480023F04EEF23F09DA82CEF23F02EEF23F05C
:104658004EEF23F00001000E010101012C25E96E47
:10466800EA6A0001000EEA22EF50AD6E0101010175
:104678002C297F0B010101012C6F010101012B5134
:10468800010101012C634BEF23F04DEF23F04EEFB6
:1046980023F09D9873C2F5FF72C2F8FF71C2F7FF4D
:1046A80070C2F6FF6FC2F4FF6EC2F3FF6DC2DAFF8D
:1046B8006CC2D9FF6BC2E2FF6AC2E1FF69C2EAFFBE
:1046C80068C2E9FF67C2FBFF66C2FAFF1100000E6D
:1046D80002010201636F000E0201646F0201020110
:1046E80061516011D8B47BEF23F07DEF23F0CCEF5C
:1046F80023F00201656F010E02010201626F0201DF
:10470800655190EF23F00201D89002016037020151
:10471800613702010201622B0201020161AF97EFCA
:1047280023F099EF23F087EF23F00201D8900201DC
:10473800633702016437020102016051020102017C
:104748005E5D020102016151020102015F59D8A0B8
:10475800B0EF23F0B2EF23F0C1EF23F00201020122
:104768006051020102015E5F020102016151020112
:1047780002015F5B0201020163810201D89002011C
:1047880061330201603302010201622F99EF23F0C5
:1047980063C25EF264C25FF2D2EF23F01200F00E41
:1047A800020102015E6F7F0E02015F6F9EEC26F030
:1047B80002013C6F000E020102013B6F02013C51F5
:1047C800020E020102013B65ECEF23F0EEEF23F04D
:1047D800F0EF23F025EF24F0000E02010201371557
:1047E80002010201396F0F0E0201020138150201A0
:1047F8003A6F02010201373B0201383BF00E020119
:104808003817020137510F0B02013813F00E02015D
:104818003717020102013A510201396F02013A6B5E
:1048280039C24AF24CEC28F0020102013B2B020E7D
:10483800020102013B6523EF24F025EF24F0F0EF9D
:1048480023F002013C6F0A0E02010201606F0201AF
:104858003C51DFEC25F00DEC29F01200000E0201AE
:1048680002015D6F000E02015E6F000E02015F6FB4
:10487800000E0201606F0201020155A146EF24F00B
:1048880048EF24F060EF24F00201020159510201BF
:1048980002015D27020102015A51020102015E2351
:1048A800020102015B51020102015F2302010201C0
:1048B8005C510201020160230201D89002015937BC
:1048C80002015A3702015B3702015C370201D890B6
:1048D800020158330201573302015633020155339E
:1048E80002015851551156115711D8A47EEF24F0E2
:1048F80080EF24F03FEF24F05DC255F25EC256F21D
:104908005FC257F260C258F28AEF24F012003EC22A
:10491800E9FF3FC2EAFFEF501F0B02010201426F9D
:104928003EC2E9FF3FC2EAFFEF500201446F050EA5
:104938000201456FD890020144330201452F9EEFD2
:1049480024F00201445102010201436F02010201F5
:104958004351D8B4B2EF24F0B4EF24F0E2EF24F0DE
:10496800070E020102014361BCEF24F0BEEF24F000
:10497800C1EF24F0020102014307020E0201020105
:104988004025E96E000E020102014121EA6EEF5056
:10499800020102014A6F43C249F242C248F2010EC3
:1049A800020102013E2502010201466F000E0201CA
:1049B80002013F210201476F10EC1CF012000201B6
:1049C800020161516011D8B4ECEF24F0EEEF24F04D
:1049D80034EF25F00201636F010E02010201626FDC
:1049E8000201635101EF25F00201D89002016037FE
:1049F8000201613702010201622B0201020161AF6B
:104A080008EF25F00AEF25F0F8EF24F00201020183
:104A18006051020102015E5D020102016151020161
:104A280002015F59D8A01BEF25F01DEF25F029EFF3
:104A380025F0020102016051020102015E5F0201DC
:104A480002016151020102015F5B0201D89002017B
:104A580061330201603302010201622F0AEF25F07F
:104A68005EC25EF25FC25FF23AEF25F0120034C216
:104A780040F235C241F236C242F237C243F2000E6A
:104A8800020102013C6F480E02013D6FE80E02016F
:104A98003E6F010E02013F6FCEEC20F0050E5FEF76
:104AA80025F0D890020102013F3302013E33020192
:104AB8003D3302013C33E82E55EF25F0FF0E02018D
:104AC80002013C2502010201386FFF0E02010201BA
:104AD8003D210201396FFF0E020102013E21020150
:104AE8003A6FFF0E020102013F2102013B6F240EC3
:104AF800AC6E900EAB6E000EB86E38C2AFFFF28C83
:104B0800300E9D12000E010101013C6F3CC13BF1CA
:104B18003BC12CF12CC12BF112000201556F000E84
:104B280002010201546F02015551070E02010201F0
:104B38005465A1EF25F0A3EF25F0A5EF25F0DEEFF2
:104B480025F00201020153AFACEF25F0AEEF25F0DE
:104B5800C4EF25F08A74F40E02010201566F010EAB
:104B68000201576F04EC28F08A74F40E0201020166
:104B7800566F010E0201576F04EC28F0CEEF25F0B6
:104B88008A74E80E02010201566F030E0201576F84
:104B980004EC28F00201D890533702010201542B8B
:104BA800070E020102015465DCEF25F0DEEF25F067
:104BB800A5EF25F01200F29E01012BC161F202015E
:104BC800626B010E02016127000E62237F0E020153
:104BD8006117000E621701012CC163F20201646BB8
:104BE800020162510201641904E1020161510201EA
:104BF8006319D8A402EF26F004EF26F00FEF26F091
:104C0800F28E07EF26F09DB80CEF26F00EEF26F097
:104C180007EF26F0F29E0001000E010101012B258D
:104C2800E96EEA6A0001000EEA22020160C2EFFFA3
:104C3800010101012B297F0B010101012B6F9D88C7
:104C4800F28E12000201486F000E02010201476F46
:104C5800020148510201020146A135EF26F037EF63
:104C680026F03AEF26F0020102014787020102010D
:104C780046A341EF26F043EF26F046EF26F0020167
:104C8800020147850201020146A54DEF26F04FEFCC
:104C980026F052EF26F002010201478302010201C9
:104CA80046A759EF26F05BEF26F05EEF26F00201EB
:104CB8000201478102010201475163EF26F0120009
:104CC800000E020102014A6F000E02014B6F020141
:104CD800020146A172EF26F074EF26F080EF26F06D
:104CE800020102014851020102014A2702010201A0
:104CF8004951020102014B230201D89002014837B1
:104D0800020149370201D8900201473302014633B4
:104D18000201020147514611D8A495EF26F097EFFA
:104D280026F06BEF26F04AC246F24BC247F29DEFDF
:104D380026F01200BBEF26F0020102015E51F66E6A
:104D4800E96E0E0EEA6E020102015F51EA6403D0B9
:104D5800EA6EEF5003D0F76E0800F5500201020129
:104D6800606FDFEC25F0020102015E4B5F2B020150
:104D780002015E51F66EE96E0E0EEA6E0201020144
:104D88005F51EA6403D0EA6EEF5003D0F76E080073
:104D9800F5500009D8A4D3EF26F0D5EF26F0A0EF00
:104DA80026F012000201436F000E02010201426F59
:104DB80002014351FAEF26F00201020142510201B9
:104DC80002014025E96E0201000E020102014121A3
:104DD800EA6E0201020142C244F202010201456B7D
:104DE800EBEC28F0EF6E02010201422B000E0201EB
:104DF8000201446F000E0201456FEBEC28F002013E
:104E08000201425DD8A00BEF27F00DEF27F0E0EF8D
:104E180026F012000201436F000E02010201426FE8
:104E28000201435135EF27F002010201425102010C
:104E380002014025E96E0201000E02010201412132
:104E4800EA6EEF5002010201466F0201020142C2FE
:104E580044F202010201456BDAEC27F0020102017B
:104E6800422B40C2E9FF41C2EAFFEF5002010201B2
:104E7800425DD8A042EF27F044EF27F018EF27F063
:104E880012000201356F000E02010201346F0201A7
:104E98003551040E02010201346555EF27F057EF32
:104EA80027F059EF27F079EF27F08B7A8BBA5FEF6D
:104EB80027F062EF27F08B8863EF27F08B98640E5A
:104EC80002010201546F000E0201556F7AEC27F0BF
:104ED80002010201342B040E02010201346577EF4E
:104EE80027F079EF27F059EF27F01200000E0201A2
:104EF8000201566F000E0201576F92EF27F00B0E5A
:104F08000201586F620EE82E87EF27F0582F87EFBF
:104F180027F0040002010201564B572B020102013F
:104F28005751800A0201586F0201545102010201CF
:104F3800565D020102015551800A02015859D8A054
:104F4800A8EF27F0AAEF27F083EF27F0120051C24D
:104F580059F252C25AF253C25BF254C25CF24FC2C7
:104F6800E9FF50C2EAFF0201EECF55F20201EECF8F
:104F780056F20201EECF57F20201EECF58F232ECB0
:104F880024F04FC2E9FF50C2EAFF020155C2EEFF0A
:104F9800020156C2EEFF020157C2EEFF020158C2DB
:104FA800EDFFED52ED52D9EF27F01200DCEF27F0BC
:104FB800A6B2E1EF27F0E3EF27F0DAEF27F044C2DB
:104FC800A9FF46C2A8FF3F0EA616D890F2AEEFEF93
:104FD80027F0F1EF27F0F2EF27F0D880F29EA684B1
:104FE800550EA76EAA0EA76EA682A198A694D8A061
:104FF80000EF28F002EF28F003EF28F0F28E1200FD
:1050080002010201561F0201571F56C2CEFF000EB1
:105018000201020156150201586FFF0E020102013A
:1050280057150201596F59C258F20201596B020112
:105038005851CF6ECD8021EF28F09EA026EF28F0A2
:1050480028EF28F021EF28F0CD909E90120017EC61
:1050580029F0030E02010201546F000E0201556F80
:105068007AEC27F08A968B98EC0E020102015E6FAB
:105078007F0E02015F6F9EEC26F00201536F0A0E4D
:1050880002010201606F02015351DFEC25F01200AA
:105098000A0E020102014A6154EF28F056EF28F087
:1050A80061EF28F0020102014A51300F02010201AA
:1050B800606FDFEC25F06AEF28F0020102014A5127
:1050C800370F02010201606FDFEC25F01200F29E3B
:1050D8000001800E010101013C25E96EEA6A000128
:1050E800000EEA22EF5002010201346F01010101B2
:1050F8003C297F0B010101013C6FF28E0201020184
:10510800345187EF28F01200ABA28DEF28F08FEF13
:1051180028F094EF28F0AB98AB88000EA4EF28F0A5
:10512800010101013C51010101013B639EEF28F09F
:10513800A1EF28F0010EA2EF28F0000EA4EF28F04E
:1051480012003A0E020102015061ADEF28F0AFEFF4
:1051580028F0B5EF28F0300E02010201505FB9EFD8
:1051680028F0370E02010201505F0201020150517E
:10517800BEEF28F0120048C249F2F00E02014917AA
:10518800020149390F0B020102014A6F4CEC28F069
:105198000201020148510F0B020102014A6F4CEC57
:1051A80028F01200800E946E060E936E000E926E1A
:1051B800790ECD6E000ED16E000E7E6E040E7F6EDF
:1051C800290EC26E000EC16EBE0EC06E1200EFEF49
:1051D80028F0EFEF28F0A6B2F4EF28F0F6EF28F069
:1051E800EDEF28F044C2A9FF3F0EA616A680A850EE
:1051F800FEEF28F012008B888A86030E0201020156
:10520800546F000E0201556F7AEC27F014EC29F068
:1052180012008B8A000EB36E000EB26EB1801200BF
:0C522800020E936E1200060E936E120030
:107E5E004D756C7469545258204857494420312E40
:107E6E00312C204657494420312E32202D20736B61
:107E7E0061676D6F2E636F6D002D2D2D2D2D2D2DA8
:107E8E002D2D2053657474696E6773202D2D2D2D45
:107E9E002D2D2D2D2D2D00205B465D204C6F616408
:107EAE002064656661756C747300205B535D2045BC
:107EBE004550524F4D207361766500205B4C5D201E
:107ECE00454550524F4D206C6F616400205B485DFC
:107EDE0020486F70732020203D2000205B415D20E4
:107EEE0053656E647320203D2000205B4B5D205354
:107EFE00656E647320203D2000205B4D5D20536530
:107F0E006E647320203D2000205B575D2053656E0C
:107F1E00647320203D2000205B585D2053656E6405
:107F2E007320203D2000205B525D205265706561FC
:107F3E0074203D2000205B425D20456E2E2052585D
:107F4E00203D200020437572722E2052535349203B
:107F5E003D2000205B435D20496E20686578203D02
:107F6E002000205B475D20456E2E205258203D207C
:107F7E0000205B4E5D20456E2E205258203D200085
:107F8E00205B445D20456E2E205258203D2000205F
:107F9E005B455D20456E2E205258203D20004B61E2
:107FAE006E67746861693A0053657474696E6773BD
:107FBE003A00576176656D616E3A004F746865726E
:107FCE003A004E6578613A00446F726F3A0045731D
:107FDE0069633A0047414F3A00424D433A00244FFD
:107FEE004B00244400244500244200244700244E24
:027FFE00000081
:00000001FF
