:0400000070EF00F0AD
:10000800FACF01F0FBCF02F0E9CF03F0EACF04F01A
:10001800E1CF05F0E2CF06F0D9CF07F0DACF08F04C
:10002800F3CF09F0F4CF0AF0F6CF0BF0F7CF0CF0CE
:10003800F8CF0DF0F5CF0EF09EAA01D001D010D068
:100048004450010D0101000EF324D96EDA6A010152
:10005800010EDA22AECFDFFF44287F0B446E00D0BA
:100068009EA801D001D01BD09DA801D001D017D0E7
:100078004750010D0101800EF324D96EDA6A01019F
:10008800010EDA22DF50AD6E47287F0B476E4650CF
:10009800476201D001D003D09D9801D000D00EC096
:1000A800F5FF0DC0F8FF0CC0F7FF0BC0F6FF0AC044
:1000B800F4FF09C0F3FF08C0DAFF07C0D9FF06C084
:1000C800E2FF05C0E1FF04C0EAFF03C0E9FF02C088
:1000D800FBFF01C0FAFF11003FEF19F03B04D8A461
:1000E80001D001D089D33E6E0A0E0F6E3E50A2ECAD
:1000F80018F07E0E116E870E106E32EC18F03E6E00
:100108000A0E0F6E3E50A2EC18F07F0E116EE20E32
:10011800106E32EC18F03E6E0A0E0F6E3E50A2ECD6
:1001280018F07F0E116E430E106E32EC18F020EEB0
:1001380001F03C50D9263D50DA22DF50300F0F6EC7
:10014800A2EC18F03E6E0A0E0F6E3E50A2EC18F0AC
:100158007F0E116E070E106E32EC18F020EE02F0D2
:100168003C50D9263D50DA22DF50300F0F6EA2ECFA
:1001780018F03E6E0A0E0F6E3E50A2EC18F07F0E7D
:10018800116E9D0E106E32EC18F020EE03F03C500C
:10019800D9263D50DA22DF50300F0F6EA2EC18F04E
:1001A8003E6E0A0E0F6E3E50A2EC18F07F0E116ED6
:1001B8008E0E106E32EC18F020EE04F03C50D9266A
:1001C8003D50DA22DF50300F0F6EA2EC18F03E6E71
:1001D8000A0E0F6E3E50A2EC18F07E0E116EDA0E6B
:1001E800106E32EC18F020EE05F03C50D9263D5048
:1001F800DA22DF50300F0F6EA2EC18F03E6E0A0EB6
:100208000F6E3E50A2EC18F07F0E116EDC0E106ED1
:1002180032EC18F03E6E0A0E0F6E3E50A2EC18F04B
:100228007F0E116E520E106E32EC18F020EE06F0B2
:100238003C50D9263D50DA22DF50300F0F6EA2EC29
:1002480018F03E6E0A0E0F6E3E50A2EC18F07F0EAC
:10025800116EE70E106E32EC18F03E6E0A0E0F6E3D
:100268003E50A2EC18F07F0E116E700E106E32EC3C
:1002780018F020EE07F03C50D9263D50DA22DF5026
:10028800300F0F6EA2EC18F03E6E0A0E0F6E3E5045
:10029800A2EC18F07E0E116EE90E106E32EC18F01A
:1002A80020EE08F03C50D9263D50DA22DF50300FBE
:1002B8000F6EA2EC18F03E6E0A0E0F6E3E50A2ECC6
:1002C80018F07F0E116ED60E106E32EC18F03E6EDE
:1002D8000A0E0F6E3E50A2EC18F07F0E116E610EE2
:1002E800106E32EC18F020EE09F03C50D9263D5043
:1002F800DA22DF50300F0F6EA2EC18F03E6E0A0EB5
:100308000F6E3E50A2EC18F07F0E116ED00E106EDC
:1003180032EC18F03E6E0A0E0F6E3E50A2EC18F04A
:100328007F0E116E7F0E106E32EC18F020EE0AF080
:100338003C50D9263D50DA22DF50300F0F6EA2EC28
:1003480018F03E6E0A0E0F6E3E50A2EC18F07F0EAB
:10035800116E250E106E32EC18F020EE0BF03C50AA
:10036800D9263D50DA22DF50300F0F6EA2EC18F07C
:100378003E6E0A0E0F6E3E50A2EC18F07F0E116E04
:10038800C00E106E32EC18F03E6E0A0E0F6E3E5024
:10039800A2EC18F07F0E116E160E106E32EC18F0EB
:1003A80020EE0CF03C50D9263D50DA22DF50300FB9
:1003B8000F6EA2EC18F03E6E0A0E0F6E3E50A2ECC5
:1003C80018F07F0E116EAC0E106E32EC18F03E6E07
:1003D8000A0E0F6E3E50A2EC18F07E0E116EF80E4B
:1003E800106E32EC18F020EE0DF03C50D9263D503E
:1003F800DA22DF50300F0F6EA2EC18F03E6E0A0EB4
:100408000F6E3E50A2EC18F07F0E116EB60E106EF5
:1004180032EC18F03E6E0A0E0F6E3E50A2EC18F049
:100428007E0E116EC90E106E32EC18F03E6E0A0E7A
:100438000F6E3E50A2EC18F07E0E116EB80E106EC4
:1004480032EC18F03E6E0A0E0F6E3E50A2EC18F019
:100458007E0E116EA50E106E32EC18F03E6E0A0E6E
:100468000F6E3E50A2EC18F07F0E116EC90E106E82
:1004780032EC18F03E6E0A0E0F6E3E50A2EC18F0E9
:100488007F0E116E340E106E32EC18F0D0EC15F0B1
:100498000FC02AF010C02BF0B6EC12F03E6E0A0E18
:1004A8000F6E3E50A2EC18F0DED1A6D120EE01F07E
:1004B8003C50D9263D50DA2210EE01F03950E126A1
:1004C8003A50E222E750D00FDF6E7F0E116EEC0E2D
:1004D800106E32EC18F03E6E0A0E0F6E3E50A2EC13
:1004E80018F0C1D120EE02F03C50D9263D50DA2256
:1004F80010EE01F03950E1263A50E222E750D00FD1
:10050800DF6E7F0E116EEC0E106E32EC18F03E6E40
:100518000A0E0F6E3E50A2EC18F0A5D120EE03F0A3
:100528003C50D9263D50DA2210EE01F03950E12630
:100538003A50E222E750D00FDF6E7F0E116EEC0EBC
:10054800106E32EC18F03E6E0A0E0F6E3E50A2ECA2
:1005580018F089D120EE04F03C50D9263D50DA221B
:1005680010EE01F03950E1263A50E222E750D00F60
:10057800DF6E7F0E116EEC0E106E32EC18F03E6ED0
:100588000A0E0F6E3E50A2EC18F06DD120EE05F069
:100598003C50D9263D50DA2210EE01F03950E126C0
:1005A8003A50E222E750D00FDF6E7F0E116EEC0E4C
:1005B800106E32EC18F03E6E0A0E0F6E3E50A2EC32
:1005C80018F051D120EE06F03C50D9263D50DA22E1
:1005D80010EE01F03950E1263A50E222E750D00FF0
:1005E800DF6E7F0E116EEC0E106E32EC18F03E6E60
:1005F8000A0E0F6E3E50A2EC18F035D120EE07F02F
:100608003C50D9263D50DA2210EE01F03950E1264F
:100618003A50E222E750D00FDF6E7F0E116EEC0EDB
:10062800106E32EC18F03E6E0A0E0F6E3E50A2ECC1
:1006380018F019D120EE08F03C50D9263D50DA22A6
:1006480010EE01F03950E1263A50E222E750D00F7F
:10065800DF6E7F0E116EEC0E106E32EC18F03E6EEF
:100668000A0E0F6E3E50A2EC18F0FDD020EE09F0F5
:100678003C50D9263D50DA2210EE01F03950E126DF
:100688003A50E222E750D00FDF6E7F0E116EEC0E6B
:10069800106E32EC18F03E6E0A0E0F6E3E50A2EC51
:1006A80018F0E1D020EE0AF03C50D9263D50DA226D
:1006B80010EE01F03950E1263A50E222E750D00F0F
:1006C800DF6E7F0E116EEC0E106E32EC18F03E6E7F
:1006D8000A0E0F6E3E50A2EC18F0C5D020EE0BF0BB
:1006E8003C50D9263D50DA2210EE01F03950E1266F
:1006F8003A50E222E750D00FDF6E7F0E116EEC0EFB
:10070800106E32EC18F03E6E0A0E0F6E3E50A2ECE0
:1007180018F0A9D020EE0CF03C50D9263D50DA2232
:1007280010EE01F03950E1263A50E222E750D00F9E
:10073800DF6E7F0E116EEC0E106E32EC18F03E6E0E
:100748000A0E0F6E3E50A2EC18F08DD020EE0DF080
:100758003C50D9263D50DA2210EE01F03950E126FE
:100768003A50E222E750D00FDF6E7F0E116EEC0E8A
:10077800106E32EC18F03E6E0A0E0F6E3E50A2EC70
:1007880018F071D03CC012F03DC013F05CEC18F0CA
:100798007F0E116EEC0E106E32EC18F03E6E0A0EE3
:1007A8000F6E3E50A2EC18F05ED03CC011F03DC078
:1007B80012F080EC18F07F0E116EEC0E106E32EC19
:1007C80018F03E6E0A0E0F6E3E50A2EC18F04BD099
:1007D8003CC00FF03DC010F0AFEC14F07F0E116E6E
:1007E800EC0E106E32EC18F03E6E0A0E0F6E3E5094
:1007F800A2EC18F038D037D039C0D9FF3AC0DAFFA8
:10080800DF50410AD8B416D7030AD8B44FD6010A24
:10081800D8B484D6070AD8B4D5D6010AD8B426D70E
:10082800030AD8B4D5D7010AD8B4E8D60F0AD8B481
:10083800ADD6030AD8B48AD7070AD8B4B6D7010AFE
:10084800D8B450D6030AD8B42DD71C0AD8B482D647
:10085800010AD8B497D7040AD8B45CD70F0AD8B419
:100868003DD701D000D012003D6E000E00010001FE
:10087800606F3D503D6E000E00010001676F3D50F6
:100888003950030B00010001666F39C06DF03AC0A2
:100898006EF03BC06FF03CC070F03D6E000E000182
:1008A8000001686F3D500E0E00010001686501D01F
:1008B80001D002D034D033D0030E39140001000126
:1008C8006D6F0001000E3A146E6F0001000E3B14AC
:1008D8006F6F0001000E3C14706F0001000167513A
:1008E800000100016D1900010001676F020E3D6EE5
:1008F800D89000010001703300016F3300016E339E
:1009080000016D333D2EF4D700010001682B0E0E57
:1009180000010001686501D001D0CED700D0000EDB
:100928003914000100016D6F000E3A1400016E6F5A
:10093800000E3B1400016F6F030E3C140001706F32
:10094800180E3D6ED89000010001703300016F331E
:1009580000016E3300016D333D2EF4D70001000114
:100968006D51030A6E116F117011D8A401D001D016
:10097800C8D100010001665100010001676301D080
:1009880001D0BFD1000E3914000100016D6F000EB7
:100998003A1400016E6F000E3B1400016F6FF00EE9
:1009A8003C140001706F00016DC03DF000016EC085
:1009B8003EF000016FC03FF0000170C040F01D0E16
:1009C80005D0D89040323F323E323D32E82EF9D73A
:1009D8003D5000010001626F000E39140001000152
:1009E8006D6F000E3A1400016E6F000E3B1400018B
:1009F8006F6F0C0E3C140001706F1A0E3D6ED8908C
:100A080000010001703300016F3300016E330001F3
:100A18006D333D2EF4D7000100016D29000100015E
:100A2800636F000E3914000100016D6F000E3A1457
:100A380000016E6F800E3B1400016F6F000E3C14B6
:100A48000001706F00016F35000170350001000171
:100A5800656F000E3914000100016D6F800E3A14A5
:100A680000016E6F7F0E3B1400016F6F000E3C1487
:100A78000001706F00016DC03DF000016EC03EF0D6
:100A880000016FC03FF0000170C040F0100E05D0AB
:100A9800D89040323F323E323D32E82EF9D73D50B1
:100AA80000010001646FF00E3914000100016D6F40
:100AB8007F0E3A1400016E6F000E3B1400016F6F39
:100AC800000E3C140001706F00016DC03DF0000184
:100AD8006EC03EF000016FC03FF0000170C040F0F2
:100AE800050E05D0D89040323F323E323D32E82ED6
:100AF800F9D73DC069F03EC06AF03FC06BF040C016
:100B08006CF00A0E136E000E146E000E156E000EB9
:100B1800166EE00E0001000169250F6EFC0E000143
:100B280000016A21106EFF0E000100016B21116E99
:100B3800FF0E000100016C21126EA3EC17F00FC02C
:100B48001BF010C01CF011C01DF012C01EF0100EDA
:100B58001F6E000E206E000E216E000E226E3AEC03
:100B680013F01BC069F01CC06AF01DC06BF01EC0FA
:100B78006CF00C0E3914000100016D6F0001000EBD
:100B88003A146E6F0001000E3B146F6F0001000EE7
:100B98003C14706F020E3D6ED89000010001703356
:100BA80000016F3300016E3300016D333D2EF4D721
:100BB8006DC061F07F0E116EF60E106E32EC18F0FB
:100BC800000162C02AF02B6AB6EC12F03D6E2C0EC2
:100BD8000F6E3D50A2EC18F0000163C02AF02B6A9A
:100BE800B6EC12F03D6E2C0E0F6E3D50A2EC18F0D4
:100BF800000100016CAF01D001D021D03D6E2D0E57
:100C08000F6E3D50A2EC18F069C00FF06AC010F0EA
:100C18006BC011F06CC012F0FF0E136EFF0E146E55
:100C2800FF0E156EFF0E166EA3EC17F00FC069F0DD
:100C380010C06AF011C06BF012C06CF000D069C02F
:100C48001BF06AC01CF06BC01DF06CC01EF00A0ED1
:100C58001F6E000E206E000E216E000E226E3AEC02
:100C680013F01BC02AF01CC02BF0B6EC12F03D6E3E
:100C78002E0E0F6E3D50A2EC18F069C00FF06AC03E
:100C880010F06BC011F06CC012F00A0E136E000E5B
:100C9800146E000E156E000E166E3DEC14F00FC0AB
:100CA8002AF010C02BF0B6EC12F03D6E2C0E0F6E31
:100CB8003D50A2EC18F0000164C00FF0106A000E5D
:100CC800126E020E116E1EEC15F00FC02AF010C045
:100CD8002BF0B6EC12F03D6E2C0E0F6E3D50A2ECD0
:100CE80018F0000100016551300F0F6EA2EC18F0EA
:100CF8003D6E0A0E0F6E3D50A2EC18F029EC1AF06A
:100D080000D01200000E1F6E000E206E000E216E25
:100D1800000E226E186E000E236E1850050E236406
:100D280001D001D002D01FD01ED02350010DF350A6
:100D38001524D96E000E1620DA6EDF500F6EF7EC10
:100D480019F0186E18501F12040ED8901F3620364E
:100D580021362236E82EF9D7232A050E236401D03E
:100D680001D0E3D700D0040ED8901F3620362136A4
:100D78002236E82EF9D720EE06F01550D92616505F
:100D8800DA22DF50186E196A060ED890183619360E
:100D9800E82EFBD7000E18241A6EF40E19201B6ECD
:100DA8001C6A1D6A1A501F121B5020121C50211257
:100DB8001D50221220EE07F01550D9261650DA22BF
:100DC800DF50186ED00E1824196E1A6AFF0E1A22F8
:100DD8001A501910D8B401D001D002D01F8A00D0FF
:100DE80020EE08F01550D9261650DA22DF500F6E83
:100DF800F7EC19F0186E18501F1220EE09F0155074
:100E0800D9261650DA22310EDF6201D001D002D085
:100E18001F8800D020EE09F01550D9261650DA2286
:100E2800320EDF6201D001D00CD020EE0AF015504E
:100E3800D9261650DA22DF500F6EF7EC19F0246E1F
:100E480005D0186E000E246E185000D01EEC1AF053
:100E5800186E000E1E6E1850ECD08982000E106EAF
:100E6800CC0E0F6E75EC19F089920A0E106EA00E5A
:100E78000F6E75EC19F01FC025F020C026F021C0B8
:100E880027F022C028F0186E000E296E18501F0E89
:100E9800296401D001D002D067D066D08982000EC3
:100EA800106ECC0E0F6E75EC19F089922450D8B4E0
:100EB80001D001D00DD029501B0AD8A401D001D0EF
:100EC80007D0010E106E100E0F6E75EC19F013D0CE
:100ED80028AE01D001D007D0050E106E2E0E0F6E71
:100EE80075EC19F008D0010E106E100E0F6E75EC2F
:100EF80019F001D000D08982000E106ECC0E0F6E52
:100F080075EC19F089922450D8B401D001D00DD0D5
:100F180029501B0AD8A401D001D007D0010E106EA9
:100F2800100E0F6E75EC19F013D028BE01D001D049
:100F380007D0050E106E2E0E0F6E75EC19F008D046
:100F4800010E106E100E0F6E75EC19F001D000D066
:100F5800D8902536263627362836292A1F0E2964A2
:100F680001D001D09BD700D02450D8B401D001D0F3
:100F780050D02450256E266A276A286A186E000EFB
:100F8800296E1850030E296401D001D002D041D037
:100F980040D08982000E106ECC0E0F6E75EC19F0E1
:100FA800899225A601D001D007D0050E106E2E0E0D
:100FB8000F6E75EC19F007D0010E106E100E0F6E43
:100FC80075EC19F000D08982000E106ECC0E0F6EF1
:100FD80075EC19F0899225A601D001D007D0010E31
:100FE800106E100E0F6E75EC19F007D0050E106E0E
:100FF8002E0E0F6E75EC19F000D0D89025362636D7
:1010080027362836292A030E296401D001D0C1D7F2
:1010180000D08982000E106ECC0E0F6E75EC19F0A0
:101028008992270E106E100E0F6E75EC19F01E2A9D
:1010380000D017501E5CD8A001D001D00ED700D028
:10104800A8EC19F012005AEC19F0800E1D6E250E4E
:101058001E6E000E1F6E000E206EC4EC16F0C4EC5F
:1010680018F07E0E116E5E0E106E32EC18F0000154
:10107800726F0A0E0F6E00017251A2EC18F089808F
:10108800000E106E050E0F6E22EC19F0899000010B
:10109800726F000E00010001936F00017251000190
:1010A800726F000E00010001966F0001725100017D
:1010B800726F000E00010001976F0001725100016C
:1010C800726F000E00010001946F0001725100015F
:1010D800000E126E0001980E116E80EC18F000D010
:1010E8008050020B00010001936F0001000196512E
:1010F800000100019319D8B401D001D056D0D6CF41
:1011080097F0F2A401D001D005D000010001976941
:10111800F29400D0000ED66E000100019E51D8B4A2
:1011280001D001D007D096C018F097C019F0EFECA5
:1011380010F000D000010001A151D8B401D001D0B5
:1011480005D097C071F020EC10F000D0000100012C
:101158009F51D8B401D001D007D096C01FF097C0D6
:1011680020F07DEC0AF000D000010001A251D8B4B3
:1011780001D001D007D096C01FF097C020F04FECE7
:101188000FF000D0000100019951D8B401D001D06E
:101198000CD097C02BF00001000E2D6E0001980EA8
:1011A8002C6E53EC09F001D000D093C096F0A1A2A8
:1011B80001D001D068D08B9AB190A19264D063D04D
:1011C800BFEC19F000010001956F00010001955175
:1011D800240AD8A401D001D009D00001726F000EF2
:1011E80000010001946F0001725100D0000100015C
:1011F8009451010D0001730EF324D96EDA6A0001CF
:10120800000EDA22000195C0DFFF00010001942BD7
:101218000001000195510A0AD8B401D001D009D0C3
:101228000001000195510D0AD8A401D001D02BD09E
:1012380000D0020E00010001946501D001D019D040
:10124800000100017351240AD8A401D001D011D0A3
:101258000001000E406E0001730E3F6E94C041F015
:101268000001000E436E0001980E426E84EC0DF0F2
:1012780000D00001726F000E00010001946F0001A0
:10128800725101D000D0D3EC19F00009D8A401D0D4
:1012980001D096D725D724D723D770EF00F0140EA6
:1012A8002B6401D001D016D0280E2B6001D001D0BC
:1012B80011D04A50040AD8A401D001D005D02E6E0E
:1012C800010E4A6E2E501BD02E6E040E4A6E2E5002
:1012D80016D015D0320E2B6401D001D00AD0460E9C
:1012E8002B6001D001D005D02E6E000E4A6E2E5014
:1012F80006D02E6E020E4A6E2E5001D000D04A50F3
:10130800040AD8A401D001D002D0F2D0F1D04A50BA
:10131800020AD8A401D001D00ED02E6E000E000112
:101328000001B46F2E502E6E000E00010001B56F43
:101338002E50DED0DDD0D89048364A5048120001F1
:101348000001B42BCBD04850530AD8A401D001D007
:10135800CFD0070E00010001B46501D001D0C8D07C
:101368002E6E000E00010001B46F2E50B4C049F07B
:101378002E6E010E00010001B56F2E50B9D0B8D005
:1013880000010001B451080AD8A401D001D0B0D09E
:10139800496601D001D007D04850530AD8B401D0CB
:1013A80001D093D000D04950010D0001BF0EF324A5
:1013B800D96EDA6A0001000EDA2248C0DFFF492A36
:1013C800020E496401D001D080D0FE0E49242E6E51
:1013D8002F6AFF0E2F22BFC030F01F0E301630507C
:1013E8002E182F10D8A401D001D06FD02E6E000E69
:1013F800336E2E502E6E000E346E2E500ED034509A
:10140800010D0001BF0EF324D96EDA6A0001000E47
:10141800DA22DF503326342A00D0FF0E49242E6EFC
:101428002F6AFF0E2F223450306E316A3150800AF5
:10143800326E2E50305C2F50800A3258D8A001D01E
:1014480001D0DDD700D049C02EF0FF0E2E260001B6
:10145800BF0E2E24D96EDA6A0001000EDA2233504C
:10146800DF6201D001D029D00001000E136E000107
:10147800BF0E126E20EE03F02C50D9262D50DA2222
:10148800DF50146E23EC16F020EE04F02C50D92611
:101498002D50DA22DF50D8B401D001D00ED000018F
:1014A800000E246E0001BF0E236E2CC025F02DC047
:1014B80026F0FFEC16F001D000D02E6E000E0001D1
:1014C8000001B56F2E5001D000D02E6E000E000125
:1014D8000001B46F2E500CD00BD00AD000010001CF
:1014E800B551000AD8B42FD7010AD8B449D700D0CB
:1014F8001200216E040E4C6E21501F50D8B401D03A
:1015080001D023D0140E206401D001D014D0370E9E
:10151800206001D001D00FD04DC021F0010E226E05
:10152800212A02D0D8902236212EFCD72250FF0A39
:101538004E164D2A46D0216E000E4D6E2150216E5A
:10154800020E4C6E21503DD03CD0140E206401D0C8
:1015580001D014D0370E206001D001D00FD04DC07B
:1015680021F0010E226E212A02D0D8902236212E97
:10157800FCD72250FF0A4E164D2A23D0370E20647E
:1015880001D001D013D05A0E206001D001D00ED066
:101598004DC021F0010E226E212A02D0D8902236A9
:1015A800212EFCD722504E124D2A0BD0216E000E50
:1015B8004D6E2150216E020E4C6E215002D001D08A
:1015C80000D0030E4D6401D001D02AD04E6601D060
:1015D80001D005D0216E050E4C6E21501CD04E5006
:1015E800080AD8A401D001D005D0216E000E4C6E97
:1015F800215011D04E50020AD8A401D001D005D0F4
:10160800216E010E4C6E215006D0216E020E4C6EDA
:10161800215001D000D0216E000E4D6E215000D017
:101628004C50040AD8A401D001D06CD075D074D025
:1016380069D04C50050AD8A401D001D00FD00001C0
:101648000001BC51050AD8A401D001D007D0216EF1
:10165800010E00010001BD6F215000D04CC0BCF04C
:101668005BD04C50020AD8B401D001D007D04C50FE
:10167800050AD8A401D001D031D000D0170E00013E
:101688000001BB6501D001D01AD000010001ACC037
:10169800ADF000010001ABC0ACF000010001AAC030
:1016A800ABF000010001AA6BAAC012F0ABC013F0A6
:1016B800ACC014F0ADC015F0BCEC13F000D04CC0B9
:1016C800BCF0216E000E00010001BB6F2150216E9D
:1016D800000E00010001BD6F21501ED00001D890FE
:1016E8000001AA370001AB370001AC370001AD3764
:1016F8004C5000010001AA1300010001BB2B0CD0C3
:101708000BD00AD000010001BD51000AD8B491D70E
:10171800010AD8B4A6D700D01200000E1C6E000E25
:101728001D6E000E1E6E000E1F6E186E000E266EC9
:101738001850040E266401D001D002D01FD01ED04C
:101748002650010DF3501524D96E000E1620DA6EBE
:10175800DF500F6EF7EC19F0186E18501C12040EBB
:10176800D8901C361D361E361F36E82EF9D7262A85
:10177800040E266401D001D0E3D700D020EE05F096
:101788001550D9261650DA22DF50186ED00E1824BC
:10179800196E1A6AFF0E1A2219041A10D8A401D059
:1017A80001D009D00F0E1C12000E1D12000E1E12C1
:1017B800000E1F1200D020EE05F01550D926165045
:1017C800DA22DF50186ED00E1824196E1A6AFF0E2E
:1017D8001A221950020A1A10D8A401D001D009D02F
:1017E8000A0E1C12000E1D12000E1E12000E1F12F1
:1017F80000D01EEC1AF0186E000E1B6E185082D026
:101808001CC020F01DC021F01EC022F01FC023F014
:10181800186E000E246E1850030E246401D001D0F7
:1018280002D016D015D08982020E106E4E0E0F6EA1
:1018380075EC19F08992020E106E4E0E0F6E75EC53
:1018480019F0242A030E246401D001D0ECD700D06B
:10185800186E000E256E1850170E256401D001D0A1
:1018680002D040D03FD08982020E106E4E0E0F6E0D
:1018780075EC19F0899222AE01D001D007D0040E80
:10188800106E9C0E0F6E75EC19F007D0020E106EDC
:101898004E0E0F6E75EC19F000D08982020E106E94
:1018A8004E0E0F6E75EC19F0899222AE01D001D060
:1018B80007D0020E106E4E0E0F6E75EC19F007D0A1
:1018C800040E106E9C0E0F6E75EC19F000D0D890B7
:1018D8002036213622362336252A170E256401D0D4
:1018E80001D0C1D78982010E106E270E0F6E75ECDC
:1018F80019F089921B0E106E580E0F6E75EC19F0C8
:101908001B2A00D017501B5CD8A001D001D078D773
:1019180000D0A8EC19F01200000E236E000E246E01
:10192800000E256E000E266E186E000E276E1850DB
:10193800040E276401D001D002D027D026D027502A
:10194800010DF3501524D96E000E1620DA6EDF5003
:10195800186ED00E1824196E1A6AFF0E1A221B6A06
:101968001C6A195023121A5024121B5025121C509D
:101978002612D8902336243625362636272A040EF2
:10198800276401D001D0DBD700D0186E000E286E76
:101998001850040E286401D001D002D023D022D0E0
:1019A80020EE05F01550D9261650DA22DF50186EB1
:1019B800BF0E1824196E1A6AFF0E1A222850191819
:1019C8001A10D8A401D001D001D02380D890233692
:1019D800243625362636282A040E286401D001D05C
:1019E800DFD700D0D890233624362536263620EE89
:1019F80006F01550D9261650DA22310EDF6201D0D2
:101A080001D002D0238202D0238000D01EEC1AF02D
:101A1800186E000E1D6E185069D023C01EF024C029
:101A28001FF025C020F026C021F08982010E106E1B
:101A3800650E0F6E75EC19F08992040E106E2F0E5C
:101A48000F6E75EC19F0186E000E226E18500B0E02
:101A5800226401D001D002D041D040D089821FA693
:101A680001D001D007D0010E106E650E0F6E75EC17
:101A780019F007D0040E106E2F0E0F6E75EC19F0CA
:101A880000D089921FA601D001D007D0040E106E95
:101A98002F0E0F6E75EC19F007D0010E106E650E43
:101AA8000F6E75EC19F000D08982010E106E650E6C
:101AB8000F6E75EC19F08992040E106E2F0E0F6ED2
:101AC80075EC19F0D8901E361F3620362136222A9A
:101AD8000B0E226401D001D0C1D700D0270E106EA2
:101AE800100E0F6E75EC19F01D2A00D017501D5CF2
:101AF800D8A001D001D091D700D0A8EC19F01200DD
:101B0800CDD04150090AD8A401D001D0EAD0020EA4
:101B18003F24156E000E4020166E20EE08F042504D
:101B2800D9264350DA22DF50176E91EC0BF0D9D04A
:101B3800D8D04150070AD8A401D001D0D2D0020E83
:101B48003F24156E000E4020166E20EE0CF0425019
:101B5800D9264350DA22DF50176E76EC0EF0C1D04A
:101B6800C0D00C0E416401D001D0BBD00F0E416033
:101B780001D001D0B6D0020E3F24156E000E4020D1
:101B8800166E20EE0BF04250D9264350DA22DF5071
:101B9800176E86EC06F0A5D0A4D041500A0AD8A446
:101BA80001D001D09ED0020E3F24156E000E4020B9
:101BB800166E20EE0DF04250D9264350DA22DF503F
:101BC800176E90EC0CF08DD08CD0030E416401D0D0
:101BD80001D087D0030E415E20EE03F04250D92693
:101BE8004350DA22DF50D8B401D001D00DD0020E14
:101BF8003F24186E000E4020196E000E1B6E410E19
:101C08001A6E7CEC15F000D0020E3F24166E000E02
:101C18004020176E41C018F020EE05F04250D9263A
:101C28004350DA22DF50196E20EE02F04250D926D6
:101C38004350DA22DF501A6E25EC12F052D051D000
:101C48007E0E116E5E0E106E32EC18F00001606FA1
:101C58000A0E0F6E00016051A2EC18F042D0020E7D
:101C68003F24396E000E40203A6E4150FE0F3B6E05
:101C780042C03CF043C03DF072EC00F032D0FF00AF
:101C880030D01EEC1AF08982130E106E880E0F6E7B
:101C980022EC19F0A8EC19F024D023D020EE01F0A2
:101CA8003F50D9264050DA22DF50210AD8B4E9D76C
:101CB800630AD8B48AD7050AD8B423D70C0AD8B48B
:101CC8006CD7050AD8B44DD71E0AD8B4B9D7030AB9
:101CD800D8B4C5D7040AD8B42CD70F0AD8B4CFD7EC
:101CE80000D0120015C0D9FF16C0DAFFDF50BF0FB1
:101CF8000F6EE4EC18F0186E18501C6E1D6A1C501C
:101D08001D6E1C6A20EE01F01550D9261650DA22F5
:101D1800DF50186ED00E18240F6E106AFF0E1022B6
:101D2800000E126E0A0E116E03EC19F00FC01FF0B0
:101D380010C020F020EE02F01550D9261650DA22F5
:101D4800DF50186ED00E1824196E1A6AFF0E1A2268
:101D580019501F261A5020221F06D8A020061FC07F
:101D68000FF0E4EC18F0186E18501F6E206A1F3A36
:101D7800203AF00E20161F500F0B2012F00E1F16DF
:101D88001F501C2620501D2220EE03F01550D92686
:101D98001650DA22DF50186ED00E1824196E1A6AFF
:101DA800FF0E1A221A501910D8B401D001D003D04E
:101DB800070E1C1200D01EEC1AF0186E000E1B6ED7
:101DC80018505FD01CC01FF01DC020F08982010E82
:101DD800106E100E0F6E75EC19F08992050E106ECC
:101DE800A20E0F6E75EC19F0186E000E1E6E1850CC
:101DF8000B0E1E6401D001D002D03BD03AD020A6F1
:101E080001D001D00FD08982040E106E840E0F6E9F
:101E180075EC19F08992020E106E2E0E0F6E75EC8D
:101E280019F00FD08982010E106E100E0F6E75EC2E
:101E380019F08992050E106EA20E0F6E75EC19F04E
:101E480000D08982010E106E100E0F6E75EC19F01D
:101E58008992050E106EA20E0F6E75EC19F0D890CF
:101E68001F3620361E2A0B0E1E6401D001D0C7D79C
:101E780000D02C0E106EEC0E0F6E75EC19F01B2AAC
:101E880000D017501B5CD8A001D001D09BD700D040
:101E9800A8EC19F01200216E040E4F6E21501F504D
:101EA800D8B401D001D023D0050E206401D001D0D0
:101EB80014D0140E206001D001D00FD050C021F0F2
:101EC800010E226E212A02D0D8902236212EFCD76C
:101ED8002250FF0A5116502A46D0216E000E506E2D
:101EE8002150216E020E4F6E21503DD03CD00C0E79
:101EF800206401D001D014D0170E206001D001D089
:101F08000FD050C021F0010E226E212A02D0D890A5
:101F18002236212EFCD72250FF0A5116502A23D0F0
:101F28003C0E206401D001D013D0640E206001D093
:101F380001D00ED050C021F0010E226E212A02D00D
:101F4800D8902236212EFCD722505112502A0BD07D
:101F5800216E000E506E2150216E020E4F6E2150E0
:101F680002D001D000D0030E506401D001D02AD095
:101F7800516601D001D005D0216E060E4F6E21505A
:101F88001CD05150080AD8A401D001D005D0216E28
:101F9800000E4F6E215011D05150020AD8A401D022
:101FA80001D005D0216E010E4F6E215006D0216E52
:101FB800020E4F6E215001D000D0216E000E506EDF
:101FC800215000D04F50040AD8A401D001D002D02B
:101FD80032D031D04F50020AD8A401D001D01AD043
:101FE8001F0E00010001BE6501D001D00BD0AEC0AC
:101FF80012F0AFC013F0B0C014F0B1C015F090ECFF
:1020080011F000D0216E000E00010001BE6F2150BA
:1020180012D011D00001D8900001AE370001AF37BF
:102028000001B0370001B1374F5000010001AE1375
:1020380000010001BE2B1200280E0001000171658D
:1020480001D001D01ED0500E00010001716101D0F5
:1020580001D017D000010001B751040AD8A401D05B
:1020680001D007D0416E010E00010001B76F415049
:1020780034D0416E040E00010001B76F41502DD0DD
:102088002CD0640E00010001716501D001D01DD073
:102098008C0E00010001716101D001D016D0000141
:1020A8000001B751040AD8A401D001D007D000011B
:1020B8000001B86701D001D008D000D0416E000EF1
:1020C80000010001B76F415008D0416E020E0001B7
:1020D8000001B76F415001D000D000010001B75195
:1020E800040AD8B401D001D075D069D068D00001F5
:1020F8000001B751020AD8B401D001D01AD00001AA
:10210800D890B93700010001B75100010001B91397
:1021180000010001B9510F0B0C0AD8A401D001D05D
:1021280059D0416E010E00010001BA6F415052D0E2
:1021380051D0416E000E00010001B96F41504AD0E4
:1021480049D000010001B751020AD8A401D001D03A
:1021580020D000010001B851200AD8A401D001D034
:102168000BD0A6C039F0A7C03AF0A8C03BF0A9C070
:102178003CF038EC04F000D0416E000E0001000184
:10218800B86F4150416E000E00010001BA6F415016
:1021980021D00001D8900001A6370001A73700011F
:1021A800A8370001A93700010001B751000100015B
:1021B800A61300010001B82B0DD00CD00BD00001E4
:1021C8000001BA51000AD8B492D7010AD8B4B9D7D5
:1021D80001D000D012001850D8B401D001D041D09D
:1021E8001F0E196401D001D018D0290E196001D032
:1021F80001D013D000010001B651D8B401D001D0EC
:1022080007D04B50070AD8A401D001D006D000D07F
:102218001A6E010E4B6E1A5049D00E0E196401D079
:1022280001D018D0160E196001D001D013D00001CA
:102238000001B651D8B401D001D007D04B50080ADC
:10224800D8A401D001D006D000D01A6E000E4B6E73
:102258001A502CD01A6E020E4B6E1A5027D026D068
:1022680025D01F0E196401D001D00AD0290E19609B
:1022780001D001D005D01A6E080E4B6E1A5016D038
:102288000E0E196401D001D00AD0160E196001D0C3
:1022980001D005D01A6E070E4B6E1A5007D01A6E71
:1022A800020E4B6E1A5002D001D000D04B04D8B4A5
:1022B80001D001D005D04B6601D001D00FD000D09D
:1022C800000100010001D890B237B3374B5000012C
:1022D8000001B21300010001B62B1DD04B50020AB9
:1022E800D8A401D001D017D000010001B6510D0AC1
:1022F800D8A401D001D007D0B2C012F0B3C013F0F7
:1023080036EC17F000D01A6E000E00010001B66F0F
:102318001A5001D000D012007F0E116EFC0E106E04
:1023280032EC18F0166E000E1A6E1650050E1A646E
:1023380001D001D002D029D028D0000E12141B6E73
:10234800000E13141C6E000E14141D6EF00E1514DE
:102358001E6E040ED8901236133614361536E82E33
:10236800F9D71C0E166ED8901E321D321C321B3245
:10237800162EF9D71BC010F0E5EC19F01A2A050E35
:102388001A6401D001D0D9D700D0000E12141B6EE8
:10239800000E13141C6E000E14141D6EFF0E15147F
:1023A8001E6E180E166ED8901E321D321C321B324D
:1023B800162EF9D71BC016F01CC017F01DC018F058
:1023C8001EC019F0070E05D0D890193218321732EE
:1023D8001632E82EF9D71650030B300F0F6EA2EC09
:1023E80018F01BAA01D001D007D0166E310E0F6E5F
:1023F8001650A2EC18F006D0166E300E0F6E16505E
:10240800A2EC18F01B500F0B106EE5EC19F01BA88E
:1024180001D001D007D0166E310E0F6E1650A2EC07
:1024280018F006D0166E300E0F6E1650A2EC18F08B
:10243800166E0A0E0F6E1650A2EC18F029EC1AF060
:10244800120019C01BF0070E1B16050E1C6ED89043
:102458001B361C2EFCD718501F0B1B101E6E1EC0DF
:102468001DF01B6E000E1F6E1B500CD01F50010D6F
:10247800F3501624D96E000E1720DA6EDF501D2691
:102488001F2A00D018501F5CD8A001D001D0EED769
:1024980000D01EEC1AF01B6E000E206E1B5058D098
:1024A8001B6E000E216E1B50010E216401D001D05D
:1024B80002D00ED00DD01B6E530E136E1B50D4ECF1
:1024C80017F0212A010E216401D001D0F4D700D0E1
:1024D8001EC013F0D4EC17F01B6E000E226E1B50BA
:1024E8000ED02250010DF3501624D96E000E17207D
:1024F800DA6EDF50136ED4EC17F0222A00D0185091
:10250800225CD8A001D001D0ECD700D01DC013F0B8
:10251800D4EC17F08972010E106EF40E0F6E75EC84
:1025280019F08992FF0E1A241B6E1C6AFF0E1C22DA
:1025380020501B181C10D8B401D001D007D00B0EA6
:10254800106EB80E0F6E75EC19F000D0202A00D06E
:102558001A50205CD8A001D001D0A2D700D0A8EC96
:1025680019F012002C6E000E346E2C502C6E000EDA
:10257800386E2C50000E2A5C800E2B58D8A001D043
:1025880001D011D02C6E2D0E2D6E2C502C6E010EFC
:10259800346E2C502C6E010E386E2C502A6C2B1E6B
:1025A800D8B02B2A00D02AC035F02BC036F010D076
:1025B800382A35C00FF036C010F0000E126E0A0E21
:1025C800116E6DEC17F00FC035F010C036F000D06A
:1025D8000A0E355C000E3658D8B001D001D0E8D7C5
:1025E80038C037F025D03750010D2D0EF324D96EA1
:1025F800DA6A000EDA222AC00FF02BC010F0000EA3
:10260800126E0A0E116E04EC18F00F50300FDF6EC8
:102618002AC00FF02BC010F0000E126E0A0E116EB9
:102628006DEC17F00FC02AF010C02BF0370600D061
:102638003450D89037AE375CD8B0D880D8B001D0F5
:1026480001D0D1D700D038C02CF0010E2C262D0E89
:102658002C24D96EDA6A000EDA22000EDF6E000E24
:10266800116E2D0E106E32EC18F01200236E000E53
:10267800256E235022AE01D001D00DD0221E211E7E
:10268800201E1F6C000E202221222222236E010E02
:10269800256E235000D01EAE01D001D00BD01E1ED7
:1026A8001D1E1C1E1B6C000E1C221D221E22010E4C
:1026B800251A00D0000E266E000E276E000E286E1A
:1026C800000E296E22501F1020102110D8B401D0FE
:1026D80001D036D0236E010E246E235007D0D89037
:1026E8001F36203621362236242A00D022AE01D0C9
:1026F80001D0F5D701D000D0D89026362736283615
:1027080029361F501B5C20501C5821501D58225040
:102718001E58D8A001D001D00AD01F501B5E2050EF
:102728001C5A21501D5A22501E5A268000D0D8907B
:102738002232213220321F32242EDED701D000D09F
:102748002550D8B401D001D009D0291E281E271E33
:10275800266C000E27222822292200D026C01BF032
:1027680027C01CF028C01DF029C01EF000D01200A0
:102778007F0E116EF90E106E32EC18F0166E000E08
:102788001E6E1650040E1E6401D001D002D029D04E
:1027980028D0000E12141A6E000E13141B6E000EB1
:1027A80014141C6EF00E15141D6E040ED8901236FB
:1027B800133614361536E82EF9D71C0E166ED89037
:1027C8001D321C321B321A32162EF9D71AC010F0DD
:1027D800E5EC19F01E2A040E1E6401D001D0D9D7E9
:1027E80000D0000E1214166E000E1314176E000E91
:1027F8001414186EF00E1514196E1950F00A1610EC
:1028080017101810D8A401D001D007D0166E310EB9
:102818000F6E1650A2EC18F023D0000E1214166E8C
:10282800000E1314176E000E1414186EF00E151403
:10283800196E1950A00A161017101810D8A401D034
:1028480001D007D0166E320E0F6E1650A2EC18F09B
:1028580007D0166E300E0F6E1650A2EC18F000D08E
:10286800166E0A0E0F6E1650A2EC18F029EC1AF02C
:102878001200176E000E196E175012AE01D001D05B
:102888000DD0121E111E101E0F6C000E10221122E8
:102898001222176E010E196E175000D016AE01D015
:1028A80001D009D0161E151E141E136C000E14221A
:1028B8001522162200D01650131014101510D8B473
:1028C80001D001D030D0176E010E186E175007D006
:1028D800D8901336143615361636182A00D016AE88
:1028E80001D001D0F5D701D000D013500F5C14509F
:1028F80010581550115816501258D8A001D001D0B0
:1029080009D013500F5E1450105A1550115A165012
:10291800125A00D0D8901632153214321332182EAB
:10292800E4D701D000D01950D8B401D001D009D0D3
:10293800121E111E101E0F6C000E102211221222E0
:1029480000D00FC00FF010C010F011C011F012C06D
:1029580012F000D012000FC0D9FF10C0DAFF0E0E1F
:10296800DF6E20EE01F00F50D9261050DA22010E4A
:10297800DF6E20EE02F00F50D9261050DA22020E38
:10298800DF6E20EE03F00F50D9261050DA22000E29
:10299800DF6E20EE04F00F50D9261050DA22010E17
:1029A800DF6E20EE05F00F50D9261050DA22020E05
:1029B800DF6E20EE06F00F50D9261050DA22010EF5
:1029C800DF6E20EE07F00F50D9261050DA22010EE4
:1029D800DF6E20EE08F00F50D9261050DA22060ECE
:1029E800DF6E20EE09F00F50D9261050DA22010EC2
:1029F800DF6E20EE0AF00F50D9261050DA22010EB1
:102A0800DF6E20EE0BF00F50D9261050DA22050E9B
:102A1800DF6E20EE0CF00F50D9261050DA22080E87
:102A2800DF6E20EE0DF00F50D9261050DA22060E78
:102A3800DF6E1200136E000E156E135012AE01D029
:102A480001D009D0116C121ED8B0122A136E010ED3
:102A5800156E135000D010AE01D001D007D00F6C06
:102A6800101ED8B0102A010E151A00D0000E176ECD
:102A7800000E166E12501110D8B401D001D028D013
:102A8800136E010E146E135005D0D89011361236FD
:102A9800142A00D012AE01D001D0F7D701D000D04F
:102AA800D8901636173611500F5C12501058D8A00F
:102AB80001D001D006D011500F5E1250105A168066
:102AC80000D0D89012321132142EEAD701D000D09B
:102AD8001550D8B401D001D005D0166C171ED8B047
:102AE800172A00D016C00FF017C010F000D012003F
:102AF8001C6E000E206E1C503DD02050010DF3506E
:102B08001824D96E000E1920DA6EDF500F6EF7EC1C
:102B180019F01C6E1C38F00B1F6E20C01CF0010E43
:102B28001C261C5018241D6EE86A1CBEE868192073
:102B38001E6E1DC0D9FF1EC0DAFFDF500F6EF7EC06
:102B480019F01F2620C00FF0106A000E126E020E38
:102B5800116E1EEC15F00F5018241C6E000E192073
:102B68001D6E1CC0D9FF1DC0DAFF1FC0DFFF020E9B
:102B7800202600D01AC0D9FF1BC0DAFFDF50205C26
:102B8800D8A001D001D0B9D700D01AC0D9FF1BC036
:102B9800DAFFD890DF321200116E000E186E115055
:102BA800000E176E000E166E000E156E000E146ED7
:102BB8001550800A7D0FE80ED8B4145CD8A001D057
:102BC80001D002D038D037D0030EC21200D0C2B222
:102BD80001D001D0FCD700D0C350C4CF11F0126A85
:102BE80011C012F0116A1110166E1250176E1734B8
:102BF800173216321734173216321850116E126AFD
:102C08001250800A136E1650115C1750800A135820
:102C1800D8B001D001D003D016C018F000D0144AA3
:102C2800152A1550800A7D0FE80ED8B4145CD8A078
:102C380001D001D0C9D718C00FF0106A120012C015
:102C4800D9FF13C0DAFFDF501F0B1A6E7F0E116E0B
:102C5800F00E106E32EC18F0156E010E1B6E15504A
:102C680021D01450D8B401D001D00DD01B50010D83
:102C7800F3501224D96E000E1320DA6EDF50116E55
:102C880012EC1AF00DD01B50010DF3501224D96E1E
:102C9800000E1320DA6EDF500F6EA2EC18F000D091
:102CA8001B2A00D01A50156E166A010E1526000E42
:102CB80016221B50176E186A1850800A196E155084
:102CC800175C1650800A1958D8A001D001D0C9D76E
:102CD80000D0156E0A0E0F6E1550A2EC18F029ECF4
:102CE8001AF01200000E186E000E196E000E1A6E01
:102CF800000E1B6E1650131014101510D8B401D006
:102D080001D035D0176E010E1C6E175007D0D89021
:102D180013361436153616361C2A00D016AE01D0D6
:102D280001D0F5D701D000D0D890183619361A3608
:102D38001B3613500F5C145010581550115816506C
:102D48001258D8A001D001D00AD013500F5E1450E9
:102D5800105A1550115A1650125A188000D0D8908F
:102D680016321532143213321C2EDED700D018C09A
:102D78000FF019C010F01AC011F01BC012F01200A9
:102D8800000E0F6E480E106EE80E116E010E126ED8
:102D98001DC013F01EC014F01FC015F020C016F09F
:102DA80076EC16F0050E05D0D8901232113210329A
:102DB8000F32E82EF9D7FF0E0F24216EFF0E1020D8
:102DC800226EFF0E1120236EFF0E1220246E240E99
:102DD800AC6E900EAB6E000EB86E21C0AFFFF28CD9
:102DE800300E9D12000E456E45C044F044C047F0B9
:102DF80047C046F0120023C0D9FF24C0DAFFDF50D5
:102E08001F0B296E23C0D9FF24C0DAFFDF50276EBD
:102E1800050E286ED8902732282EFCD727502A6E08
:102E28002A50D8B401D001D01CD0070E2A6001D096
:102E380001D002D02A0600D0010E2324166E000EFF
:102E48002420176E29C018F02AC019F020EE02F0CD
:102E58002550D9262650DA22DF501A6E25EC12F0BA
:102E680000D012007F0E116EF30E106E32EC18F0C7
:102E7800146E000E176E1450020E176401D001D0A4
:102E880002D01ED01DD0000E1214156E0F0E131492
:102E9800166E123A133AF00E131612500F0B131245
:102EA800F00E12161650156E166A15C010F0E5ECE5
:102EB80019F0172A020E176401D001D0E4D700D008
:102EC800146E0A0E0F6E1450A2EC18F029EC1AF0CA
:102ED8001200000E166E000E156E12501110D8B4A6
:102EE80001D001D027D0136E010E146E135005D0F7
:102EF800D89011361236142A00D012AE01D001D063
:102F0800F7D701D000D0D8901536163611500F5C7F
:102F180012501058D8A001D001D006D011500F5E21
:102F28001250105A158000D0D89012321132142E37
:102F3800EAD700D015C00FF016C010F01200000E2E
:102F4800176E000E186E000E196E000E1A6E00D065
:102F58000FA001D001D009D0135017261450182201
:102F68001550192216501A2200D0D890133614364C
:102F780015361636D8901232113210320F321250DE
:102F88000F1010101110D8A401D001D0E1D717C02C
:102F98000FF018C010F019C011F01AC012F012008A
:102FA800146E000E156E1450070E156401D001D072
:102FB80002D025D024D013AE01D001D00FD0897211
:102FC800010E106EF40E0F6E75EC19F08972010E79
:102FD800106EF40E0F6E75EC19F008D08972030E9E
:102FE800106EE80E0F6E75EC19F000D0D8901336FD
:102FF800152A070E156401D001D0DDD700D01200C4
:1030080012501110D8B401D001D023D0136E010E84
:10301800146E135005D0D89011361236142A00D0E9
:1030280012AE01D001D0F7D701D000D011500F5CFB
:1030380012501058D8A001D001D005D011500F5E01
:103048001250105A00D0D89012321132142EEED7E6
:1030580000D00FC00FF010C010F0120014D01050A4
:10306800F66EE96E0F0EEA6E1150EA6403D0EA6E4E
:10307800EF5003D0F76E0800F5500F6EA2EC18F071
:10308800104A112A00D01050F66EE96E0F0EEA6E43
:103098001150EA6403D0EA6EEF5003D0F76E0800CF
:1030A800F5500009D8A401D001D0D9D700D012001A
:1030B800146E000E156E145013D030EC1AF015C0B3
:1030C8000FF0106A1550010DF3501224D96E000E3E
:1030D8001320DA6EDF50116E90EC19F0152A00D02B
:1030E80012C0D9FF13C0DAFFDF50155CD8A001D099
:1030F80001D0E3D700D01200136E000E146E1350E7
:1031080010D01450010DF3501124D96E000E122066
:10311800DA6E14C00FF0106A05EC1AF0DF6E142A8C
:1031280000D0000E106E000E0F6E05EC1AF0145C45
:10313800D8A001D001D0E5D700D01200F29E4628D1
:103148007F0B4718D8A401D001D008D0F28E00D048
:103158009DB801D001D0FCD7F29E00D04650010D99
:103168000101800EF324D96EDA6A0101010EDA2218
:103178000FC0DFFF46287F0B466E9D88F28E120037
:10318800146E000E156E1450040E156401D001D093
:1031980002D015D014D08B7A8BBA01D002D08B888C
:1031A80001D08B98000E106E640E0F6E22EC19F091
:1031B800152A040E156401D001D0EDD700D01200F5
:1031C800106E000E116E10500FA001D001D002D069
:1031D800118600D00FA201D001D002D0118400D0F6
:1031E8000FA401D001D002D0118200D00FA601D0C7
:1031F80001D002D0118000D0115000D01200000E72
:10320800146E000E136E00D00FA001D001D005D0AF
:10321800115013261250142200D0D89011361236AD
:10322800D89010320F3210500F10D8A401D001D00E
:10323800EBD713C00FF014C010F01200000E136E7D
:10324800000E126E0AD00B0E116E620EE82EFED71B
:10325800112EFCD700F0124A132A1350800A116E5F
:103268000F50125C1050800A1158D8A001D001D01C
:10327800EAD700D0120001EE00F011EE00F0EE6A7D
:10328800E550E150FCE1E250FAE100EEA6F03A0E1A
:10329800EE6AE806FDE100EE44F00E0EEE6AE8067E
:1032A800FDE1000EF86E000127EF08F0800E946E25
:1032B800000E936E060E926E000EC26E000E7E6EAB
:1032C800000E7F6E790ECD6E000ED16E040E7E6EEE
:1032D800000E7F6E090EC26E000EC16EBE0EC06E6D
:1032E80012000FC011F010C012F0111E121E114A68
:1032F800122AFF0E11240F6EFF0E1220106E0FC03F
:10330800CEFF1050CF6ECD8000D09EA001D001D04E
:10331800FCD7CD909E9012001050030BAA6E0FC0E0
:10332800A9FF11C0A8FFA69EA69CA684F29E550ED2
:10333800A76EAA0EA76EA68200D0A6B201D001D0B1
:10334800FCD7F28EA694120037EC1AF0000E106E1D
:10335800030E0F6E22EC19F089908B987F0E116E78
:10336800EC0E106E32EC18F0146E0A0E0F6E14503C
:10337800A2EC18F01200F29E4550010D0101000E5A
:10338800F324D96EDA6A0101010EDA22DF500F6EDA
:1033980045287F0B456EF28E0F5000D01200ABA26D
:1033A80001D001D005D0AB98AB88000E09D008D069
:1033B8004550446201D002D0010E01D0000E00D069
:1033C80012000A0E106001D001D006D01050300F44
:1033D8000F6EA2EC18F006D01050370F0F6EA2EC4B
:1033E80018F000D012003A0E0F6001D001D003D0BF
:1033F800300E0F5E03D0370E0F5E00D00F5000D096
:1034080012001050030BAA6E0FC0A9FFA69CA69E1F
:10341800A68000F000F0A85000D0120011380F0B61
:103428000F0B106EE5EC19F011500F0B106EE5EC58
:1034380019F012008B888980000E106E030E0F6E33
:1034480022EC19F03AEC1AF012008B8A000EB36ED7
:10345800000EB26EB180120000D0A6B201D001D029
:10346800FCD700D01200060E926E1200040E926E67
:02347800120040
:107E5E004D756C7469545258204857494420312E40
:107E6E00302C204657494420312E32202D20736B62
:107E7E0061676D6F2E636F6D002D2D2D2D2D2D2DA8
:107E8E002D2D2053657474696E6773202D2D2D2D45
:107E9E002D2D2D2D2D2D00205B465D204C6F616408
:107EAE002064656661756C747300205B4C5D2045C3
:107EBE004550524F4D206C6F616400205B535D2026
:107ECE00454550524F4D207361766500205B485DED
:107EDE0020486F70732020203D2000205B415D20E4
:107EEE0053656E647320203D2000205B4B5D205354
:107EFE00656E647320203D2000205B4D5D20536530
:107F0E006E647320203D2000205B575D2053656E0C
:107F1E00647320203D2000205B585D2053656E6405
:107F2E007320203D200020437572722E2052535331
:107F3E0049203D2000205B425D20456E2E20525888
:107F4E00203D2000205B445D20456E2E205258209F
:107F5E003D2000205B455D20456E2E205258203D71
:107F6E002000205B475D20456E2E205258203D207C
:107F7E0000205B4E5D20456E2E205258203D200085
:107F8E00205B525D20526570656174203D2000209B
:107F9E005B435D20496E20686578203D20004B6173
:107FAE006E67746861693A0053657474696E6773BD
:107FBE003A00576176656D616E3A004F746865726E
:107FCE003A004E6578613A00457369633A00446F32
:107FDE00726F3A00424D433A0047414F3A00244FE8
:107FEE004B00244200244400244500244700244E24
:027FFE00000081
:00000001FF
