:040000000CEF00F011
:10000800FACF48F1FBCF49F1E9CF4AF1F5EF1EF0FD
:1000180000EE00F010EE8AF014EC00F0BBEF0CF0EC
:0E002800EE6AE550E150FCE1E250FAE1120010
:100F000000634D756C746954525820485749442009
:100F1000312E302C205357494420312E30202D20A3
:100F2000736B61676D6F2E636F6D00244F4B0024F0
:100F30004E002452002447002445002444000000B1
:100F40000101196F040E00010001656F01011951C3
:100F5000010101011751D8B4B0EF07F0B2EF07F06B
:100F6000F3EF07F0140E010101011865BAEF07F065
:100F7000BCEF07F0E1EF07F02D0E01010101186150
:100F8000C4EF07F0C6EF07F0E1EF07F069C019F111
:100F9000010E01011A6F0101192BD2EF07F0D89051
:100FA00001011A370101192FCFEF07F001011A5182
:100FB000FF0A000100017B1700010001692BF1EF1E
:100FC00007F00101196F000E00010001696F0101B6
:100FD00019510101196F020E00010001656F010135
:100FE000195160EF08F0140E010101011865FBEFC3
:100FF00007F0FDEF07F022EF08F02D0E01010101CF
:10100000186105EF08F007EF08F022EF08F069C05B
:1010100019F1010E01011A6F0101192B13EF08F0EC
:10102000D89001011A370101192F10EF08F00101C2
:101030001A51FF0A000100017B1700010001692B12
:1010400060EF08F03C0E0101010118652AEF08F07D
:101050002CEF08F050EF08F05A0E01010101186161
:1010600034EF08F036EF08F050EF08F069C019F1DE
:10107000010E01011A6F0101192B42EF08F0D890FF
:1010800001011A370101192F3FEF08F001011A5130
:10109000000100017B1300010001692B60EF08F0E3
:1010A0000101196F000E00010001696F0101195162
:1010B0000101196F020E00010001656F0101195154
:1010C000030E00010001696568EF08F06AEF08F09F
:1010D000B7EF08F0000100017B6771EF08F073EFD4
:1010E00008F07DEF08F00101196F050E0001000105
:1010F000656F01011951AFEF08F0000100017B514C
:10110000080AD8A486EF08F088EF08F092EF08F0FC
:101110000101196F000E00010001656F01011951F5
:10112000AFEF08F0000100017B51020AD8A49BEF49
:1011300008F09DEF08F0A7EF08F00101196F010E0C
:1011400000010001656F01011951AFEF08F00101C5
:10115000196F020E00010001656F010119510101B3
:10116000196F000E00010001696F010119510001A2
:1011700000016551040AD8B4C0EF08F0C2EF08F0CE
:1011800069EF09F05FEF09F0000100016551020A03
:10119000D8B4CDEF08F0CFEF08F0EFEF08F0000182
:1011A00000016551050AD8A4D8EF08F0DAEF08F07D
:1011B000EDEF08F0000100018851050AD8A4E3EF23
:1011C00008F0E5EF08F0EDEF08F00101196F010EEE
:1011D00000010001876F0101195165C088F069EFB6
:1011E00009F0000100016551020AD8A4FAEF08F0E5
:1011F000FCEF08F00EEF09F00101196F000E00017D
:101200000001896F010119510101196F000E0001E0
:101210000001876F0101195121EF09F00001D890F9
:1012200000016E3700016F37000170370001713720
:10123000000100016551000100016E130001000171
:10124000892B000100018951190AD8A42AEF09F05D
:101250002CEF09F0EFEF08F00001000170C071F011
:10126000000100016FC070F0000100016EC06FF05E
:10127000000100016E6B0101196F000E01010101F7
:101280001F6F010119516EC01BF16FC01CF170C0BE
:101290001DF171C01EF118EC16F00101196F000E5E
:1012A00000010001896F010119510101196F000E40
:1012B00000010001876F0101195169EF09F0000178
:1012C00000018751000A01E15FD7010A8AE069EF56
:1012D00009F00101196F040E000100017D6F010189
:1012E0001951010101011751D8B479EF09F07BEFD1
:1012F00009F0BCEF09F0050E01010101186583EF4B
:1013000009F085EF09F0AAEF09F0140E01010101BF
:1013100018618DEF09F08FEF09F0AAEF09F068C0AE
:1013200019F1010E01011A6F0101192B9BEF09F050
:10133000D89001011A370101192F98EF09F0010126
:101340001A51FF0A000100017A1700010001682B01
:10135000BAEF09F00101196F000E00010001686F7A
:10136000010119510101196F020E000100017D6F89
:101370000101195129EF0AF00C0E01010101186554
:10138000C4EF09F0C6EF09F0EBEF09F0170E010109
:1013900001011861CEEF09F0D0EF09F0EBEF09F091
:1013A00068C019F1010E01011A6F0101192BDCEF60
:1013B00009F0D89001011A370101192FD9EF09F06E
:1013C00001011A51FF0A000100017A170001000112
:1013D000682B29EF0AF03C0E010101011865F3EFBB
:1013E00009F0F5EF09F019EF0AF0640E01010101AF
:1013F0001861FDEF09F0FFEF09F019EF0AF068C07E
:1014000019F1010E01011A6F0101192B0BEF0AF0FE
:10141000D89001011A370101192F08EF0AF00101D4
:101420001A51000100017A1300010001682B29EF15
:101430000AF00101196F000E00010001686F01013F
:1014400019510101196F020E000100017D6F0101A8
:101450001951030E00010001686531EF0AF033EF06
:101460000AF080EF0AF0000100017A673AEF0AF013
:101470003CEF0AF046EF0AF00101196F060E000179
:1014800000017D6F0101195178EF0AF000010001A0
:101490007A51080AD8A44FEF0AF051EF0AF05BEF37
:1014A0000AF00101196F000E000100017D6F0101BA
:1014B000195178EF0AF0000100017A51020AD8A40C
:1014C00064EF0AF066EF0AF070EF0AF00101196F9D
:1014D000010E000100017D6F0101195178EF0AF042
:1014E0000101196F020E000100017D6F0101195108
:1014F0000101196F000E00010001686F010119510F
:10150000000100017D51040AD8B489EF0AF08BEF85
:101510000AF0D8EF0AF0000100017D51020AD8A4B8
:1015200094EF0AF096EF0AF0A0EF0AF00101196FAC
:10153000000E00010001826F01011951B3EF0AF0A2
:101540000001D89000017237000173370001743731
:1015500000017537000100017D5100010001721387
:1015600000010001822B000100018251200AD8A451
:10157000BCEF0AF0BEEF0AF0D8EF0AF00101196FD4
:10158000010E010101011F6F0101195172C01BF110
:1015900073C01CF174C01DF175C01EF118EC16F07B
:1015A0000101196F000E00010001826F0101195144
:1015B000010101011751D8B4E0EF0AF0E2EF0AF09F
:1015C00028EF0BF01D0E010101011865EAEF0AF08A
:1015D000ECEF0AF000EF0BF0320E0101010118618F
:1015E000F4EF0AF0F6EF0AF000EF0BF00101196FCB
:1015F000010E00010001666F0101195126EF0BF089
:101600000A0E01010101186508EF0BF00AEF0BF05B
:101610001EEF0BF01E0E01010101186112EF0BF01D
:1016200014EF0BF01EEF0BF00101196F000E00011B
:101630000001666F0101195126EF0BF00101196FCE
:10164000020E00010001666F0101195159EF0BF004
:10165000320E01010101186130EF0BF032EF0BF097
:1016600047EF0BF00A0E0101010118653AEF0BF08C
:101670003CEF0BF047EF0BF0000100016651040A4C
:10168000D8A445EF0BF047EF0BF051EF0BF0010141
:10169000196F020E00010001666F0101195159EF27
:1016A0000BF00101196F040E00010001666F0101CA
:1016B0001951000100016605D8B461EF0BF063EF2A
:1016C0000BF06CEF0BF00001000166676AEF0BF0A6
:1016D0006CEF0BF07DEF0BF00001D89000017F372D
:1016E00000018037000100016651000100017F13F5
:1016F00000010001852BA1EF0BF0000100016651F4
:10170000020AD8A486EF0BF088EF0BF0A1EF0BF0E4
:101710000001000185510D0AD8A491EF0BF093EF61
:101720000BF099EF0BF07FC01BF180C01CF1CCECEB
:101730001FF00101196F000E00010001856F01010A
:1017400019511E0E010101011865A9EF0BF0ABEF55
:101750000BF0DAEF0BF05A0E010101011861B3EF43
:101760000BF0B5EF0BF0DAEF0BF0000100017C6736
:10177000BCEF0BF0BEEF0BF0C8EF0BF00101196FDF
:10178000010E000100017C6F01011951D8EF0BF02F
:101790000101196F010E00010001676F010119516C
:1017A0000101196F000E000100017C6F0101195148
:1017B0001AEF0CF05A0E010101011865E2EF0BF06F
:1017C000E4EF0BF00AEF0CF0960E01010101186135
:1017D000ECEF0BF0EEEF0BF00AEF0CF00101196FDC
:1017E000000E00010001676F0101195100010001A5
:1017F0007C51D8B4FEEF0BF000EF0CF008EF0CF0CA
:101800000101196F000E000100017C6F01011951E7
:101810001AEF0CF00101196F020E00010001676F51
:10182000010119510101196F000E000100017C6FC7
:1018300001011951000100017C6721EF0CF023EF39
:101840000CF0BAEF0CF0B0EF0CF0000100016751A2
:10185000020AD8B42EEF0CF030EF0CF04FEF0CF082
:101860000001D89083370001000167510001000199
:1018700083130001000183510F0B0C0AD8A443EF1E
:101880000CF045EF0CF04DEF0CF00101196F010E5B
:1018900000010001866F0101195157EF0CF00101A1
:1018A000196F000E00010001836F01011951BAEF99
:1018B0000CF0000100016751020AD8A462EF0CF09D
:1018C00064EF0CF076EF0CF00101196F000E0001CF
:1018D0000001846F010119510101196F000E00010F
:1018E0000001866F0101195189EF0CF00001D890B9
:1018F000000176370001773700017837000179372A
:101900000001000167510001000176130001000190
:10191000842B000100018451200AD8A492EF0CF01E
:1019200094EF0CF057EF0CF076C01BF177C01CF170
:1019300078C01DF179C01EF117EC11F00101196F8B
:10194000000E00010001846F010119510101196F9E
:10195000000E00010001866F01011951BAEF0CF071
:10196000000100018651000A01E16FD7010AA1E0E0
:10197000BAEF0CF0120020EC23F08990A1EC21F0DA
:10198000F8EC22F00101116F000E01010101026F5C
:10199000010111510101116F000E01010101016FDF
:1019A00001011151000E01010101046F000E01013E
:1019B000056FF28E000E80B2010E01010101026F6F
:1019C000010101010151010101010219D8B4EBEF3C
:1019D0000CF0EDEF0CF00AEF0DF00101D6CF04F1A1
:1019E00001010101056BF2A4F8EF0CF0FAEF0CF025
:1019F00002EF0DF0FF0E01010101046F000E010165
:101A0000056FF294000ED66E04C118F101C117F1F2
:101A1000A0EC07F002C101F1A1A211EF0DF013EF4C
:101A20000DF016EF0DF08B9AB190A1920050240AA0
:101A3000D8A41DEF0DF01FEF0DF013EF11F0000112
:101A400000016451D8B427EF0DF029EF0DF013EF2A
:101A500011F0000100010151470AD8A432EF0DF046
:101A600034EF0DF0F3EF0DF0000100016451070AAF
:101A7000D8A43DEF0DF03FEF0DF0F3EF0DF0000EA9
:101A800001010101086F000E0101096F000E010143
:101A90000A6F000E01010B6F0101116F020E0101AF
:101AA00001010C6F01011151060E010101010C65CC
:101AB0005CEF0DF05EEF0DF060EF0DF092EF0DF0CA
:101AC0000001000E010101010C25E96EEA6A000126
:101AD000000EEA22EF5001010101176FC8EC22F05D
:101AE0000101116F010111510101010108130101EF
:101AF000040ED890010108370101093701010A37A6
:101B000001010B37E82E79EF0DF0010101010C2BDB
:101B1000060E010101010C6590EF0DF092EF0DF042
:101B200060EF0DF0D00E0001000107250101116FDB
:101B30000101126BFF0E01011223010111051211A7
:101B4000D8A4A5EF0DF0A7EF0DF0B4EF0DF00F0E38
:101B5000010101010813000E01010913000E01012A
:101B60000A13000E01010B13D00E0001000107251E
:101B70000101116F0101126BFF0E0101122301011E
:101B80001151020A1211D8A4C8EF0DF0CAEF0DF0DE
:101B9000D7EF0DF00A0E010101010813000E01013B
:101BA0000913000E01010A13000E01010B1333EC9F
:101BB00023F00101116F060E010101011B6F0101EC
:101BC000115108C117F109C118F10AC119F10BC16E
:101BD0001AF1A8EC1BF087EC22F0000E00010001C6
:101BE000646F13EF11F0000100010151570AD8A4EE
:101BF000FCEF0DF0FEEF0DF078EF0EF000010001AC
:101C00006451050AD8A407EF0EF009EF0EF078EF43
:101C10000EF0000100010251BF0F01010101176F19
:101C20002BEC21F00101116F0101115101010101A2
:101C3000066F0101076B0101010106510101076FE8
:101C40000101066B000100010351D00F0A0DF3CF13
:101C500003F1000100010451D00F0101010103272C
:101C600001010101030703C117F12BEC21F0010170
:101C70000101036F0101033BF00E03170101010194
:101C80000351010101010627000E01010723D00EB7
:101C90000001000105250101116F0101126BFF0E0A
:101CA00001011223010112511111D8B45AEF0EF0A3
:101CB0005CEF0EF060EF0EF0070E0101010106135C
:101CC00033EC23F00101116F080E01010101196FBE
:101CD0000101115106C117F107C118F149EC1EF0BD
:101CE00087EC22F0000E00010001646F13EF11F089
:101CF0000001000101514E0AD8A481EF0EF083EFDC
:101D00000EF09FEF0FF00001000164510C0AD8B4EF
:101D10008CEF0EF08EEF0EF0A4EF0EF0000100013C
:101D200064510B0AD8A497EF0EF099EF0EF09FEFD5
:101D30000FF0000100010B51320AD8B4A2EF0EF0EF
:101D4000A4EF0EF09FEF0FF0000E01010101086FEC
:101D5000000E0101096F000E01010A6F000E010162
:101D60000B6F0101116F020E010101010D6F0101E5
:101D70001151070E010101010D65C1EF0EF0C3EF16
:101D80000EF0C5EF0EF0F7EF0EF00001000E0101AE
:101D900001010D25E96EEA6A0001000EEA22EF500A
:101DA00001010101176FC8EC22F00101116F01015F
:101DB00011510101010108130101040ED890010124
:101DC00008370101093701010A3701010B37E82EF5
:101DD000DEEF0EF0010101010D2B070E01010101E3
:101DE0000D65F5EF0EF0F7EF0EF0C5EF0EF0010107
:101DF000040ED890010108370101093701010A37A3
:101E000001010B37E82EF9EF0EF0000108C011F1C7
:101E10000101126B060ED890010111371237E82E1E
:101E20000BEF0FF0000E010111250101136FF40EED
:101E3000010112210101146F0101156B0101166BE3
:101E400001011351010101010813010114510101A4
:101E50000101091301011551010101010A130101D9
:101E60001651010101010B13D00E000100010925DB
:101E70000101116F0101126BFF0E0101122301011B
:101E800012511111D8B447EF0FF049EF0FF04CEF9A
:101E90000FF001010101088B0AC017F1C8EC22F014
:101EA0000101116F0101115101010101081300012C
:101EB00000010B51310AD8A460EF0FF062EF0FF070
:101EC00065EF0FF0010101010889000100010B51CC
:101ED000320AD8A46EEF0FF070EF0FF079EF0FF029
:101EE0000CC017F1C8EC22F001010101006F81EF75
:101EF0000FF00101116F000E01010101006F0101DE
:101F0000115133EC23F00101116F050E01010101A4
:101F10001C6F0101115100C11BF108C117F109C16A
:101F200018F10AC119F10BC11AF108EC18F087EC8D
:101F300022F0000E00010001646F13EF11F00001A8
:101F400000010151500AD8A4A8EF0FF0AAEF0FF03A
:101F5000BCEF0FF0000100016405D8A4B2EF0FF050
:101F6000B4EF0FF0BCEF0FF0F8EC22F0000E000120
:101F70000001646F13EF11F0000100010151520ADA
:101F8000D8A4C5EF0FF0C7EF0FF057EF10F0000126
:101F900000016405D8A4CFEF0FF0D1EF0FF057EF99
:101FA00010F0320E01010101416F0F0E0101426F6D
:101FB00069EC21F00101116F000E010101010E6FAA
:101FC00001011151070E010101010E65EAEF0FF049
:101FD000ECEF0FF0EEEF0FF047EF10F00101116F93
:101FE000000E01010101106F01011151030E0101E9
:101FF00001011065FEEF0FF000EF10F002EF10F09E
:1020000026EF10F0010101010E51040D0101010143
:102010001051F32401010101346F0101000EF4207D
:102020000101356F0CEC23F001010101176FDCECAD
:1020300020F001010101102B030E010101011065C7
:1020400024EF10F026EF10F002EF10F0070E010160
:1020500001010E612EEF10F030EF10F03AEF10F0AA
:102060000101116F2C0E01010101456F0101115198
:10207000E2EC22F0010101010E2B070E010101012A
:102080000E6545EF10F047EF10F0EEEF0FF0010195
:10209000116F0A0E01010101456F01011151E2ECBE
:1020A00022F0000E00010001646F13EF11F0000137
:1020B00000010151530AD8A460EF10F062EF10F054
:1020C000FDEF10F00001000164510A0AD8A46BEF83
:1020D00010F06DEF10F0FDEF10F0310E0001000177
:1020E000025F040E000100010203F3500001026FC1
:1020F0000101116F000E010101010F6F010111516A
:10210000030E010101010F6588EF10F08AEF10F056
:102110008CEF10F0E4EF10F0010101010F51020DFE
:10212000F3CF11F1040E010111270001000E01018E
:102130001125E96EEA6A0001000EEA22EF50010162
:102140000101176FC8EC22F00101126F01010101BA
:102150000F51020DF3CF13F1030E010113270001FC
:10216000000E01011325E96EEA6A0001000EEA2261
:10217000EF5001010101176FC8EC22F00101146F4B
:1021800001011439F00B0101122501010101196F40
:10219000000100010251010101010F2501010101AE
:1021A000176F0101186B0101183736EC22F001019D
:1021B00001010F2B030E010101010F65E2EF10F089
:1021C000E4EF10F08CEF10F02B0E01010101416FD4
:1021D0000F0E0101426F69EC21F00101116F0A0E2F
:1021E00001010101456F01011151E2EC22F0000EE5
:1021F00000010001646F13EF11F0000100010151B3
:10220000580AD8A406EF11F008EF11F013EF11F0FF
:10221000000100016405D8A410EF11F012EF11F0D5
:1022200013EF11F0FF00DAEF0CF00CEF00F00101FA
:10223000326F000E010101011F6F010132510101D6
:10224000326F000E01010101246F010132510101C1
:1022500001011B51010B01010101236F000E01015E
:1022600001011B5D000E01011C59000E01011D59E9
:10227000800E010101011E59D8A041EF11F043EF7A
:1022800011F04BEF11F00101326F010E010101015C
:10229000246F01013251000E01010101256F000E72
:1022A0000101266F000E0101276F400E0101286F0A
:1022B0000101326F000E01010101316F0101325144
:1022C0001D0E01010101316568EF11F06AEF11F097
:1022D0006CEF11F0B7EF11F001010101255101017F
:1022E00001011B15010101012D6F010101012651A1
:1022F000010101011C1501012E6F0101010127518E
:10230000010101011D1501012F6F0101010128517A
:10231000010101011E150101306F010130512D1124
:102320002E112F11D8B497EF11F099EF11F09FEF04
:1023300011F0010E01010101241B9FEF11F00101B9
:10234000010128350101283301012733010126331A
:102350000101253301010101312B1D0E0101010194
:102360003165B5EF11F0B7EF11F06CEF11F0000E21
:10237000010101011B15010101012D6F000E010179
:1023800001011C1501012E6F800E010101011D15B7
:1023900001012F6F030E010101011E150101306FB4
:1023A000170E0101326FD890010101013033010194
:1023B0002F3301012E3301012D330101322FD3EFD1
:1023C00011F001012D51060A2E112F113011D8A440
:1023D000ECEF11F0EEEF11F0B6EF13F00101010197
:1023E0002351010101012463F8EF11F0FAEF11F01C
:1023F000B6EF13F0000E010101011B1501010101EF
:102400002D6F000E010101011C1501012E6F000E40
:10241000010101011D1501012F6FF00E01010101E4
:102420001E150101306F1C0E0101326FD8900101A1
:102430000101303301012F3301012E3301012D330E
:102440000101322F16EF12F0010101012D510F0B86
:1024500001010101216F000E010101011B150101A4
:1024600001012D6F000E010101011C1501012E6FEC
:10247000000E010101011D1501012F6F0C0E01015C
:1024800001011E150101306F1A0E0101326FD89043
:1024900001010101303301012F3301012E3301010C
:1024A0002D330101322F47EF12F0010101012D29D7
:1024B00001010101206F000E010101011B15010145
:1024C00001012D6F000E010101011C1501012E6F8C
:1024D0007F0E010101011D1501012F6F000E010189
:1024E00001011E150101306F100E0101326FD890ED
:1024F00001010101303301012F3301012E330101AC
:102500002D330101322F77EF12F02DC122F1FE0E93
:10251000010101011B15010101012D6FFF0E0101D8
:1025200001011C1501012E6F000E010101011D1595
:1025300001012F6F000E010101011E150101306F15
:102540000101D8900101303301012F3301012E33F5
:1025500001012D332DC129F12EC12AF12FC12BF1FB
:1025600030C12CF10A0E01010101406F000E010182
:10257000416F000E0101426F000E0101436F000E1A
:10258000010101012925010101013C6FE70E010153
:1025900001012A2101013D6FFF0E010101012B21E3
:1025A00001013E6FFF0E010101012C2101013F6F6E
:1025B0002BEC20F03CC136F13DC137F13EC138F182
:1025C0003FC139F1800E010101013A6F000E010196
:1025D0003B6F000E01013C6F000E01013D6FB1EC3D
:1025E0001AF036C129F137C12AF138C12BF139C1AE
:1025F0002CF1380E01010101416F0F0E0101426FF4
:1026000069EC21F00101010121C136F10101010153
:10261000376BB7EC13F00101326F2C0E0101010191
:10262000456F01013251E2EC22F00101010120C1AC
:1026300036F101010101376BB7EC13F00101326F84
:102640002C0E01010101456F01013251E2EC22F033
:10265000010101012CAF2FEF13F031EF13F053EF15
:1026600013F00101326F2D0E01010101456F0101CF
:102670003251E2EC22F0FF0E01010101386FFF0E32
:102680000101396FFF0E01013A6FFF0E01013B6F2F
:102690000101290E01010101366F0101010E010145
:1026A000376F07EC22F00A0E010101013A6F000EAC
:1026B00001013B6F000E01013C6F000E01013D6FF7
:1026C00029C136F12AC137F12BC138F12CC139F1BA
:1026D000B1EC1AF036C136F137C137F1B7EC13F06F
:1026E0000101326F2E0E01010101456F01013251CE
:1026F000E2EC22F00A0E010101013A6F000E010125
:102700003B6F000E01013C6F000E01013D6F29C1BE
:1027100036F12AC137F12BC138F12CC139F170ECF7
:102720001DF036C136F137C137F1B7EC13F00101B6
:10273000326F2C0E01010101456F01013251E2ECB3
:1027400022F00101010122C136F101010101376BC3
:10275000B7EC13F00101326F0A0E01010101456F60
:1027600001013251E2EC22F042EC23F01200000EA3
:1027700001010101365D800E01013759D8A0C3EF78
:1027800013F0C5EF13F0DAEF13F001013C6F2D0EDB
:1027900001010101456F01013C51E2EC22F0010110
:1027A000FF0E0101361BFF0E0101371B0101010164
:1027B000364B372B0A0E01010101365D000E010177
:1027C0003759D8B0E6EF13F0E8EF13F0F3EF13F05A
:1027D000010101013651300F01010101456FE2ECA9
:1027E00022F015EF16F0640E01010101365D000EB6
:1027F00001013759D8B0FFEF13F001EF14F042EFA9
:1028000014F00A0E010101013F6F000E0101406F3B
:1028100036C13DF137C13EF184EC20F001010101E8
:102820003D51300F010101013B6F0A0E0101010111
:102830003F6F000E0101406F36C13DF137C13EF1DF
:1028400064EC1FF03DC136F13EC137F10A0E0101C3
:1028500001013F6F000E0101406F36C13DF137C1EC
:102860003EF184EC20F0010101013D51300F0101E6
:102870000101456FE2EC22F03BC145F1E2EC22F0B0
:1028800015EF16F0E80E01010101365D030E01019E
:102890003759D8B04EEF14F050EF14F0BAEF14F0EF
:1028A0000A0E010101013F6F000E0101406F36C1A8
:1028B0003DF137C13EF184EC20F0010101013D51B1
:1028C000300F010101013A6F0A0E010101013F6F52
:1028D000000E0101406F36C13DF137C13EF164EC9D
:1028E0001FF03DC136F13EC137F10A0E0101010171
:1028F0003F6F000E0101406F36C13DF137C13EF11F
:1029000084EC20F0010101013D51300F0101010172
:102910003B6F0A0E010101013F6F000E0101406F84
:1029200036C13DF137C13EF164EC1FF03DC136F1D7
:102930003EC137F10A0E010101013F6F000E010196
:10294000406F36C13DF137C13EF184EC20F001010A
:1029500001013D51300F01010101456FE2EC22F010
:102960003BC145F1E2EC22F03AC145F1E2EC22F044
:1029700015EF16F0100E01010101365D270E010161
:102980003759D8B0C6EF14F0C8EF14F05BEF15F06C
:102990000A0E010101013F6F000E0101406F36C1B7
:1029A0003DF137C13EF184EC20F0010101013D51C0
:1029B000300F01010101396F0A0E010101013F6F62
:1029C000000E0101406F36C13DF137C13EF164ECAC
:1029D0001FF03DC136F13EC137F10A0E0101010180
:1029E0003F6F000E0101406F36C13DF137C13EF12E
:1029F00084EC20F0010101013D51300F0101010182
:102A00003A6F0A0E010101013F6F000E0101406F94
:102A100036C13DF137C13EF164EC1FF03DC136F1E6
:102A20003EC137F10A0E010101013F6F000E0101A5
:102A3000406F36C13DF137C13EF184EC20F0010119
:102A400001013D51300F010101013B6F0A0E0101EF
:102A500001013F6F000E0101406F36C13DF137C1EA
:102A60003EF164EC1FF03DC136F13EC137F10A0E74
:102A7000010101013F6F000E0101406F36C13DF1C0
:102A800037C13EF184EC20F0010101013D51300FCE
:102A900001010101456FE2EC22F03BC145F1E2EC9E
:102AA00022F03AC145F1E2EC22F039C145F1E2EC05
:102AB00022F015EF16F00A0E010101013F6F000E22
:102AC0000101406F36C13DF137C13EF184EC20F089
:102AD000010101013D51300F01010101386F0A0E62
:102AE000010101013F6F000E0101406F36C13DF150
:102AF00037C13EF164EC1FF03DC136F13EC137F104
:102B00000A0E010101013F6F000E0101406F36C145
:102B10003DF137C13EF184EC20F0010101013D514E
:102B2000300F01010101396F0A0E010101013F6FF0
:102B3000000E0101406F36C13DF137C13EF164EC3A
:102B40001FF03DC136F13EC137F10A0E010101010E
:102B50003F6F000E0101406F36C13DF137C13EF1BC
:102B600084EC20F0010101013D51300F0101010110
:102B70003A6F0A0E010101013F6F000E0101406F23
:102B800036C13DF137C13EF164EC1FF03DC136F175
:102B90003EC137F10A0E010101013F6F000E010134
:102BA000406F36C13DF137C13EF184EC20F00101A8
:102BB00001013D51300F010101013B6F0A0E01017E
:102BC00001013F6F000E0101406F36C13DF137C179
:102BD0003EF164EC1FF03DC136F13EC137F10A0E03
:102BE000010101013F6F000E0101406F36C13DF14F
:102BF00037C13EF184EC20F0010101013D51300F5D
:102C000001010101456FE2EC22F03BC145F1E2EC2C
:102C100022F03AC145F1E2EC22F039C145F1E2EC93
:102C200022F038C145F1E2EC22F017EF16F0120065
:102C30001BC127F11CC128F11DC129F11EC12AF1B8
:102C4000010101011F51D8B428EF16F02AEF16F048
:102C500039EF16F0C00E010101012717FF0E010127
:102C60002817FF0E01012917FF0E01012A1746EF51
:102C700016F0000E010101012717000E01012817AF
:102C8000F00E01012917FF0E01012A1701012B6F18
:102C9000000E01010101226F01012B51070E0101FC
:102CA0000101226556EF16F058EF16F05AEF16F0B4
:102CB00070EF17F001012B6F010E01010101206F70
:102CC00001012B5127C123F128C124F129C125F18C
:102CD0002AC126F101012B6F000E01010101216FB4
:102CE00001012B51020E0101010121657AEF16F05D
:102CF0007CEF16F07EEF16F0FAEF16F001010101FD
:102D00002251040D010101012151F32401010101AE
:102D1000346F0101000EF4200101356F0CEC23F03B
:102D200001012B6F2BC12CF101012D6B2E6B2F6B31
:102D3000000E0101010123150101306F000E010198
:102D4000010124150101316F000E0101010125155A
:102D50000101326FFF0E0101010126150101336FE0
:102D6000190EB9EF16F0D8900101333332333133F5
:102D70003033E82EB3EF16F001012F510101331962
:102D80000EE101012E510101321909E101012D511C
:102D90000101311904E101012C5101013019D8B4AC
:102DA000D4EF16F0D6EF16F0DEEF16F001012B6F20
:102DB000000E01010101206F01012B5101010101F0
:102DC00025C126F10101010124C125F10101010103
:102DD00023C124F101010101236B01010101212B18
:102DE000020E010101012165F8EF16F0FAEF16F06D
:102DF0007EEF16F0010101012251040D030EF324B0
:102E000001010101346F000EF4200101356F0CEC5B
:102E100023F001012B6F2BC12CF101012D6B2E6BC7
:102E20002F6B000E0101010123150101306F000E0F
:102E30000101010124150101316F000E01010101A1
:102E400025150101326FC00E010101012615010196
:102E5000336F1B0E32EF17F0D8900101333332334A
:102E600031333033E82E2CEF17F001012F510101DF
:102E700033190EE101012E510101321909E101015D
:102E80002D510101311904E101012C5101013019C9
:102E9000D8B44DEF17F04FEF17F057EF17F00101CF
:102EA0002B6F000E01010101206F01012B51010167
:102EB00001012051D8B45FEF17F061EF17F063EF15
:102EC00017F070EF17F001010101222B070E01012D
:102ED000010122656EEF17F070EF17F05AEF16F050
:102EE000000100016D51010101011E1914E10001F1
:102EF00000016C51010101011D190DE100010001EA
:102F00006B51010101011C1906E1000100016A5128
:102F1000010101011B19D8A490EF17F092EF17F0EF
:102F200097EF17F000010001812B9FEF17F00101CF
:102F30002B6F000E00010001816F01012B511BC19D
:102F40006AF01CC16BF01DC16CF01EC16DF0280E43
:102F5000000100018161AFEF17F0B1EF17F0BBEF97
:102F600017F0010101012051D8B4B9EF17F0BBEF00
:102F700017F0DDEF17F0010101011F51D8B4C3EFC5
:102F800017F0C5EF17F0D1EF17F01BC134F11CC1DA
:102F900035F11DC136F11EC137F1A1EC19F0DBEF9F
:102FA00017F01BC134F11CC135F11DC136F11EC132
:102FB00037F191EC1CF007EF18F0010101011F51EE
:102FC000D8B4E5EF17F0E7EF17F0F2EF17F02F0E98
:102FD00001010101416F0F0E0101426F69EC21F007
:102FE000FBEF17F0350E01010101416F0F0E0101DA
:102FF000426F69EC21F001012B6F0A0E0101010102
:10300000456F01012B51E2EC22F042EC23F012005B
:103010000101236F000E01010101226F0101235103
:1030200091EF19F089823C0E01010101246F000E1D
:103030000101256F60EC22F08992200E010101014F
:10304000246F030E0101256F60EC22F017C11EF101
:1030500018C11FF119C120F11AC121F10101236F1B
:10306000000E010101011D6F010123511F0E01011D
:1030700001011D653EEF18F040EF18F042EF18F027
:10308000E9EF18F089823C0E01010101246F000E66
:103090000101256F60EC22F08992010101011B51B1
:1030A000D8B455EF18F057EF18F06DEF18F0010194
:1030B00001011D511B0AD8A460EF18F062EF18F04F
:1030C0006DEF18F0500E01010101246F000E010197
:1030D000256F60EC22F08AEF18F00101010121AFA9
:1030E00074EF18F076EF18F081EF18F0860E0101FA
:1030F0000101246F010E0101256F60EC22F08AEFBF
:1031000018F0500E01010101246F000E0101256F1E
:1031100060EC22F089823C0E01010101246F000E57
:103120000101256F60EC22F08992010101011B5120
:10313000D8B49DEF18F09FEF18F0B5EF18F001012B
:1031400001011D511B0AD8A4A8EF18F0AAEF18F02E
:10315000B5EF18F0500E01010101246F000E0101BE
:10316000256F60EC22F0D2EF18F00101010121BFC0
:10317000BCEF18F0BEEF18F0C9EF18F0860E010191
:103180000101246F010E0101256F60EC22F0D2EFE6
:1031900018F0500E01010101246F000E0101256F8E
:1031A00060EC22F00101D89001011E3701011F37A8
:1031B0000101203701012137010101011D2B1F0EE3
:1031C000010101011D65E7EF18F0E9EF18F042EF8A
:1031D00018F0010101011B51D8B4F1EF18F0F3EF21
:1031E00018F07AEF19F0010101011B5101010101F1
:1031F0001E6F01011F6B0101206B0101216B010199
:10320000236F000E010101011D6F01012351030E07
:10321000010101011D650FEF19F011EF19F013EF16
:1032200019F07AEF19F089823C0E01010101246F37
:10323000000E0101256F60EC22F08992010101016D
:103240001EA725EF19F027EF19F032EF19F0860EBF
:1032500001010101246F010E0101256F60EC22F0D4
:103260003BEF19F0500E01010101246F000E010126
:10327000256F60EC22F089823C0E01010101246F70
:10328000000E0101256F60EC22F08992010101011D
:103290001EA74DEF19F04FEF19F05AEF19F0500E2D
:1032A00001010101246F000E0101256F60EC22F085
:1032B00063EF19F0860E01010101246F010E010177
:1032C000256F60EC22F00101D89001011E37010149
:1032D0001F370101203701012137010101011D2B99
:1032E000030E010101011D6578EF19F07AEF19F065
:1032F00013EF19F089823C0E01010101246F000EC9
:103300000101256F60EC22F08992B80E01010101E4
:10331000246F0B0E0101256F60EC22F00101010109
:10332000222B010101011C5101010101225DD8A0E4
:103330009CEF19F09EEF19F012EF18F0A0EF19F0C2
:1033400012002F0E01010101416F0F0E0101426FAA
:1033500069EC21F001013D6F000E010101013C6F9C
:1033600001013D51050E010101013C65BAEF19F063
:10337000BCEF19F0BEEF19F007EF1AF0000E0101D3
:103380000101341501010101386F000E0101010135
:1033900035150101396F000E0101010136150101DA
:1033A0003A6FF00E01010101371501013B6F010178
:1033B000040ED89001013437010135370101363749
:1033C00001013737E82ED9EF19F01C0E01013D6FCE
:1033D000D890010101013B3301013A330101393336
:1033E0000101383301013D2FE8EF19F038C141F1F7
:1033F000A9EC22F0010101013C2B050E01010101A4
:103400003C6505EF1AF007EF1AF0BEEF19F0000E59
:1034100001010101341501010101386F000E0101A4
:10342000010135150101396F000E01010101361549
:1034300001013A6FFF0E01010101371501013B6FD8
:10344000180E01013D6FD890010101013B330101CC
:103450003A33010139330101383301013D2F23EFA4
:103460001AF0C00E01010101381501013D6F000E77
:1034700001010101391501013E6F000E0101010139
:103480003A1501013F6F000E010101013B150101D9
:10349000406F070E52EF1AF0D890010140333F33CE
:1034A0003E333D33E82E4CEF1AF001013D51300F11
:1034B00001010101456FE2EC22F00101010138AB8D
:1034C00064EF1AF066EF1AF072EF1AF001013D6F27
:1034D000310E01010101456F01013D51E2EC22F085
:1034E0007CEF1AF001013D6F300E01010101456FC3
:1034F00001013D51E2EC22F00101010138510F0BB5
:1035000001010101416FA9EC22F00101010138A97B
:103510008CEF1AF08EEF1AF09AEF1AF001013D6F5E
:10352000310E01010101456F01013D51E2EC22F034
:10353000A4EF1AF001013D6F300E01010101456F4A
:1035400001013D51E2EC22F001013D6F0A0E010143
:103550000101456F01013D51E2EC22F042EC23F004
:1035600012000101446F000E010101013F6F0101D2
:103570004451010101013DAFC0EF1AF0C2EF1AF052
:10358000DAEF1AF0010101013D1F01013C1F0101A9
:103590003B1F01013A6D000E01013B2301013C2359
:1035A00001013D230101446F010E010101013F6F43
:1035B000010144510101010139AFE1EF1AF0E3EFDC
:1035C0001AF0F7EF1AF001010101391F0101381F4C
:1035D0000101371F0101366D000E01013723010182
:1035E000382301013923010E010101013F1B000EA7
:1035F00001010101406F000E0101416F000E010148
:10360000426F000E0101436F01013D513A113B1120
:103610003C11D8B40EEF1BF010EF1BF083EF1BF042
:103620000101446F010E010101013E6F010144518E
:1036300027EF1BF00101D89001013A3701013B3718
:1036400001013C3701013D37010101013E2B010120
:1036500001013DAF2EEF1BF030EF1BF01AEF1BF016
:103660000101D89001014037010141370101423782
:1036700001014337010101013A5101010101365DA8
:10368000010101013B510101010137590101010112
:103690003C51010101013859010101013D51010174
:1036A00001013959D8A057EF1BF059EF1BF074EF07
:1036B0001BF0010101013A5101010101365F0101D5
:1036C00001013B5101010101375B010101013C5145
:1036D00001010101385B010101013D5101010101BD
:1036E000395B0101010140810101D89001013D33A5
:1036F00001013C3301013B3301013A330101010176
:103700003E2F30EF1BF0010101013F51D8B48BEF88
:103710001BF08DEF1BF09DEF1BF001010101431F1A
:103720000101421F0101411F0101406D000E010115
:103730004123010142230101432340C136F141C12C
:1037400037F142C138F143C139F1A7EF1BF0120044
:103750000101236F000E01010101206F01012351BE
:1037600081EF1CF017C11CF118C11DF119C11EF128
:103770001AC11FF10101236F000E01010101216F28
:1037800001012351030E010101012165CAEF1BF064
:10379000CCEF1BF0CEEF1BF0EFEF1BF08982B00EE9
:1037A00001010101246F000E0101256F60EC22F080
:1037B0008992B00E01010101246F000E0101256FF5
:1037C00060EC22F001010101212B030E0101010136
:1037D0002165EDEF1BF0EFEF1BF0CEEF1BF00101C9
:1037E000236F000E01010101226F01012351170E09
:1037F000010101012265FFEF1BF001EF1CF003EF57
:103800001CF06AEF1CF08982B00E01010101246FE7
:10381000000E0101256F60EC22F089920101010187
:103820001EAF15EF1CF017EF1CF022EF1CF0600E1E
:1038300001010101246F010E0101256F60EC22F0EE
:103840002BEF1CF0B00E01010101246F000E0101ED
:10385000256F60EC22F08982B00E01010101246F16
:10386000000E0101256F60EC22F089920101010137
:103870001EAF3DEF1CF03FEF1CF04AEF1CF0B00E06
:1038800001010101246F000E0101256F60EC22F09F
:1038900053EF1CF0600E01010101246F010E0101C4
:1038A000256F60EC22F00101D89001011C37010165
:1038B0001D3701011E3701011F3701010101222BB4
:1038C000170E01010101226568EF1CF06AEF1CF080
:1038D00003EF1CF08982580E01010101246F000ED4
:1038E0000101256F60EC22F08992070E01010101B0
:1038F000246F000E0101256FD6EC21F001010101BA
:10390000202B010101011B5101010101205DD8A003
:103910008CEF1CF08EEF1CF0B2EF1BF090EF1CF060
:103920001200350E01010101416F0F0E0101426FBE
:1039300069EC21F001013D6F000E010101013C6FB6
:1039400001013D51040E010101013C65AAEF1CF08B
:10395000ACEF1CF0AEEF1CF0F7EF1CF0000E010115
:103960000101341501010101386F000E010101014F
:1039700035150101396F000E0101010136150101F4
:103980003A6FF00E01010101371501013B6F010192
:10399000040ED89001013437010135370101363763
:1039A00001013737E82EC9EF1CF01C0E01013D6FF5
:1039B000D890010101013B3301013A330101393350
:1039C0000101383301013D2FD8EF1CF038C141F11E
:1039D000A9EC22F0010101013C2B040E01010101BF
:1039E0003C65F5EF1CF0F7EF1CF0AEEF1CF0000E9D
:1039F00001010101341501013D6F000E01010101BA
:103A0000351501013E6F000E01010101361501015E
:103A10003F6FF00E0101010137150101406F0101F7
:103A20004051F00A3D113E113F11D8A41AEF1DF08C
:103A30001CEF1DF028EF1DF001013D6F310E01015B
:103A40000101456F01013D51E2EC22F063EF1DF0F1
:103A5000000E01010101341501013D6F000E01014D
:103A60000101351501013E6F000E010101013615FE
:103A700001013F6FF00E0101010137150101406F97
:103A800001014051A00A3D113E113F11D8A44BEF56
:103A90001DF04DEF1DF059EF1DF001013D6F320E8D
:103AA00001010101456F01013D51E2EC22F063EF9C
:103AB0001DF001013D6F300E01010101456F010153
:103AC0003D51E2EC22F001013D6F0A0E01010101BE
:103AD000456F01013D51E2EC22F042EC23F012006F
:103AE0000101406F000E010101013E6F01014051D3
:103AF0000101010139AF7FEF1DF081EF1DF099EF5A
:103B00001DF001010101391F0101381F0101371F9B
:103B10000101366D000E0101372301013823010137
:103B200039230101406F010E010101013E6F0101C6
:103B30004051010101013DAFA0EF1DF0A2EF1DF0CA
:103B4000B2EF1DF0010101013D1F01013C1F010108
:103B50003B1F01013A6D000E01013B2301013C2393
:103B600001013D2301013D513A113B113C11D8B4F3
:103B7000BCEF1DF0BEEF1DF024EF1EF00101406F01
:103B8000010E010101013F6F01014051D5EF1DF010
:103B90000101D89001013A3701013B3701013C375F
:103BA00001013D37010101013F2B010101013DAF41
:103BB000DCEF1DF0DEEF1DF0C8EF1DF0010101018B
:103BC0003A5101010101365D010101013B51010141
:103BD00001013759010101013C510101010138592D
:103BE000010101013D51010101013959D8A0FBEF4B
:103BF0001DF0FDEF1DF015EF1EF0010101013A511E
:103C000001010101365F010101013B510101010187
:103C1000375B010101013C5101010101385B0101E8
:103C200001013D5101010101395B0101D890010100
:103C30003D3301013C3301013B3301013A330101C2
:103C400001013F2FDEEF1DF0010101013E51D8B40B
:103C50002CEF1EF02EEF1EF03EEF1EF001010101D1
:103C6000391F0101381F0101371F0101366D000E98
:103C700001013723010138230101392336C136F10F
:103C800037C137F138C138F139C139F148EF1EF089
:103C9000120001011E6F000E010101011D6F0101E3
:103CA0001E51E5EF1EF017C11BF118C11CF18982EE
:103CB000500E01010101246F000E0101256F60EC1F
:103CC00022F08992A80E01010101246F010E010169
:103CD000256F60EC22F001011E6F000E0101010151
:103CE0001A6F01011E510B0E010101011A657BEFD4
:103CF0001EF07DEF1EF07FEF1EF0D9EF1EF00101E8
:103D000001011CA786EF1EF088EF1EF09EEF1EF04B
:103D10008982540E01010101246F010E0101256FFA
:103D200060EC22F08992A40E01010101246F000EC3
:103D30000101256F60EC22F0B2EF1EF08982500E77
:103D400001010101246F000E0101256F60EC22F0DA
:103D50008992A80E01010101246F010E0101256F56
:103D600060EC22F08982500E01010101246F000EE7
:103D70000101256F60EC22F08992A80E010101017A
:103D8000246F010E0101256F60EC22F00101D89033
:103D900001011B3701011C37010101011A2B0B0E18
:103DA000010101011A65D7EF1EF0D9EF1EF07FEF78
:103DB0001EF0480E01010101246F0D0E0101256F57
:103DC00060EC22F0010101011D2B010101011951DB
:103DD000010101011D5DD8A0F0EF1EF0F2EF1EF011
:103DE00053EF1EF0F4EF1EF01200EACF4BF1E1CFDB
:103DF0004CF1E2CF4DF1D9CF4EF1DACF4FF1F3CF05
:103E000050F1F4CF51F1F6CF52F1F7CF53F1F8CF93
:103E100054F1F5CF55F19EAA10EF1FF012EF1FF0ED
:103E200047EF1FF0AECF7EF0010EF66E0F0EF76E6D
:103E3000000EF86E0800F55000010001646123EFE8
:103E40001FF025EF1FF035EF1FF0000100017E513C
:103E5000240AD8B42EEF1FF030EF1FF035EF1FF01B
:103E600000010001642B39EF1FF0000E000100017A
:103E7000646F0001000E000100016425E96EEA6A2A
:103E80000001000EEA2200017EC0EFFF9E9A55C19C
:103E9000F5FF54C1F8FF53C1F7FF52C1F6FF51C1FE
:103EA000F4FF50C1F3FF4FC1DAFF4EC1D9FF4DC13E
:103EB000E2FF4CC1E1FF4BC1EAFF4AC1E9FF49C142
:103EC000FBFF48C1FAFF1100000E01010101426F22
:103ED000000E0101436F0101010140513F11D8B4AF
:103EE00074EF1FF076EF1FF0C5EF1FF00101446F74
:103EF000010E01010101416F0101445189EF1FF0E1
:103F00000101D89001013F37010140370101010152
:103F1000412B0101010140AF90EF1FF092EF1FF024
:103F200080EF1FF00101D8900101423701014337B2
:103F3000010101013F51010101013D5D010101014B
:103F40004051010101013E59D8A0A9EF1FF0ABEF8C
:103F50001FF0BAEF1FF0010101013F510101010102
:103F60003D5F010101014051010101013E5B010181
:103F7000010142810101D8900101403301013F3329
:103F800001010101412F92EF1FF042C13DF143C1F8
:103F90003EF1CBEF1FF012003B0E01010101416F1A
:103FA0000F0E0101426F69EC21F00101206F000E3C
:103FB000010101011F6F01012051020E01010101E8
:103FC0001F65E5EF1FF0E7EF1FF0E9EF1FF01EEFB1
:103FD00020F0000E010101011B15010101011D6FFF
:103FE0000F0E010101011C1501011E6F01010101EC
:103FF0001B3B01011C3BF00E01011C1701011B5171
:104000000F0B01011C13F00E01011B17010101012F
:104010001E5101011D6F01011E6B1DC141F1A9EC73
:1040200022F0010101011F2B020E010101011F6598
:104030001CEF20F01EEF20F0E9EF1FF00101206FD0
:104040000A0E01010101456F01012051E2EC22F04D
:1040500042EC23F01200000E01010101446F000E3A
:104060000101456F000E0101466F000E0101476F0F
:10407000010101013CA13FEF20F041EF20F059EF99
:1040800020F001010101405101010101442701011A
:104090000101415101010101452301010101425189
:1040A0000101010146230101010143510101010107
:1040B00047230101D8900101403701014137010137
:1040C0004237010143370101D89001013F3301011B
:1040D0003E3301013D3301013C3301013F513C11AD
:1040E0003D113E11D8A477EF20F079EF20F038EFA2
:1040F00020F044C13CF145C13DF146C13EF147C10C
:104100003FF183EF20F012000101010140513F1106
:10411000D8B48DEF20F08FEF20F0D5EF20F0010123
:10412000426F010E01010101416F01014251A2EFF5
:1041300020F00101D89001013F3701014037010112
:104140000101412B0101010140AFA9EF20F0ABEFCC
:1041500020F099EF20F0010101013F51010101011F
:104160003D5D010101014051010101013E59D8A00D
:10417000BCEF20F0BEEF20F0CAEF20F001010101FA
:104180003F51010101013D5F010101014051010168
:1041900001013E5B0101D8900101403301013F3331
:1041A00001010101412FABEF20F03DC13DF13EC1C6
:1041B0003EF1DBEF20F0120001011A6F000E010149
:1041C0000101196F01011A51010E01010101196567
:1041D000ECEF20F0EEEF20F0F0EF20F02AEF21F0EE
:1041E000010101011751F00B01010101186F0101DB
:1041F000173BF00E17170101183B0F0E18170A0E88
:1042000001010101186107EF21F009EF21F014EF1E
:1042100021F0010101011851300F01010101456F29
:10422000E2EC22F01DEF21F0010101011851370FDE
:1042300001010101456FE2EC22F001010101192B9E
:10424000010E01010101196528EF21F02AEF21F08B
:10425000F0EF20F012000101196F000E01010101C1
:10426000186F010119510101010117A13AEF21F065
:104270003CEF21F03FEF21F001010101188701011E
:10428000010117A346EF21F048EF21F04BEF21F099
:104290000101010118850101010117A552EF21F06B
:1042A00054EF21F057EF21F00101010118830101C2
:1042B000010117A75EEF21F060EF21F063EF21F01D
:1042C00001010101188101010101185168EF21F07C
:1042D000120083EF21F0FF0E0101010141250101D0
:1042E000436FFF0E0101010142210101446F43C1EF
:1042F000F6FF44C1F7FF000EF86E08000101F5CF8C
:1043000045F1E2EC22F00101010141510101436F4D
:104310000101010142510101446F0101414B422B56
:1043200043C1F6FF44C1F7FF000EF86E0800F550D8
:104330000009D8A49EEF21F0A0EF21F06BEF21F04F
:1043400012000101186F000E01010101176F010138
:104350001851040E010101011765B1EF21F0B3EF0F
:1043600021F0B5EF21F0D5EF21F08B7A8BBABBEFBE
:1043700021F0BEEF21F08B88BFEF21F08B98640E07
:1043800001010101246F000E0101256FD6EC21F01F
:1043900001010101172B040E010101011765D3EF83
:1043A00021F0D5EF21F0B5EF21F01200000E010150
:1043B0000101266F000E0101276FEEEF21F00B0EB9
:1043C0000101286F620EE82EE3EF21F0282FE3EFC2
:1043D00021F0040001010101264B272B01010101FD
:1043E0002751800A0101286F0101245101010101B7
:1043F000265D010101012551800A01012859D8A03B
:1044000004EF22F006EF22F0DFEF21F0120038C1B6
:1044100040F139C141F13AC142F13BC143F136C1EA
:10442000E9FF37C1EAFF0101EECF3CF10101EECF18
:104430003DF10101EECF3EF10101EECF3FF12BEC5A
:1044400020F036C1E9FF37C1EAFF01013CC1EEFFB0
:1044500001013DC1EEFF01013EC1EEFF01013FC17F
:10446000EDFFED52ED5235EF22F0120038EF22F061
:10447000A6B23DEF22F03FEF22F036EF22F017C157
:10448000A9FF19C1A8FF3F0EA616D890F2AE4BEFB8
:1044900022F04DEF22F04EEF22F0D880F29EA6845B
:1044A000550EA76EAA0EA76EA682A198A694D8A0B4
:1044B0005CEF22F05EEF22F05FEF22F0F28E12004E
:1044C000000E01010101266F000E0101276F6EEF42
:1044D00022F000F001010101264B272B010101010F
:1044E0002751800A0101286F0101245101010101B6
:1044F000265D010101012551800A01012859D8A03A
:1045000084EF22F086EF22F069EF22F0120049ECEE
:1045100023F0030E01010101246F000E0101256F3C
:10452000D6EC21F089908B98AB882B0E010101010C
:10453000416F0F0E0101426F69EC21F00101176F0D
:104540000A0E01010101456F01011751E2EC22F051
:1045500012000A0E010101014161B1EF22F0B3EF37
:1045600022F0BEEF22F0010101014151300F0101A3
:104570000101456FE2EC22F0C7EF22F001010101D9
:104580004151370F01010101456FE2EC22F01200A9
:104590003A0E010101011761D0EF22F0D2EF22F0B3
:1045A000D8EF22F0300E01010101175FDCEF22F09D
:1045B000370E01010101175F010101011751E1EF00
:1045C00022F01200EEEF22F0ABA2E9EF22F0EBEFC7
:1045D00022F0EEEF22F0AB9800F0AB889EA8F3EF4C
:1045E00022F0F5EF22F0E4EF22F045C1ADFF12001A
:1045F000020E01010101416F0F0E0101426F69ECD2
:1046000021F00101176F0A0E01010101456F01013F
:104610001751E2EC22F0120010EF23F010EF23F01C
:10462000A6B215EF23F017EF23F00EEF23F034C1FD
:10463000A9FF3F0EA616A680A8501FEF23F0120078
:10464000000EC26E000E7E6E000E7F6E240EAC6EEB
:10465000900EAB6E000EB86ECF0EAF6E400EF26EC7
:10466000200E9D6E1200AB988B888980030E01018D
:104670000101246F000E0101256FD6EC21F04CECF6
:1046800023F012008B8A000EB36E000EB26EB18062
:0E4690001200060E926E1200040E926E1200C0
:0200000400F00A
:1000000000000000000000000000000000000000F0
:1000100000000000000000000000000000000000E0
:080020000000000000000000D8
:00000001FF
