:040000000CEF00F011
:10000800FACF45F1FBCF46F1E9CF47F19BEF1EF060
:1000180000EE00F010EE85F014EC00F0A9EF0CF003
:0E002800EE6AE550E150FCE1E250FAE1120010
:100F000000634D756C746954525820485749442009
:100F1000312E302C204657494420312E31202D20AF
:100F2000736B61676D6F2E636F6D00244F4B0024F0
:100F30004E00244700244500244400000101186F9E
:100F4000040E00010001656F01011851010101014A
:100F50001651D8B4AEEF07F0B0EF07F0F1EF07F09D
:100F6000140E010101011765B8EF07F0BAEF07F0A1
:100F7000DFEF07F02D0E010101011761C2EF07F04D
:100F8000C4EF07F0DFEF07F069C018F1010E0101AF
:100F9000196F0101182BD0EF07F0D8900101193714
:100FA0000101182FCDEF07F001011951FF0A0001CF
:100FB0000001761700010001692BEFEF07F0010136
:100FC000186F000E00010001696F01011851010145
:100FD000186F020E00010001656F010118515EEFEC
:100FE00008F0140E010101011765F9EF07F0FBEF9E
:100FF00007F020EF08F02D0E01010101176103EF4A
:1010000008F005EF08F020EF08F069C018F1010EB4
:101010000101196F0101182B11EF08F0D89001019F
:1010200019370101182F0EEF08F001011951FF0ABD
:1010300000010001761700010001692B5EEF08F046
:101040003C0E01010101176528EF08F02AEF08F0B6
:101050004EEF08F05A0E01010101176132EF08F05E
:1010600034EF08F04EEF08F069C018F1010E0101ED
:10107000196F0101182B40EF08F0D89001011937C2
:101080000101182F3DEF08F0010119510001000185
:10109000761300010001692B5EEF08F00101186F63
:1010A000000E00010001696F010118510101186F64
:1010B000020E00010001656F01011851030E0001CD
:1010C0000001696566EF08F068EF08F0B5EF08F019
:1010D0000001000176676FEF08F071EF08F07BEF19
:1010E00008F00101186F050E00010001656F010194
:1010F0001851ADEF08F0000100017651080AD8A49C
:1011000084EF08F086EF08F090EF08F00101186F07
:10111000000E00010001656F01011851ADEF08F0EC
:10112000000100017651020AD8A499EF08F09BEF64
:1011300008F0A5EF08F00101186F010E0001000191
:10114000656F01011851ADEF08F00101186F020E33
:1011500000010001656F010118510101186F000EB7
:1011600000010001696F0101185100010001655182
:10117000040AD8B4BEEF08F0C0EF08F05FEF09F042
:1011800055EF09F0000100016551020AD8B4CBEF18
:1011900008F0CDEF08F0EDEF08F000010001655117
:1011A000050AD8A4D6EF08F0D8EF08F0EBEF08F066
:1011B000000100018351050AD8A4E1EF08F0E3EF34
:1011C00008F0EBEF08F00101186F010E00010001BB
:1011D000826F0101185165C083F05FEF09F00001D3
:1011E00000016551020AD8A4F8EF08F0FAEF08F000
:1011F0000CEF09F00101186F000E00010001846F6F
:10120000010118510101186F000E00010001826FE9
:10121000010118511FEF09F00001D89000016E374D
:1012200000016F37000170370001713700010001C4
:101230006551000100016E1300010001842B0001C3
:1012400000018451190AD8A428EF09F02AEF09F007
:10125000EDEF08F00001000170C071F00001000125
:101260006FC070F0000100016EC06FF0000100015E
:101270006E6B6EC01AF16FC01BF170C01CF171C0B3
:101280001DF1CDEC1AF00101186F000E00010001F4
:10129000846F010118510101186F000E0001000157
:1012A000826F010118515FEF09F0000100018251C6
:1012B000000A01E167D7010A92E05FEF09F001013E
:1012C000186F040E00010001796F0101185101012E
:1012D00001011651D8B46FEF09F071EF09F0B2EFC8
:1012E00009F0050E01010101176579EF09F07BEFA7
:1012F00009F0A0EF09F0140E01010101176183EF5D
:1013000009F085EF09F0A0EF09F068C018F1010EAF
:101310000101196F0101182B91EF09F0D89001011B
:1013200019370101182F8EEF09F001011951FF0A39
:1013300000010001771700010001682BB0EF09F0F0
:101340000101186F000E00010001686F01011851C2
:101350000101186F020E00010001796F010118519F
:101360001FEF0AF00C0E010101011765BAEF09F039
:10137000BCEF09F0E1EF09F0170E0101010117615F
:10138000C4EF09F0C6EF09F0E1EF09F068C018F109
:10139000010E0101196F0101182BD2EF09F0D8904D
:1013A000010119370101182FCFEF09F0010119517F
:1013B000FF0A00010001771700010001682B1FEFF1
:1013C0000AF03C0E010101011765E9EF09F0EBEFAE
:1013D00009F00FEF0AF0640E010101011761F3EF4C
:1013E00009F0F5EF09F00FEF0AF068C018F1010EEF
:1013F0000101196F0101182B01EF0AF0D8900101CA
:1014000019370101182FFEEF09F0010119510001F0
:101410000001771300010001682B1FEF0AF00101A2
:10142000186F000E00010001686F010118510101E1
:10143000186F020E00010001796F01011851030EAF
:1014400000010001686527EF0AF029EF0AF076EF46
:101450000AF000010001776730EF0AF032EF0AF07E
:101460003CEF0AF00101186F060E00010001796FD0
:10147000010118516EEF0AF0000100017751080ACE
:10148000D8A445EF0AF047EF0AF051EF0AF0010146
:10149000186F000E00010001796F010118516EEF05
:1014A0000AF0000100017751020AD8A45AEF0AF0AD
:1014B0005CEF0AF066EF0AF00101186F010E0001FF
:1014C0000001796F010118516EEF0AF00101186FE8
:1014D000020E00010001796F010118510101186F1E
:1014E000000E00010001686F0101185100010001A8
:1014F0007951040AD8B47FEF0AF081EF0AF0C6EF01
:101500000AF0000100017951020AD8A48AEF0AF01A
:101510008CEF0AF096EF0AF00101186F000E00013F
:1015200000017D6F01011851A9EF0AF00001D89068
:1015300000016A3700016B3700016C3700016D371D
:10154000000100017951000100016A13000100014E
:101550007D2B000100017D51200AD8A4B2EF0AF0D2
:10156000B4EF0AF0C6EF0AF06AC01AF16BC01BF1C3
:101570006CC01CF16DC01DF1DDEC17F00101186F9E
:10158000000E000100017D6F0101185101010101F0
:101590001651D8B4CEEF0AF0D0EF0AF016EF0BF0E8
:1015A0001D0E010101011765D8EF0AF0DAEF0AF00C
:1015B000EEEF0AF0320E010101011761E2EF0AF0CD
:1015C000E4EF0AF0EEEF0AF00101186F010E0001DE
:1015D0000001666F0101185114EF0BF00A0E0101B2
:1015E00001011765F6EF0AF0F8EF0AF00CEF0BF0C7
:1015F0001E0E01010101176100EF0BF002EF0BF06D
:101600000CEF0BF00101186F000E00010001666F76
:101610000101185114EF0BF00101186F020E0001C7
:101620000001666F0101185147EF0BF0320E010106
:10163000010117611EEF0BF020EF0BF035EF0BF0FF
:101640000A0E01010101176528EF0BF02AEF0BF0DC
:1016500035EF0BF0000100016651040AD8A433EF06
:101660000BF035EF0BF03FEF0BF00101186F020E9E
:1016700000010001666F0101185147EF0BF00101F5
:10168000186F040E00010001666F0101185100017E
:1016900000016605D8B44FEF0BF051EF0BF05AEF95
:1016A0000BF000010001666758EF0BF05AEF0BF0EA
:1016B0006BEF0BF00001D89000017B3700017C3705
:1016C000000100016651000100017B1300010001CF
:1016D000812B8FEF0BF0000100016651020AD8A4A4
:1016E00074EF0BF076EF0BF08FEF0BF000010001C1
:1016F00081510D0AD8A47FEF0BF081EF0BF087EF3B
:101700000BF07BC01AF17CC01BF172EC1FF00101E1
:10171000186F000E00010001816F010118511E0EAB
:1017200001010101176597EF0BF099EF0BF0C8EF7E
:101730000BF05A0E010101011761A1EF0BF0A3EFAD
:101740000BF0C8EF0BF0000100017867AAEF0BF077
:10175000ACEF0BF0B6EF0BF00101186F010E0001BA
:101760000001786F01011851C6EF0BF00101186FED
:10177000010E00010001676F010118510101186F8E
:10178000000E00010001786F0101185108EF0CF004
:101790005A0E010101011765D0EF0BF0D2EF0BF0EB
:1017A000F8EF0BF0960E010101011761DAEF0BF073
:1017B000DCEF0BF0F8EF0BF00101186F000E0001E9
:1017C0000001676F01011851000100017851D8B480
:1017D000ECEF0BF0EEEF0BF0F6EF0BF00101186FF2
:1017E000000E00010001786F0101185108EF0CF0A4
:1017F0000101186F020E00010001676F010118510D
:101800000101186F000E00010001786F01011851ED
:101810000001000178670FEF0CF011EF0CF0A8EF5A
:101820000CF09EEF0CF0000100016751020AD8B4E1
:101830001CEF0CF01EEF0CF03DEF0CF00001D89007
:101840007F37000100016751000100017F13000193
:1018500000017F510F0B0C0AD8A431EF0CF033EFCD
:101860000CF03BEF0CF00101186F010E00010001BC
:101870007E6F0101185145EF0CF00101186F000E49
:10188000000100017F6F01011851A8EF0CF0000169
:1018900000016751020AD8A450EF0CF052EF0CF08F
:1018A00064EF0CF00101186F000E00010001806F61
:1018B000010118510101186F000E000100017E6F37
:1018C0000101185177EF0CF00001D8900001723738
:1018D0000001733700017437000175370001000102
:1018E000675100010001721300010001802B00010B
:1018F00000018051200AD8A480EF0CF082EF0CF098
:1019000045EF0CF072C01AF173C01BF174C01CF1EA
:1019100075C01DF1E7EC10F00101186F000E000119
:101920000001806F010118510101186F000E0001C4
:1019300000017E6F01011851A8EF0CF000010001B9
:101940007E51000A01E16FD7010AA1E0A8EF0CF077
:1019500012000FEC22F08990F8EC20F03CEC22F021
:101960000101106F000E01010101026F0101105110
:101970000101106F000E01010101016F0101105101
:10198000000E01010101046F000E0101056FF28ECE
:10199000000E80B2010E01010101026F010101017F
:1019A0000151010101010219D8B4D9EF0CF0DBEFAC
:1019B0000CF0F8EF0CF00101D6CF04F101010101A8
:1019C000056BF2A4E6EF0CF0E8EF0CF0F0EF0CF092
:1019D000FF0E01010101046F000E0101056FF29479
:1019E000000ED66E04C117F101C116F19EEC07F08E
:1019F00002C101F1A1A2FFEF0CF001EF0DF004EF25
:101A00000DF08B9AB190A1920050240AD8A40BEF4C
:101A10000DF00DEF0DF0E3EF10F000010001645147
:101A2000D8B415EF0DF017EF0DF0E3EF10F0000153
:101A300000010151470AD8A420EF0DF022EF0DF06C
:101A4000E1EF0DF0000100016451070AD8A42BEF6B
:101A50000DF02DEF0DF0E1EF0DF0000E0101010191
:101A6000086F000E0101096F000E01010A6F000EE0
:101A700001010B6F0101106F020E010101010C6FDA
:101A800001011051060E010101010C654AEF0DF034
:101A90004CEF0DF04EEF0DF080EF0DF00001000E59
:101AA000010101010C25E96EEA6A0001000EEA223B
:101AB000EF5001010101166FF5EC21F00101106FEB
:101AC000010110510101010108130101040ED89018
:101AD000010108370101093701010A3701010B37FC
:101AE000E82E67EF0DF0010101010C2B060E01013C
:101AF00001010C657EEF0DF080EF0DF04EEF0DF063
:101B0000D00E0001000107250101106F0101116BCA
:101B1000FF0E01011123010110051111D8A493EF4B
:101B20000DF095EF0DF0A2EF0DF00F0E0101010188
:101B30000813000E01010913000E01010A13000E23
:101B400001010B13D00E0001000107250101106FE8
:101B50000101116BFF0E0101112301011051020A55
:101B60001111D8A4B6EF0DF0B8EF0DF0C5EF0DF0E0
:101B70000A0E010101010813000E01010913000EF4
:101B800001010A13000E01010B1350EC22F00101B8
:101B9000106F060E010101011A6F0101105108C1F9
:101BA00016F109C117F10AC118F10BC119F1E4ECE2
:101BB00019F0B4EC21F0000E00010001646FE9EFB0
:101BC0000FF0000100010151570AD8A4EAEF0DF00F
:101BD000ECEF0DF066EF0EF0000100016451050A14
:101BE000D8A4F5EF0DF0F7EF0DF066EF0EF0000161
:101BF00000010251BF0F01010101166F82EC20F0BC
:101C00000101106F0101105101010101066F010175
:101C1000076B0101010106510101076F0101066B0C
:101C2000000100010351D00F0A0DF3CF03F10001B1
:101C300000010451D00F010101010327010101013D
:101C4000030703C116F182EC20F001010101036FCB
:101C50000101033BF00E03170101010103510101D2
:101C600001010627000E01010723D00E000100012B
:101C700005250101106F0101116BFF0E01011123F8
:101C8000010111511011D8B448EF0EF04AEF0EF0D7
:101C90004EEF0EF0070E01010101061350EC22F089
:101CA0000101106F080E01010101186F01011051AF
:101CB00006C116F107C117F1EFEC1DF0B4EC21F0ED
:101CC000000E00010001646FE9EF0FF00001000158
:101CD00001514E0AD8A46FEF0EF071EF0EF08DEFA8
:101CE0000FF00001000164510C0AD8B47AEF0EF035
:101CF0007CEF0EF092EF0EF00001000164510B0A30
:101D0000D8A485EF0EF087EF0EF08DEF0FF00001F5
:101D100000010B51320AD8B490EF0EF092EF0EF0A2
:101D20008DEF0FF0000E01010101086F000E01019F
:101D3000096F000E01010A6F000E01010B6F010116
:101D4000106F020E010101010D6F01011051070E0C
:101D5000010101010D65AFEF0EF0B1EF0EF0B3EF31
:101D60000EF0E5EF0EF00001000E010101010D255E
:101D7000E96EEA6A0001000EEA22EF50010101015A
:101D8000166FF5EC21F00101106F010110510101F6
:101D9000010108130101040ED89001010837010167
:101DA000093701010A3701010B37E82ECCEF0EF09D
:101DB000010101010D2B070E010101010D65E3EF8A
:101DC0000EF0E5EF0EF0B3EF0EF00101040ED89027
:101DD000010108370101093701010A3701010B37F9
:101DE000E82EE7EF0EF0000108C010F10101116BC1
:101DF000060ED890010110371137E82EF9EF0EF0DA
:101E0000000E010110250101126FF40E01011121D4
:101E10000101136F0101146B0101156B01011251D6
:101E2000010101010813010113510101010109130D
:101E300001011451010101010A13010115510101B0
:101E400001010B13D00E0001000109250101106FE3
:101E50000101116BFF0E010111230101115110113C
:101E6000D8B435EF0FF037EF0FF03AEF0FF0010174
:101E70000101088B0AC016F1F5EC21F00101106F89
:101E800001011051010101010813000100010B5172
:101E9000310AD8A44EEF0FF050EF0FF053EF0FF0D0
:101EA000010101010889000100010B51320AD8A487
:101EB0005CEF0FF05EEF0FF067EF0FF00CC016F164
:101EC000F5EC21F001010101006F6FEF0FF001014E
:101ED000106F000E01010101006F0101105150EC63
:101EE00022F00101106F050E010101011B6F0101BC
:101EF000105100C11AF108C116F109C117F10AC148
:101F000018F10BC119F144EC16F0B4EC21F0000EFD
:101F100000010001646FE9EF0FF0000100010151C1
:101F2000500AD8A496EF0FF098EF0FF0AAEF0FF039
:101F3000000100016405D8A4A0EF0FF0A2EF0FF09C
:101F4000AAEF0FF03CEC22F0000E00010001646FDC
:101F5000E9EF0FF0000100010151580AD8A4B3EFD6
:101F60000FF0B5EF0FF0C2EF0FF0000100016405B4
:101F7000D8A4BDEF0FF0BFEF0FF0C2EF0FF0FF00DE
:101F8000E9EF0FF0000100010151210AD8A4CBEFC5
:101F90000FF0CDEF0FF0E9EF0FF000010001640545
:101FA000D8A4D5EF0FF0D7EF0FF0E9EF0FF050EC1A
:101FB00022F08982880E01010101236F130E0101B5
:101FC000246F2DEC21F0B4EC21F0000E0001000193
:101FD000646F0001000101514B0AD8A4F2EF0FF029
:101FE000F4EF0FF0E3EF10F0000100016451080A74
:101FF000D8A4FDEF0FF0FFEF0FF0E3EF10F0000EAD
:1020000001010101086F000E0101096F000E0101BD
:102010000A6F000E01010B6F0101106F020E01012A
:1020200001010E6F01011051060E010101010E6543
:102030001CEF10F01EEF10F020EF10F066EF10F024
:102040000001000E010101010E25E96EEA6A00019E
:10205000000EEA22EF500101106FD00E0101102591
:102060000101116F0101126BFF0E01011223010129
:10207000136B0101146B01011151010101010813DE
:102080000101125101010101091301011351010163
:1020900001010A1301011451010101010B13010196
:1020A000D890010108370101093701010A37010100
:1020B0000B37010101010E2B060E010101010E6516
:1020C00064EF10F066EF10F020EF10F00101106FD8
:1020D000000E010101010F6F01011051040E0101F9
:1020E00001010F6576EF10F078EF10F07AEF10F045
:1020F000ACEF10F0BF0E0001000107250101106FC9
:102100000101116BFF0E01011123010101010F51AA
:10211000010110191111D8A490EF10F092EF10F0F6
:1021200095EF10F00101010108810101D890010132
:1021300008370101093701010A3701010B37010195
:1021400001010F2B040E010101010F65AAEF10F030
:10215000ACEF10F07AEF10F00101D89001010837D0
:102160000101093701010A3701010B3700010001A4
:102170000851310AD8A4BFEF10F0C1EF10F0C6EF3C
:1021800010F0010101010883C9EF10F00101010104
:10219000088150EC22F00101106F060E01010101CF
:1021A0001A6F0101105108C116F109C117F10AC1D6
:1021B00018F10BC119F185EC1CF0B4EC21F0000E04
:1021C00000010001646FC8EF0CF00CEF00F001019A
:1021D0002F6F000E010101011E6F01012F5101013E
:1021E0002F6F000E01010101256F01012F51010127
:1021F00001011A51030B01010101246F1AC12AF1D7
:102200001BC12BF11CC12CF11DC12DF101012F6F40
:10221000000E010101012E6F01012F510E0E01016F
:1022200001012E6516EF11F018EF11F01AEF11F001
:102230005AEF11F0030E010101011A15010101010C
:102240002A6F000E010101011B1501012B6F000E09
:10225000010101011C1501012C6F000E010101019A
:102260001D1501012D6F0101010125510101010120
:102270002A1901010101256F020E01012F6FD8906B
:10228000010101012D3301012C3301012B33010127
:102290002A3301012F2F3FEF11F0010101012E2BF5
:1022A0000E0E010101012E6558EF11F05AEF11F0E9
:1022B0001AEF11F0000E010101011A1501010101CF
:1022C0002A6F000E010101011B1501012B6F000E89
:1022D000010101011C1501012C6F030E0101010117
:1022E0001D1501012D6F180E01012F6FD8900101EE
:1022F00001012D3301012C3301012B3301012A335C
:1023000001012F2F76EF11F001012A51030A2B1141
:102310002C112D11D8A48FEF11F091EF11F0E2EFF5
:1023200013F00101010124510101010125639BEF1B
:1023300011F09DEF11F0E2EF13F0000E0101010129
:102340001A15010101012A6F000E010101011B157F
:1023500001012B6F000E010101011C1501012C6F01
:10236000F00E010101011D1501012D6F01012AC1AE
:102370002FF101012BC130F101012CC131F101011B
:102380002DC132F11D0ECBEF11F0D8900101323387
:10239000313330332F33E82EC5EF11F001012F51C7
:1023A00001010101216F000E010101011A15010156
:1023B00001012A6F000E010101011B1501012B6FA4
:1023C000000E010101011C1501012C6F0C0E010111
:1023D00001011D1501012D6F1A0E01012F6FD890FB
:1023E000010101012D3301012C3301012B330101C6
:1023F0002A3301012F2FEFEF11F0010101012A29EA
:1024000001010101206F000E010101011A150101F6
:1024100001012A6F000E010101011B1501012B6F43
:10242000800E010101011C1501012C6F000E01013C
:1024300001011D1501012D6F01012C3501012D3503
:1024400001010101236F000E010101011A150101B3
:1024500001012A6F800E010101011B1501012B6F83
:102460007F0E010101011C1501012C6F000E0101FD
:1024700001011D1501012D6F01012AC12FF101017B
:102480002BC130F101012CC131F101012DC132F11B
:10249000100E51EF12F0D890010132333133303346
:1024A0002F33E82E4BEF12F001012F5101010101F2
:1024B000226FF00E010101011A15010101012A6FBD
:1024C0007F0E010101011B1501012B6F000E01019F
:1024D00001011C1501012C6F000E010101011D15E8
:1024E00001012D6F01012AC12FF101012BC130F132
:1024F00001012CC131F101012DC132F1050E87EF2F
:1025000012F0D89001013233313330332F33E82EBB
:1025100081EF12F02FC126F130C127F131C128F12E
:1025200032C129F10A0E010101013D6F000E0101C6
:102530003E6F000E01013F6F000E0101406FE00E83
:1025400001010101262501010101396FFC0E010184
:102550000101272101013A6FFF0E0101010128212C
:1025600001013B6FFF0E01010101292101013C6FB7
:10257000D1EC1FF039C133F13AC134F13BC135F12F
:102580003CC136F1100E01010101376F000E01014F
:10259000386F000E0101396F000E01013A6FEDEC4A
:1025A00018F033C126F134C127F135C128F136C105
:1025B00029F10C0E010101011A15010101012A6F17
:1025C000000E010101011B1501012B6F000E01011D
:1025D00001011C1501012C6F000E010101011D15E7
:1025E00001012D6F020E01012F6FD8900101010131
:1025F0002D3301012C3301012B3301012A33010159
:102600002F2FF5EF12F02AC11FF1350E0101010144
:10261000336F0F0E0101346FC0EC20F00101010196
:1026200021C133F101010101346BE3EC13F001012D
:102630002F6F2C0E010101013A6F01012F5126EC81
:1026400022F00101010120C133F101010101346BCC
:10265000E3EC13F001012F6F2C0E010101013A6F21
:1026600001012F5126EC22F00101010129AF3BEFBE
:1026700013F03DEF13F05FEF13F001012F6F2D0EFC
:10268000010101013A6F01012F5126EC22F0FF0EEA
:1026900001010101356FFF0E0101366FFF0E0101CF
:1026A000376FFF0E0101386F0101260E0101010194
:1026B000336F0101010E0101346F5EEC21F00A0E4F
:1026C00001010101376F000E0101386F000E010199
:1026D000396F000E01013A6F26C133F127C134F181
:1026E00028C135F129C136F1EDEC18F033C133F1D1
:1026F00034C134F1E3EC13F001012F6F2E0E010110
:1027000001013A6F01012F5126EC22F00A0E01015E
:102710000101376F000E0101386F000E0101396FA2
:10272000000E01013A6F26C133F127C134F128C1EF
:1027300035F129C136F1ACEC1BF033C133F134C1B2
:1027400034F1E3EC13F001012F6F2C0E01010101B4
:102750003A6F01012F5126EC22F0020E0101010116
:10276000356F000E0101366F0101010122C133F105
:1027700001010101346B42EC1DF033C133F134C16E
:1027800034F1E3EC13F001012F6F2C0E0101010174
:102790003A6F01012F5126EC22F001010101235172
:1027A000300F010101013A6F26EC22F001012F6F79
:1027B0000A0E010101013A6F01012F5126EC22F0AE
:1027C0005FEC22F01200000E01010101335D800E6A
:1027D00001013459D8A0EFEF13F0F1EF13F006EF39
:1027E00014F00101396F2D0E010101013A6F010151
:1027F000395126EC22F00101FF0E0101331BFF0EBF
:102800000101341B01010101334B342B0A0E01017C
:102810000101335D000E01013459D8B012EF14F0FC
:1028200014EF14F01FEF14F0010101013351300FC8
:10283000010101013A6F26EC22F041EF16F0640E1F
:1028400001010101335D000E01013459D8B02BEFB5
:1028500014F02DEF14F06EEF14F00A0E01010101D7
:102860003C6F000E01013D6F33C13AF134C13BF1C1
:102870002AEC20F0010101013A51300F0101010160
:10288000386F0A0E010101013C6F000E01013D6F1E
:1028900033C13AF134C13BF10AEC1FF03AC133F1D4
:1028A0003BC134F10A0E010101013C6F000E010130
:1028B0003D6F33C13AF134C13BF12AEC20F0010104
:1028C00001013A51300F010101013A6F26EC22F06B
:1028D00038C13AF126EC22F041EF16F0E80E010182
:1028E0000101335D030E01013459D8B07AEF14F0C1
:1028F0007CEF14F0E6EF14F00A0E010101013C6FC9
:10290000000E01013D6F33C13AF134C13BF12AECB5
:1029100020F0010101013A51300F01010101376F2F
:102920000A0E010101013C6F000E01013D6F33C130
:102930003AF134C13BF10AEC1FF03AC133F13BC12B
:1029400034F10A0E010101013C6F000E01013D6FDF
:1029500033C13AF134C13BF12AEC20F0010101010D
:102960003A51300F01010101386F0A0E01010101D6
:102970003C6F000E01013D6F33C13AF134C13BF1B0
:102980000AEC1FF03AC133F13BC134F10A0E0101E8
:1029900001013C6F000E01013D6F33C13AF134C1BA
:1029A0003BF12AEC20F0010101013A51300F010105
:1029B00001013A6F26EC22F038C13AF126EC22F000
:1029C00037C13AF126EC22F041EF16F0100E01016A
:1029D0000101335D270E01013459D8B0F2EF14F034
:1029E000F4EF14F087EF15F00A0E010101013C6FBE
:1029F000000E01013D6F33C13AF134C13BF12AECC5
:102A000020F0010101013A51300F01010101366F3F
:102A10000A0E010101013C6F000E01013D6F33C13F
:102A20003AF134C13BF10AEC1FF03AC133F13BC13A
:102A300034F10A0E010101013C6F000E01013D6FEE
:102A400033C13AF134C13BF12AEC20F0010101011C
:102A50003A51300F01010101376F0A0E01010101E6
:102A60003C6F000E01013D6F33C13AF134C13BF1BF
:102A70000AEC1FF03AC133F13BC134F10A0E0101F7
:102A800001013C6F000E01013D6F33C13AF134C1C9
:102A90003BF12AEC20F0010101013A51300F010114
:102AA0000101386F0A0E010101013C6F000E0101A6
:102AB0003D6F33C13AF134C13BF10AEC1FF03AC12A
:102AC00033F13BC134F10A0E010101013C6F000EEC
:102AD00001013D6F33C13AF134C13BF12AEC20F0E2
:102AE000010101013A51300F010101013A6F26EC59
:102AF00022F038C13AF126EC22F037C13AF126EC47
:102B000022F036C13AF126EC22F041EF16F00A0E1F
:102B1000010101013C6F000E01013D6F33C13AF12B
:102B200034C13BF12AEC20F0010101013A51300F90
:102B300001010101356F0A0E010101013C6F000E18
:102B400001013D6F33C13AF134C13BF10AEC1FF092
:102B50003AC133F13BC134F10A0E010101013C6F6E
:102B6000000E01013D6F33C13AF134C13BF12AEC53
:102B700020F0010101013A51300F01010101366FCE
:102B80000A0E010101013C6F000E01013D6F33C1CE
:102B90003AF134C13BF10AEC1FF03AC133F13BC1C9
:102BA00034F10A0E010101013C6F000E01013D6F7D
:102BB00033C13AF134C13BF12AEC20F001010101AB
:102BC0003A51300F01010101376F0A0E0101010175
:102BD0003C6F000E01013D6F33C13AF134C13BF14E
:102BE0000AEC1FF03AC133F13BC134F10A0E010186
:102BF00001013C6F000E01013D6F33C13AF134C158
:102C00003BF12AEC20F0010101013A51300F0101A2
:102C10000101386F0A0E010101013C6F000E010134
:102C20003D6F33C13AF134C13BF10AEC1FF03AC1B8
:102C300033F13BC134F10A0E010101013C6F000E7A
:102C400001013D6F33C13AF134C13BF12AEC20F070
:102C5000010101013A51300F010101013A6F26ECE7
:102C600022F038C13AF126EC22F037C13AF126ECD5
:102C700022F036C13AF126EC22F035C13AF126ECC9
:102C800022F043EF16F012000101226F000E010145
:102C90000101216F01012251CDEF17F089823C0E15
:102CA00001010101236F000E0101246F8DEC21F061
:102CB0008992200E01010101236F030E0101246F8F
:102CC0008DEC21F016C11DF117C11EF118C11FF1C5
:102CD00019C120F10101226F000E010101011C6FD9
:102CE000010122511F0E010101011C657AEF16F04E
:102CF0007CEF16F07EEF16F025EF17F089823C0E80
:102D000001010101236F000E0101246F8DEC21F000
:102D10008992010101011A51D8B491EF16F093EF95
:102D200016F0A9EF16F0010101011C511B0AD8A4ED
:102D30009CEF16F09EEF16F0A9EF16F0500E010171
:102D40000101236F000E0101246F8DEC21F0C6EF0D
:102D500016F00101010120AFB0EF16F0B2EF16F04E
:102D6000BDEF16F0860E01010101236F010E010176
:102D7000246F8DEC21F0C6EF16F0500E0101010119
:102D8000236F000E0101246F8DEC21F089823C0E2F
:102D900001010101236F000E0101246F8DEC21F070
:102DA0008992010101011A51D8B4D9EF16F0DBEF75
:102DB00016F0F1EF16F0010101011C511B0AD8A415
:102DC000E4EF16F0E6EF16F0F1EF16F0500E010109
:102DD0000101236F000E0101246F8DEC21F00EEF35
:102DE00017F00101010120BFF8EF16F0FAEF16F01D
:102DF00005EF17F0860E01010101236F010E01019D
:102E0000246F8DEC21F00EEF17F0500E010101013F
:102E1000236F000E0101246F8DEC21F00101D89089
:102E200001011D3701011E3701011F370101203744
:102E3000010101011C2B1F0E010101011C6523EF83
:102E400017F025EF17F07EEF16F0010101011A517E
:102E5000D8B42DEF17F02FEF17F0B6EF17F00101F0
:102E600001011A51010101011D6F01011E6B0101D8
:102E70001F6B0101206B0101226F000E0101010196
:102E80001C6F01012251030E010101011C654BEF72
:102E900017F04DEF17F04FEF17F0B6EF17F08982EC
:102EA0003C0E01010101236F000E0101246F8DEC26
:102EB00021F08992010101011DA761EF17F063EF75
:102EC00017F06EEF17F0860E01010101236F010E5E
:102ED0000101246F8DEC21F077EF17F0500E010106
:102EE0000101236F000E0101246F8DEC21F0898216
:102EF0003C0E01010101236F000E0101246F8DECD6
:102F000021F08992010101011DA789EF17F08BEFD4
:102F100017F096EF17F0500E01010101236F000E1C
:102F20000101246F8DEC21F09FEF17F0860E010157
:102F30000101236F010E0101246F8DEC21F00101CD
:102F4000D89001011D3701011E3701011F37010112
:102F50002037010101011C2B030E010101011C6539
:102F6000B4EF17F0B6EF17F04FEF17F089823C0E71
:102F700001010101236F000E0101246F8DEC21F08E
:102F80008992B80E01010101236F0B0E0101246F1C
:102F90008DEC21F001010101212B010101011B51E7
:102FA00001010101215DD8A0D8EF17F0DAEF17F089
:102FB0004EEF16F0DCEF17F012002F0E01010101A9
:102FC000336F0F0E0101346FC0EC20F00101236F4D
:102FD000000E01010101226F01012351050E0101C3
:102FE00001012265F6EF17F0F8EF17F0FAEF17F08E
:102FF00043EF18F0000E010101011A150101010152
:103000001E6F000E010101011B1501011F6F000E53
:10301000010101011C150101206FF00E01010101E8
:103020001D150101216F0101040ED89001011A370D
:1030300001011B3701011C3701011D37E82E15EF77
:1030400018F01C0E0101236FD890010101012133FA
:103050000101203301011F3301011E330101232F20
:1030600024EF18F01EC127F1D6EC21F00101010177
:10307000222B050E01010101226541EF18F043EFFB
:1030800018F0FAEF17F0000E010101011A15010105
:1030900001011E6F000E010101011B1501011F6FCF
:1030A000000E010101011C150101206FFF0E01013D
:1030B00001011D150101216F180E0101236FD89028
:1030C0000101010121330101203301011F330101FD
:1030D0001E330101232F5FEF18F0C00E0101010123
:1030E0001E150101236F000E010101011F150101D1
:1030F000246F000E0101010120150101256F000E52
:103100000101010121150101266F070E8EEF18F054
:10311000D89001012633253324332333E82E88EF5A
:1031200018F001012351300F010101013A6F26EC23
:1031300022F0010101011EABA0EF18F0A2EF18F080
:10314000AEEF18F00101236F310E010101013A6F5A
:103150000101235126EC22F0B8EF18F00101236F92
:10316000300E010101013A6F0101235126EC22F0DA
:10317000010101011E510F0B01010101276FD6EC66
:1031800021F0010101011EA9C8EF18F0CAEF18F0E3
:10319000D6EF18F00101236F310E010101013A6FE2
:1031A0000101235126EC22F0E0EF18F00101236F1A
:1031B000300E010101013A6F0101235126EC22F08A
:1031C0000101236F0A0E010101013A6F0101235130
:1031D00026EC22F05FEC22F012000101416F000E9C
:1031E000010101013C6F01014151010101013AAFAF
:1031F000FCEF18F0FEEF18F016EF19F001010101D5
:103200003A1F0101391F0101381F0101376D000EFE
:10321000010138230101392301013A230101416FE2
:10322000010E010101013C6F010141510101010148
:1032300036AF1DEF19F01FEF19F033EF19F0010150
:103240000101361F0101351F0101341F0101336DDA
:10325000000E010134230101352301013623010E43
:10326000010101013C1B000E010101013D6F000E37
:1032700001013E6F000E01013F6F000E0101406F22
:1032800001013A51371138113911D8B44AEF19F008
:103290004CEF19F0BFEF19F00101416F010E010170
:1032A00001013B6F0101415163EF19F00101D89019
:1032B00001013737010138370101393701013A3748
:1032C000010101013B2B010101013AAF6AEF19F045
:1032D0006CEF19F056EF19F00101D89001013D375C
:1032E00001013E3701013F37010140370101010172
:1032F000375101010101335D010101013851010123
:10330000010134590101010139510101010135590E
:10331000010101013A51010101013659D8A093EF91
:1033200019F095EF19F0B0EF19F0010101013751D3
:1033300001010101335F0101010138510101010166
:10334000345B01010101395101010101355B0101CA
:1033500001013A5101010101365B010101013D8189
:103360000101D89001013A330101393301013833A9
:1033700001013733010101013B2F6CEF19F001010D
:1033800001013C51D8B4C7EF19F0C9EF19F0D9EFDA
:1033900019F001010101401F01013F1F01013E1F02
:1033A00001013D6D000E01013E2301013F2301019A
:1033B00040233DC133F13EC134F13FC135F140C13D
:1033C00036F1E3EF19F012000101226F000E010146
:1033D00001011F6F01012251BDEF1AF016C11BF14F
:1033E00017C11CF118C11DF119C11EF10101226F95
:1033F000000E01010101206F01012251030E0101A4
:103400000101206506EF1AF008EF1AF00AEF1AF032
:103410002BEF1AF08982B00E01010101236F000E1B
:103420000101246F8DEC21F08992B00E01010101A0
:10343000236F000E0101246F8DEC21F001010101C9
:10344000202B030E01010101206529EF1AF02BEF5B
:103450001AF00AEF1AF00101226F000E01010101BA
:10346000216F01012251170E0101010121653BEF7E
:103470001AF03DEF1AF03FEF1AF0A6EF1AF089822A
:10348000B00E01010101236F000E0101246F8DECCC
:1034900021F08992010101011DAF51EF1AF053EFA4
:1034A0001AF05EEF1AF0600E01010101236F010EA8
:1034B0000101246F8DEC21F067EF1AF0B00E0101CD
:1034C0000101236F000E0101246F8DEC21F0898230
:1034D000B00E01010101236F000E0101246F8DEC7C
:1034E00021F08992010101011DAF79EF1AF07BEF04
:1034F0001AF086EF1AF0B00E01010101236F000EE1
:103500000101246F8DEC21F08FEF1AF0600E0101A4
:103510000101236F010E0101246F8DEC21F00101E7
:10352000D89001011B3701011C3701011D37010132
:103530001E3701010101212B170E01010101216537
:10354000A4EF1AF0A6EF1AF03FEF1AF08982580E96
:1035500001010101236F000E0101246F8DEC21F0A8
:103560008992070E01010101236F000E0101246FF2
:103570002DEC21F0010101011F2B010101011A5164
:10358000010101011F5DD8A0C8EF1AF0CAEF1AF0BF
:10359000EEEF19F0CCEF1AF01200320E010101012A
:1035A000336F0F0E0101346FC0EC20F00101236F67
:1035B000000E01010101226F01012351040E0101DE
:1035C00001012265E6EF1AF0E8EF1AF0EAEF1AF0CF
:1035D00033EF1BF0000E010101011A150101010179
:1035E0001E6F000E010101011B1501011F6F000E6E
:1035F000010101011C150101206FF00E0101010103
:103600001D150101216F0101040ED89001011A3727
:1036100001011B3701011C3701011D37E82E05EFA1
:103620001BF01C0E0101236FD89001010101213311
:103630000101203301011F3301011E330101232F3A
:1036400014EF1BF01EC127F1D6EC21F0010101019E
:10365000222B040E01010101226531EF1BF033EF33
:103660001BF0EAEF1AF0000E010101011A15010129
:10367000236F000E010101011B150101246F000ED3
:10368000010101011C150101256FF00E010101016D
:103690001D150101266F01012651F00A2311241185
:1036A0002511D8A456EF1BF058EF1BF064EF1BF068
:1036B0000101236F310E010101013A6F0101235114
:1036C00026EC22F09FEF1BF0000E010101011A15FC
:1036D0000101236F000E010101011B150101246F7F
:1036E000000E010101011C150101256FF00E010101
:1036F00001011D150101266F01012651A00A2311A8
:1037000024112511D8A487EF1BF089EF1BF095EF4A
:103710001BF00101236F320E010101013A6F01011B
:10372000235126EC22F09FEF1BF00101236F300E96
:10373000010101013A6F0101235126EC22F0010140
:10374000236F0A0E010101013A6F0101235126EC9A
:1037500022F05FEC22F0120001013D6F000E01012A
:1037600001013B6F01013D510101010136AFBBEF8A
:103770001BF0BDEF1BF0D5EF1BF001010101361F5F
:103780000101351F0101341F0101336D000E0101DC
:103790003423010135230101362301013D6F010E60
:1037A000010101013B6F01013D51010101013AAFEE
:1037B000DCEF1BF0DEEF1BF0EEEF1BF0010101016F
:1037C0003A1F0101391F0101381F0101376D000E39
:1037D000010138230101392301013A2301013A5142
:1037E000371138113911D8B4F8EF1BF0FAEF1BF08C
:1037F00060EF1CF001013D6F010E010101013C6F02
:1038000001013D5111EF1CF00101D8900101373742
:10381000010138370101393701013A37010101014E
:103820003C2B010101013AAF18EF1CF01AEF1CF01C
:1038300004EF1CF001010101375101010101335D69
:103840000101010138510101010134590101010156
:103850003951010101013559010101013A510101BB
:1038600001013659D8A037EF1CF039EF1CF051EFA9
:103870001CF001010101375101010101335F010118
:103880000101385101010101345B0101010139518C
:1038900001010101355B010101013A510101010101
:1038A000365B0101D89001013A330101393301013E
:1038B000383301013733010101013C2F1AEF1CF0AD
:1038C000010101013B51D8B468EF1CF06AEF1CF014
:1038D0007AEF1CF001010101361F0101351F0101C2
:1038E000341F0101336D000E010134230101352322
:1038F0000101362333C133F134C134F135C135F11F
:1039000036C136F184EF1CF012000101216F000E68
:10391000010101011F6F0101215132EF1DF016C19C
:103920001BF117C11CF118C11DF119C11EF18982CB
:10393000690E01010101236F000E0101246F8DEC5E
:1039400021F089923B0E01010101236F010E01015B
:10395000246F8DEC21F00101216F000E01010101A6
:10396000206F010121510B0E010101012065BBEF08
:103970001CF0BDEF1CF0BFEF1CF026EF1DF089829C
:10398000010101011CA7C7EF1CF0C9EF1CF0D4EF27
:103990001CF0690E01010101236F000E0101246F6B
:1039A0008DEC21F0DDEF1CF03B0E01010101236FD6
:1039B000010E0101246F8DEC21F0899201010101BA
:1039C0001CA7E5EF1CF0E7EF1CF0F2EF1CF03B0E3C
:1039D00001010101236F010E0101246F8DEC21F023
:1039E000FBEF1CF0690E01010101236F000E0101C4
:1039F000246F8DEC21F08982690E01010101236F92
:103A0000000E0101246F8DEC21F089923B0E010123
:103A10000101236F010E0101246F8DEC21F00101E2
:103A2000D89001011B3701011C3701011D3701012D
:103A30001E3701010101202B0B0E01010101206540
:103A400024EF1DF026EF1DF0BFEF1CF00A0E010160
:103A50000101236F000E0101246F2DEC21F0010103
:103A600001011F2B010101011A51010101011F5D1B
:103A7000D8A03DEF1DF03FEF1DF08FEF1CF041EFA0
:103A80001DF0120001013B6F000E01010101386FB2
:103A900001013B510101010136AF51EF1DF053EF20
:103AA0001DF062EF1DF001010101356D0101361FAE
:103AB000D8B0362B01013B6F010E01010101386FB7
:103AC00001013B510101010134AF69EF1DF06BEFC2
:103AD0001DF076EF1DF001010101336D0101341F6E
:103AE000D8B0342B010E01010101381B000E010179
:103AF0000101396F000E01013A6F010101013651D8
:103B00003511D8B486EF1DF088EF1DF0D7EF1DF00A
:103B100001013B6F010E01010101376F01013B51B2
:103B20009BEF1DF00101D8900101353701013637B7
:103B300001010101372B0101010136AFA2EF1DF098
:103B4000A4EF1DF092EF1DF00101D890010139376B
:103B500001013A3701010101355101010101335DD4
:103B6000010101013651010101013459D8A0BBEF17
:103B70001DF0BDEF1DF0CCEF1DF00101010135512D
:103B800001010101335F0101010136510101010110
:103B9000345B0101010139810101D8900101363303
:103BA0000101353301010101372FA4EF1DF001019F
:103BB00001013851D8B4DFEF1DF0E1EF1DF0E8EF5F
:103BC0001DF001010101396D01013A1FD8B03A2BF6
:103BD00039C133F13AC134F1EEEF1DF012000101A9
:103BE0001D6F000E010101011C6F01011D518BEFC2
:103BF0001EF016C11AF117C11BF18982500E010186
:103C00000101236F000E0101246F8DEC21F08992D8
:103C1000A80E01010101236F010E0101246F8DEC3B
:103C200021F001011D6F000E01010101196F010159
:103C30001D510B0E01010101196521EF1EF023EF4B
:103C40001EF025EF1EF07FEF1EF0010101011BA702
:103C50002CEF1EF02EEF1EF044EF1EF08982540E62
:103C600001010101236F010E0101246F8DEC21F090
:103C70008992A40E01010101236F000E0101246F3E
:103C80008DEC21F058EF1EF08982500E01010101E8
:103C9000236F000E0101246F8DEC21F08992A80E94
:103CA00001010101236F010E0101246F8DEC21F050
:103CB0008982500E01010101236F000E0101246F62
:103CC0008DEC21F08992A80E01010101236F010EF4
:103CD0000101246F8DEC21F00101D89001011A3708
:103CE00001011B3701010101192B0B0E010101011B
:103CF00019657DEF1EF07FEF1EF025EF1EF0480ED8
:103D000001010101236F0D0E0101246F8DEC21F0E3
:103D1000010101011C2B01010101185101010101E7
:103D20001C5DD8A096EF1EF098EF1EF0F9EF1DF085
:103D30009AEF1EF01200EACF48F1E1CF49F1E2CF4D
:103D40004AF1D9CF4BF1DACF4CF1F3CF4DF1F4CFAB
:103D50004EF1F6CF4FF1F7CF50F1F8CF51F1F5CF4B
:103D600052F19EAAB6EF1EF0B8EF1EF0EDEF1EF076
:103D7000AECF7AF0010EF66E0F0EF76E000EF86EF3
:103D80000800F550000100016461C9EF1EF0CBEF9F
:103D90001EF0DBEF1EF0000100017A51240AD8B4B6
:103DA000D4EF1EF0D6EF1EF0DBEF1EF00001000195
:103DB000642BDFEF1EF0000E00010001646F0001B4
:103DC000000E000100016425E96EEA6A0001000EA0
:103DD000EA2200017AC0EFFF9E9A52C1F5FF51C15D
:103DE000F8FF50C1F7FF4FC1F6FF4EC1F4FF4DC1C0
:103DF000F3FF4CC1DAFF4BC1D9FF4AC1E2FF49C111
:103E0000E1FF48C1EAFF47C1E9FF46C1FBFF45C1E9
:103E1000FAFF1100000E010101013F6F000E0101C8
:103E2000406F010101013D513C11D8B41AEF1FF060
:103E30001CEF1FF06BEF1FF00101416F010E01013C
:103E400001013E6F010141512FEF1FF00101D89098
:103E500001013C3701013D37010101013E2B010108
:103E600001013DAF36EF1FF038EF1FF026EF1FF0D6
:103E70000101D89001013F370101403701010101E3
:103E80003C51010101013A5D010101013D51010176
:103E900001013B59D8A04FEF1FF051EF1FF060EF29
:103EA0001FF0010101013C51010101013A5F0101D3
:103EB00001013D51010101013B5B010101013F8114
:103EC0000101D89001013D3301013C3301010101A1
:103ED0003E2F38EF1FF03FC13AF140C13BF171EF87
:103EE0001FF01200380E01010101336F0F0E0101A6
:103EF000346FC0EC20F001011F6F000E01010101C1
:103F00001E6F01011F51020E010101011E658BEFA1
:103F10001FF08DEF1FF08FEF1FF0C4EF1FF0000EAA
:103F2000010101011A15010101011C6F0F0E0101B0
:103F300001011B1501011D6F010101011A3B010166
:103F40001B3BF00E01011B1701011A510F0B010160
:103F50001B13F00E01011A17010101011D5101018E
:103F60001C6F01011D6B1CC127F1D6EC21F0010172
:103F700001011E2B020E010101011E65C2EF1FF09F
:103F8000C4EF1FF08FEF1FF001011F6F0A0E010138
:103F900001013A6F01011F5126EC22F05FEC22F083
:103FA0001200000E01010101416F000E0101426F7C
:103FB000000E0101436F000E0101446F0101010178
:103FC00039A1E5EF1FF0E7EF1FF0FFEF1FF0010150
:103FD00001013D51010101014127010101013E5152
:103FE000010101014223010101013F5101010101D0
:103FF0004323010101014051010101014423010159
:10400000D89001013D3701013E3701013F370101E1
:1040100040370101D89001013C3301013B330101DC
:104020003A330101393301013C5139113A113B1145
:10403000D8A41DEF20F01FEF20F0DEEF1FF041C1EC
:1040400039F142C13AF143C13BF144C13CF129EF9E
:1040500020F01200010101013D513C11D8B433EFB1
:1040600020F035EF20F07BEF20F001013F6F010ED3
:10407000010101013E6F01013F5148EF20F00101B4
:10408000D89001013C3701013D37010101013E2B70
:10409000010101013DAF4FEF20F051EF20F03FEF64
:1040A00020F0010101013C51010101013A5D0101D2
:1040B00001013D51010101013B59D8A062EF20F0FF
:1040C00064EF20F070EF20F0010101013C5101018B
:1040D00001013A5F010101013D51010101013B5B19
:1040E0000101D89001013D3301013C33010101017F
:1040F0003E2F51EF20F03AC13AF13BC13BF181EF45
:1041000020F012000101186F000E01010101176F6C
:10411000010118510101010116A191EF20F093EF67
:1041200020F096EF20F00101010117870101010144
:1041300016A39DEF20F09FEF20F0A2EF20F00101E9
:10414000010117850101010116A5A9EF20F0ABEFD0
:1041500020F0AEEF20F00101010117830101010100
:1041600016A7B5EF20F0B7EF20F0BAEF20F001016D
:1041700001011781010101011751BFEF20F0120069
:10418000DAEF20F0FF0E0101010133250101356F47
:10419000FF0E0101010134210101366F35C1F6FF27
:1041A00036C1F7FF000EF86E08000101F5CF3AF1B5
:1041B00026EC22F00101010133510101356F0101AB
:1041C000010134510101366F0101334B342B35C1EC
:1041D000F6FF36C1F7FF000EF86E0800F550000933
:1041E000D8A4F5EF20F0F7EF20F0C2EF20F0120096
:1041F0000101176F000E01010101166F0101175136
:10420000040E01010101166508EF21F00AEF21F00B
:104210000CEF21F02CEF21F08B7A8BBA12EF21F00A
:1042200015EF21F08B8816EF21F08B98640E0101B9
:104230000101236F000E0101246F2DEC21F001011B
:104240000101162B040E0101010116652AEF21F070
:104250002CEF21F00CEF21F01200000E0101010102
:10426000256F000E0101266F45EF21F00B0E0101B5
:10427000276F620EE82E3AEF21F0272F3AEF21F058
:10428000040001010101254B262B010101012651EA
:10429000800A0101276F0101235101010101255D00
:1042A000010101012451800A01012759D8A05BEFC7
:1042B00021F05DEF21F036EF21F0120035C13DF124
:1042C00036C13EF137C13FF138C140F133C1E9FF9A
:1042D00034C1EAFF0101EECF39F10101EECF3AF12D
:1042E0000101EECF3BF10101EECF3CF1D1EC1FF02B
:1042F00033C1E9FF34C1EAFF010139C1EEFF010119
:104300003AC1EEFF01013BC1EEFF01013CC1EDFFEF
:10431000ED52ED528CEF21F01200000E010101016F
:10432000256F000E0101266F9BEF21F000F00101C7
:104330000101254B262B010101012651800A0101B3
:10434000276F0101235101010101255D01010101D7
:104350002451800A01012759D8A0B1EF21F0B3EF11
:1043600021F096EF21F0120069EC22F0030E01011A
:104370000101236F000E0101246F2DEC21F08990C3
:104380008B98AB882B0E01010101336F0F0E0101D9
:10439000346FC0EC20F00101166F0A0E010101011B
:1043A0003A6F0101165126EC22F012000A0E0101AB
:1043B00001012761DEEF21F0E0EF21F0EBEF21F0CA
:1043C000010101012751300F010101013A6F26EC73
:1043D00022F0F4EF21F0010101012751370F010113
:1043E00001013A6F26EC22F012003A0E01010101A0
:1043F0001661FDEF21F0FFEF21F005EF22F0300E06
:1044000001010101165F09EF22F0370E01010101E0
:10441000165F0101010116510EEF22F01200800E0D
:10442000946E000E936E060E926E000EC26E000E1B
:104430007E6E000E7F6E240EAC6E900EAB6ECF0EB5
:10444000AF6E400EF26E200E9D6E120032EF22F023
:10445000ABA22DEF22F02FEF22F032EF22F0AB983B
:1044600000F0AB889EA837EF22F039EF22F028EF5A
:1044700022F03AC1ADFF1200020E01010101336FBB
:104480000F0E0101346FC0EC20F00101166F0A0E0F
:10449000010101013A6F0101165126EC22F01200D0
:1044A000AB988B888980030E01010101236F000EF8
:1044B0000101246F2DEC21F066EC22F012008B8AB2
:1044C000000EB36E000EB26EB1801200040E926E3A
:0844D0001200060E926E1200AC
:00000001FF
